{
	"contracts/MyToken.sol": {
		"Yebelo": {
			"abi": [
				{
					"inputs": [],
					"stateMutability": "nonpayable",
					"type": "constructor"
				},
				{
					"anonymous": false,
					"inputs": [
						{
							"indexed": true,
							"internalType": "address",
							"name": "owner",
							"type": "address"
						},
						{
							"indexed": true,
							"internalType": "address",
							"name": "spender",
							"type": "address"
						},
						{
							"indexed": false,
							"internalType": "uint256",
							"name": "value",
							"type": "uint256"
						}
					],
					"name": "Approval",
					"type": "event"
				},
				{
					"anonymous": false,
					"inputs": [
						{
							"indexed": true,
							"internalType": "address",
							"name": "previousOwner",
							"type": "address"
						},
						{
							"indexed": true,
							"internalType": "address",
							"name": "newOwner",
							"type": "address"
						}
					],
					"name": "OwnershipTransferred",
					"type": "event"
				},
				{
					"anonymous": false,
					"inputs": [
						{
							"indexed": true,
							"internalType": "address",
							"name": "from",
							"type": "address"
						},
						{
							"indexed": true,
							"internalType": "address",
							"name": "to",
							"type": "address"
						},
						{
							"indexed": false,
							"internalType": "uint256",
							"name": "value",
							"type": "uint256"
						}
					],
					"name": "Transfer",
					"type": "event"
				},
				{
					"inputs": [
						{
							"internalType": "address",
							"name": "owner",
							"type": "address"
						},
						{
							"internalType": "address",
							"name": "spender",
							"type": "address"
						}
					],
					"name": "allowance",
					"outputs": [
						{
							"internalType": "uint256",
							"name": "",
							"type": "uint256"
						}
					],
					"stateMutability": "view",
					"type": "function"
				},
				{
					"inputs": [
						{
							"internalType": "address",
							"name": "spender",
							"type": "address"
						},
						{
							"internalType": "uint256",
							"name": "amount",
							"type": "uint256"
						}
					],
					"name": "approve",
					"outputs": [
						{
							"internalType": "bool",
							"name": "",
							"type": "bool"
						}
					],
					"stateMutability": "nonpayable",
					"type": "function"
				},
				{
					"inputs": [],
					"name": "assignSlab",
					"outputs": [],
					"stateMutability": "nonpayable",
					"type": "function"
				},
				{
					"inputs": [
						{
							"internalType": "address",
							"name": "account",
							"type": "address"
						}
					],
					"name": "balanceOf",
					"outputs": [
						{
							"internalType": "uint256",
							"name": "",
							"type": "uint256"
						}
					],
					"stateMutability": "view",
					"type": "function"
				},
				{
					"inputs": [],
					"name": "decimals",
					"outputs": [
						{
							"internalType": "uint8",
							"name": "",
							"type": "uint8"
						}
					],
					"stateMutability": "view",
					"type": "function"
				},
				{
					"inputs": [
						{
							"internalType": "address",
							"name": "spender",
							"type": "address"
						},
						{
							"internalType": "uint256",
							"name": "subtractedValue",
							"type": "uint256"
						}
					],
					"name": "decreaseAllowance",
					"outputs": [
						{
							"internalType": "bool",
							"name": "",
							"type": "bool"
						}
					],
					"stateMutability": "nonpayable",
					"type": "function"
				},
				{
					"inputs": [],
					"name": "deposited",
					"outputs": [
						{
							"internalType": "uint256",
							"name": "",
							"type": "uint256"
						}
					],
					"stateMutability": "view",
					"type": "function"
				},
				{
					"inputs": [
						{
							"internalType": "address",
							"name": "_address",
							"type": "address"
						}
					],
					"name": "getBalanceOfToken",
					"outputs": [
						{
							"internalType": "uint256",
							"name": "",
							"type": "uint256"
						}
					],
					"stateMutability": "view",
					"type": "function"
				},
				{
					"inputs": [
						{
							"internalType": "address",
							"name": "spender",
							"type": "address"
						},
						{
							"internalType": "uint256",
							"name": "addedValue",
							"type": "uint256"
						}
					],
					"name": "increaseAllowance",
					"outputs": [
						{
							"internalType": "bool",
							"name": "",
							"type": "bool"
						}
					],
					"stateMutability": "nonpayable",
					"type": "function"
				},
				{
					"inputs": [
						{
							"internalType": "address",
							"name": "to",
							"type": "address"
						},
						{
							"internalType": "uint256",
							"name": "amount",
							"type": "uint256"
						}
					],
					"name": "mint",
					"outputs": [],
					"stateMutability": "nonpayable",
					"type": "function"
				},
				{
					"inputs": [],
					"name": "name",
					"outputs": [
						{
							"internalType": "string",
							"name": "",
							"type": "string"
						}
					],
					"stateMutability": "view",
					"type": "function"
				},
				{
					"inputs": [],
					"name": "owner",
					"outputs": [
						{
							"internalType": "address",
							"name": "",
							"type": "address"
						}
					],
					"stateMutability": "view",
					"type": "function"
				},
				{
					"inputs": [],
					"name": "renounceOwnership",
					"outputs": [],
					"stateMutability": "nonpayable",
					"type": "function"
				},
				{
					"inputs": [
						{
							"internalType": "address",
							"name": "_checker",
							"type": "address"
						}
					],
					"name": "returnSlab",
					"outputs": [
						{
							"internalType": "uint256",
							"name": "",
							"type": "uint256"
						}
					],
					"stateMutability": "view",
					"type": "function"
				},
				{
					"inputs": [
						{
							"internalType": "address",
							"name": "",
							"type": "address"
						}
					],
					"name": "slabDetails",
					"outputs": [
						{
							"internalType": "bool",
							"name": "hasDeposited",
							"type": "bool"
						},
						{
							"internalType": "uint256",
							"name": "depositedAmount",
							"type": "uint256"
						},
						{
							"internalType": "uint256",
							"name": "slab",
							"type": "uint256"
						}
					],
					"stateMutability": "view",
					"type": "function"
				},
				{
					"inputs": [],
					"name": "symbol",
					"outputs": [
						{
							"internalType": "string",
							"name": "",
							"type": "string"
						}
					],
					"stateMutability": "view",
					"type": "function"
				},
				{
					"inputs": [],
					"name": "totalSupply",
					"outputs": [
						{
							"internalType": "uint256",
							"name": "",
							"type": "uint256"
						}
					],
					"stateMutability": "view",
					"type": "function"
				},
				{
					"inputs": [
						{
							"internalType": "address",
							"name": "to",
							"type": "address"
						},
						{
							"internalType": "uint256",
							"name": "amount",
							"type": "uint256"
						}
					],
					"name": "transfer",
					"outputs": [
						{
							"internalType": "bool",
							"name": "",
							"type": "bool"
						}
					],
					"stateMutability": "nonpayable",
					"type": "function"
				},
				{
					"inputs": [
						{
							"internalType": "address",
							"name": "from",
							"type": "address"
						},
						{
							"internalType": "address",
							"name": "to",
							"type": "address"
						},
						{
							"internalType": "uint256",
							"name": "amount",
							"type": "uint256"
						}
					],
					"name": "transferFrom",
					"outputs": [
						{
							"internalType": "bool",
							"name": "",
							"type": "bool"
						}
					],
					"stateMutability": "nonpayable",
					"type": "function"
				},
				{
					"inputs": [
						{
							"internalType": "address",
							"name": "newOwner",
							"type": "address"
						}
					],
					"name": "transferOwnership",
					"outputs": [],
					"stateMutability": "nonpayable",
					"type": "function"
				},
				{
					"inputs": [
						{
							"internalType": "address",
							"name": "_to",
							"type": "address"
						},
						{
							"internalType": "uint256",
							"name": "_amount",
							"type": "uint256"
						}
					],
					"name": "transferToContract",
					"outputs": [],
					"stateMutability": "payable",
					"type": "function"
				}
			],
			"devdoc": {
				"kind": "dev",
				"methods": {
					"allowance(address,address)": {
						"details": "See {IERC20-allowance}."
					},
					"approve(address,uint256)": {
						"details": "See {IERC20-approve}. NOTE: If `amount` is the maximum `uint256`, the allowance is not updated on `transferFrom`. This is semantically equivalent to an infinite approval. Requirements: - `spender` cannot be the zero address."
					},
					"balanceOf(address)": {
						"details": "See {IERC20-balanceOf}."
					},
					"decimals()": {
						"details": "Returns the number of decimals used to get its user representation. For example, if `decimals` equals `2`, a balance of `505` tokens should be displayed to a user as `5.05` (`505 / 10 ** 2`). Tokens usually opt for a value of 18, imitating the relationship between Ether and Wei. This is the value {ERC20} uses, unless this function is overridden; NOTE: This information is only used for _display_ purposes: it in no way affects any of the arithmetic of the contract, including {IERC20-balanceOf} and {IERC20-transfer}."
					},
					"decreaseAllowance(address,uint256)": {
						"details": "Atomically decreases the allowance granted to `spender` by the caller. This is an alternative to {approve} that can be used as a mitigation for problems described in {IERC20-approve}. Emits an {Approval} event indicating the updated allowance. Requirements: - `spender` cannot be the zero address. - `spender` must have allowance for the caller of at least `subtractedValue`."
					},
					"increaseAllowance(address,uint256)": {
						"details": "Atomically increases the allowance granted to `spender` by the caller. This is an alternative to {approve} that can be used as a mitigation for problems described in {IERC20-approve}. Emits an {Approval} event indicating the updated allowance. Requirements: - `spender` cannot be the zero address."
					},
					"name()": {
						"details": "Returns the name of the token."
					},
					"owner()": {
						"details": "Returns the address of the current owner."
					},
					"renounceOwnership()": {
						"details": "Leaves the contract without owner. It will not be possible to call `onlyOwner` functions anymore. Can only be called by the current owner. NOTE: Renouncing ownership will leave the contract without an owner, thereby removing any functionality that is only available to the owner."
					},
					"symbol()": {
						"details": "Returns the symbol of the token, usually a shorter version of the name."
					},
					"totalSupply()": {
						"details": "See {IERC20-totalSupply}."
					},
					"transfer(address,uint256)": {
						"details": "See {IERC20-transfer}. Requirements: - `to` cannot be the zero address. - the caller must have a balance of at least `amount`."
					},
					"transferFrom(address,address,uint256)": {
						"details": "See {IERC20-transferFrom}. Emits an {Approval} event indicating the updated allowance. This is not required by the EIP. See the note at the beginning of {ERC20}. NOTE: Does not update the allowance if the current allowance is the maximum `uint256`. Requirements: - `from` and `to` cannot be the zero address. - `from` must have a balance of at least `amount`. - the caller must have allowance for ``from``'s tokens of at least `amount`."
					},
					"transferOwnership(address)": {
						"details": "Transfers ownership of the contract to a new account (`newOwner`). Can only be called by the current owner."
					}
				},
				"version": 1
			},
			"evm": {
				"assembly": "    /* \"contracts/MyToken.sol\":169:3134  contract Yebelo is ERC20, Ownable {... */\n  mstore(0x40, 0x80)\n    /* \"contracts/MyToken.sol\":682:683  0 */\n  0x00\n    /* \"contracts/MyToken.sol\":660:683  uint public deposited=0 */\n  0x06\n  sstore\n    /* \"contracts/MyToken.sol\":1098:1367  constructor() ERC20(\"Yebelo\", \"YBL\") {... */\n  callvalue\n  dup1\n  iszero\n  tag_1\n  jumpi\n  0x00\n  dup1\n  revert\ntag_1:\n  pop\n    /* \"@openzeppelin/contracts/token/ERC20/ERC20.sol\":1976:2089  constructor(string memory name_, string memory symbol_) {... */\n  mload(0x40)\n  dup1\n  0x40\n  add\n  0x40\n  mstore\n  dup1\n  0x06\n  dup2\n  mstore\n  0x20\n  add\n  0x596562656c6f0000000000000000000000000000000000000000000000000000\n  dup2\n  mstore\n  pop\n  mload(0x40)\n  dup1\n  0x40\n  add\n  0x40\n  mstore\n  dup1\n  0x03\n  dup2\n  mstore\n  0x20\n  add\n  0x59424c0000000000000000000000000000000000000000000000000000000000\n  dup2\n  mstore\n  pop\n    /* \"@openzeppelin/contracts/token/ERC20/ERC20.sol\":2050:2055  name_ */\n  dup2\n    /* \"@openzeppelin/contracts/token/ERC20/ERC20.sol\":2042:2047  _name */\n  0x03\n    /* \"@openzeppelin/contracts/token/ERC20/ERC20.sol\":2042:2055  _name = name_ */\n  swap1\n  dup1\n  mload\n  swap1\n  0x20\n  add\n  swap1\n  tag_6\n  swap3\n  swap2\n  swap1\n  tag_7\n  jump\t// in\ntag_6:\n  pop\n    /* \"@openzeppelin/contracts/token/ERC20/ERC20.sol\":2075:2082  symbol_ */\n  dup1\n    /* \"@openzeppelin/contracts/token/ERC20/ERC20.sol\":2065:2072  _symbol */\n  0x04\n    /* \"@openzeppelin/contracts/token/ERC20/ERC20.sol\":2065:2082  _symbol = symbol_ */\n  swap1\n  dup1\n  mload\n  swap1\n  0x20\n  add\n  swap1\n  tag_8\n  swap3\n  swap2\n  swap1\n  tag_7\n  jump\t// in\ntag_8:\n  pop\n    /* \"@openzeppelin/contracts/token/ERC20/ERC20.sol\":1976:2089  constructor(string memory name_, string memory symbol_) {... */\n  pop\n  pop\n    /* \"@openzeppelin/contracts/access/Ownable.sol\":936:968  _transferOwnership(_msgSender()) */\n  tag_10\n    /* \"@openzeppelin/contracts/access/Ownable.sol\":955:967  _msgSender() */\n  tag_11\n    /* \"@openzeppelin/contracts/access/Ownable.sol\":955:965  _msgSender */\n  shl(0x20, tag_12)\n    /* \"@openzeppelin/contracts/access/Ownable.sol\":955:967  _msgSender() */\n  0x20\n  shr\n  jump\t// in\ntag_11:\n    /* \"@openzeppelin/contracts/access/Ownable.sol\":936:954  _transferOwnership */\n  shl(0x20, tag_13)\n    /* \"@openzeppelin/contracts/access/Ownable.sol\":936:968  _transferOwnership(_msgSender()) */\n  0x20\n  shr\n  jump\t// in\ntag_10:\n    /* \"contracts/MyToken.sol\":1145:1169  mint(address(this),5000) */\n  tag_15\n    /* \"contracts/MyToken.sol\":1158:1162  this */\n  address\n    /* \"contracts/MyToken.sol\":1164:1168  5000 */\n  0x1388\n    /* \"contracts/MyToken.sol\":1145:1149  mint */\n  shl(0x20, tag_16)\n    /* \"contracts/MyToken.sol\":1145:1169  mint(address(this),5000) */\n  0x20\n  shr\n  jump\t// in\ntag_15:\n    /* \"contracts/MyToken.sol\":1224:1245  mint(msg.sender,3000) */\n  tag_17\n    /* \"contracts/MyToken.sol\":1229:1239  msg.sender */\n  caller\n    /* \"contracts/MyToken.sol\":1240:1244  3000 */\n  0x0bb8\n    /* \"contracts/MyToken.sol\":1224:1228  mint */\n  shl(0x20, tag_16)\n    /* \"contracts/MyToken.sol\":1224:1245  mint(msg.sender,3000) */\n  0x20\n  shr\n  jump\t// in\ntag_17:\n    /* \"contracts/MyToken.sol\":1348:1358  msg.sender */\n  caller\n    /* \"contracts/MyToken.sol\":1336:1339  own */\n  0x08\n  0x00\n    /* \"contracts/MyToken.sol\":1336:1359  own=payable(msg.sender) */\n  0x0100\n  exp\n  dup2\n  sload\n  dup2\n  0xffffffffffffffffffffffffffffffffffffffff\n  mul\n  not\n  and\n  swap1\n  dup4\n  0xffffffffffffffffffffffffffffffffffffffff\n  and\n  mul\n  or\n  swap1\n  sstore\n  pop\n    /* \"contracts/MyToken.sol\":169:3134  contract Yebelo is ERC20, Ownable {... */\n  jump(tag_18)\n    /* \"@openzeppelin/contracts/utils/Context.sol\":640:736  function _msgSender() internal view virtual returns (address) {... */\ntag_12:\n    /* \"@openzeppelin/contracts/utils/Context.sol\":693:700  address */\n  0x00\n    /* \"@openzeppelin/contracts/utils/Context.sol\":719:729  msg.sender */\n  caller\n    /* \"@openzeppelin/contracts/utils/Context.sol\":712:729  return msg.sender */\n  swap1\n  pop\n    /* \"@openzeppelin/contracts/utils/Context.sol\":640:736  function _msgSender() internal view virtual returns (address) {... */\n  swap1\n  jump\t// out\n    /* \"@openzeppelin/contracts/access/Ownable.sol\":2433:2620  function _transferOwnership(address newOwner) internal virtual {... */\ntag_13:\n    /* \"@openzeppelin/contracts/access/Ownable.sol\":2506:2522  address oldOwner */\n  0x00\n    /* \"@openzeppelin/contracts/access/Ownable.sol\":2525:2531  _owner */\n  0x05\n  0x00\n  swap1\n  sload\n  swap1\n  0x0100\n  exp\n  swap1\n  div\n  0xffffffffffffffffffffffffffffffffffffffff\n  and\n    /* \"@openzeppelin/contracts/access/Ownable.sol\":2506:2531  address oldOwner = _owner */\n  swap1\n  pop\n    /* \"@openzeppelin/contracts/access/Ownable.sol\":2550:2558  newOwner */\n  dup2\n    /* \"@openzeppelin/contracts/access/Ownable.sol\":2541:2547  _owner */\n  0x05\n  0x00\n    /* \"@openzeppelin/contracts/access/Ownable.sol\":2541:2558  _owner = newOwner */\n  0x0100\n  exp\n  dup2\n  sload\n  dup2\n  0xffffffffffffffffffffffffffffffffffffffff\n  mul\n  not\n  and\n  swap1\n  dup4\n  0xffffffffffffffffffffffffffffffffffffffff\n  and\n  mul\n  or\n  swap1\n  sstore\n  pop\n    /* \"@openzeppelin/contracts/access/Ownable.sol\":2604:2612  newOwner */\n  dup2\n    /* \"@openzeppelin/contracts/access/Ownable.sol\":2573:2613  OwnershipTransferred(oldOwner, newOwner) */\n  0xffffffffffffffffffffffffffffffffffffffff\n  and\n    /* \"@openzeppelin/contracts/access/Ownable.sol\":2594:2602  oldOwner */\n  dup2\n    /* \"@openzeppelin/contracts/access/Ownable.sol\":2573:2613  OwnershipTransferred(oldOwner, newOwner) */\n  0xffffffffffffffffffffffffffffffffffffffff\n  and\n  0x8be0079c531659141344cd1fd0a4f28419497f9722a3daafe3b4186f6b6457e0\n  mload(0x40)\n  mload(0x40)\n  dup1\n  swap2\n  sub\n  swap1\n  log3\n    /* \"@openzeppelin/contracts/access/Ownable.sol\":2433:2620  function _transferOwnership(address newOwner) internal virtual {... */\n  pop\n  pop\n  jump\t// out\n    /* \"contracts/MyToken.sol\":1373:1466  function mint(address to, uint256 amount) public onlyOwner {... */\ntag_16:\n    /* \"@openzeppelin/contracts/access/Ownable.sol\":1094:1107  _checkOwner() */\n  tag_22\n    /* \"@openzeppelin/contracts/access/Ownable.sol\":1094:1105  _checkOwner */\n  shl(0x20, tag_23)\n    /* \"@openzeppelin/contracts/access/Ownable.sol\":1094:1107  _checkOwner() */\n  0x20\n  shr\n  jump\t// in\ntag_22:\n    /* \"contracts/MyToken.sol\":1442:1459  _mint(to, amount) */\n  tag_25\n    /* \"contracts/MyToken.sol\":1448:1450  to */\n  dup3\n    /* \"contracts/MyToken.sol\":1452:1458  amount */\n  dup3\n    /* \"contracts/MyToken.sol\":1442:1447  _mint */\n  shl(0x20, tag_26)\n    /* \"contracts/MyToken.sol\":1442:1459  _mint(to, amount) */\n  0x20\n  shr\n  jump\t// in\ntag_25:\n    /* \"contracts/MyToken.sol\":1373:1466  function mint(address to, uint256 amount) public onlyOwner {... */\n  pop\n  pop\n  jump\t// out\n    /* \"@openzeppelin/contracts/access/Ownable.sol\":1359:1489  function _checkOwner() internal view virtual {... */\ntag_23:\n    /* \"@openzeppelin/contracts/access/Ownable.sol\":1433:1445  _msgSender() */\n  tag_28\n    /* \"@openzeppelin/contracts/access/Ownable.sol\":1433:1443  _msgSender */\n  shl(0x20, tag_12)\n    /* \"@openzeppelin/contracts/access/Ownable.sol\":1433:1445  _msgSender() */\n  0x20\n  shr\n  jump\t// in\ntag_28:\n    /* \"@openzeppelin/contracts/access/Ownable.sol\":1422:1445  owner() == _msgSender() */\n  0xffffffffffffffffffffffffffffffffffffffff\n  and\n    /* \"@openzeppelin/contracts/access/Ownable.sol\":1422:1429  owner() */\n  tag_29\n    /* \"@openzeppelin/contracts/access/Ownable.sol\":1422:1427  owner */\n  shl(0x20, tag_30)\n    /* \"@openzeppelin/contracts/access/Ownable.sol\":1422:1429  owner() */\n  0x20\n  shr\n  jump\t// in\ntag_29:\n    /* \"@openzeppelin/contracts/access/Ownable.sol\":1422:1445  owner() == _msgSender() */\n  0xffffffffffffffffffffffffffffffffffffffff\n  and\n  eq\n    /* \"@openzeppelin/contracts/access/Ownable.sol\":1414:1482  require(owner() == _msgSender(), \"Ownable: caller is not the owner\") */\n  tag_31\n  jumpi\n  mload(0x40)\n  0x08c379a000000000000000000000000000000000000000000000000000000000\n  dup2\n  mstore\n  0x04\n  add\n  tag_32\n  swap1\n  tag_33\n  jump\t// in\ntag_32:\n  mload(0x40)\n  dup1\n  swap2\n  sub\n  swap1\n  revert\ntag_31:\n    /* \"@openzeppelin/contracts/access/Ownable.sol\":1359:1489  function _checkOwner() internal view virtual {... */\n  jump\t// out\n    /* \"@openzeppelin/contracts/token/ERC20/ERC20.sol\":8567:9102  function _mint(address account, uint256 amount) internal virtual {... */\ntag_26:\n    /* \"@openzeppelin/contracts/token/ERC20/ERC20.sol\":8669:8670  0 */\n  0x00\n    /* \"@openzeppelin/contracts/token/ERC20/ERC20.sol\":8650:8671  account != address(0) */\n  0xffffffffffffffffffffffffffffffffffffffff\n  and\n    /* \"@openzeppelin/contracts/token/ERC20/ERC20.sol\":8650:8657  account */\n  dup3\n    /* \"@openzeppelin/contracts/token/ERC20/ERC20.sol\":8650:8671  account != address(0) */\n  0xffffffffffffffffffffffffffffffffffffffff\n  and\n  eq\n  iszero\n    /* \"@openzeppelin/contracts/token/ERC20/ERC20.sol\":8642:8707  require(account != address(0), \"ERC20: mint to the zero address\") */\n  tag_35\n  jumpi\n  mload(0x40)\n  0x08c379a000000000000000000000000000000000000000000000000000000000\n  dup2\n  mstore\n  0x04\n  add\n  tag_36\n  swap1\n  tag_37\n  jump\t// in\ntag_36:\n  mload(0x40)\n  dup1\n  swap2\n  sub\n  swap1\n  revert\ntag_35:\n    /* \"@openzeppelin/contracts/token/ERC20/ERC20.sol\":8718:8767  _beforeTokenTransfer(address(0), account, amount) */\n  tag_38\n    /* \"@openzeppelin/contracts/token/ERC20/ERC20.sol\":8747:8748  0 */\n  0x00\n    /* \"@openzeppelin/contracts/token/ERC20/ERC20.sol\":8751:8758  account */\n  dup4\n    /* \"@openzeppelin/contracts/token/ERC20/ERC20.sol\":8760:8766  amount */\n  dup4\n    /* \"@openzeppelin/contracts/token/ERC20/ERC20.sol\":8718:8738  _beforeTokenTransfer */\n  shl(0x20, tag_39)\n    /* \"@openzeppelin/contracts/token/ERC20/ERC20.sol\":8718:8767  _beforeTokenTransfer(address(0), account, amount) */\n  0x20\n  shr\n  jump\t// in\ntag_38:\n    /* \"@openzeppelin/contracts/token/ERC20/ERC20.sol\":8794:8800  amount */\n  dup1\n    /* \"@openzeppelin/contracts/token/ERC20/ERC20.sol\":8778:8790  _totalSupply */\n  0x02\n  0x00\n    /* \"@openzeppelin/contracts/token/ERC20/ERC20.sol\":8778:8800  _totalSupply += amount */\n  dup3\n  dup3\n  sload\n  tag_40\n  swap2\n  swap1\n  tag_41\n  jump\t// in\ntag_40:\n  swap3\n  pop\n  pop\n  dup2\n  swap1\n  sstore\n  pop\n    /* \"@openzeppelin/contracts/token/ERC20/ERC20.sol\":8968:8974  amount */\n  dup1\n    /* \"@openzeppelin/contracts/token/ERC20/ERC20.sol\":8946:8955  _balances */\n  0x00\n    /* \"@openzeppelin/contracts/token/ERC20/ERC20.sol\":8946:8964  _balances[account] */\n  dup1\n    /* \"@openzeppelin/contracts/token/ERC20/ERC20.sol\":8956:8963  account */\n  dup5\n    /* \"@openzeppelin/contracts/token/ERC20/ERC20.sol\":8946:8964  _balances[account] */\n  0xffffffffffffffffffffffffffffffffffffffff\n  and\n  0xffffffffffffffffffffffffffffffffffffffff\n  and\n  dup2\n  mstore\n  0x20\n  add\n  swap1\n  dup2\n  mstore\n  0x20\n  add\n  0x00\n  keccak256\n  0x00\n    /* \"@openzeppelin/contracts/token/ERC20/ERC20.sol\":8946:8974  _balances[account] += amount */\n  dup3\n  dup3\n  sload\n  add\n  swap3\n  pop\n  pop\n  dup2\n  swap1\n  sstore\n  pop\n    /* \"@openzeppelin/contracts/token/ERC20/ERC20.sol\":9020:9027  account */\n  dup2\n    /* \"@openzeppelin/contracts/token/ERC20/ERC20.sol\":8999:9036  Transfer(address(0), account, amount) */\n  0xffffffffffffffffffffffffffffffffffffffff\n  and\n    /* \"@openzeppelin/contracts/token/ERC20/ERC20.sol\":9016:9017  0 */\n  0x00\n    /* \"@openzeppelin/contracts/token/ERC20/ERC20.sol\":8999:9036  Transfer(address(0), account, amount) */\n  0xffffffffffffffffffffffffffffffffffffffff\n  and\n  0xddf252ad1be2c89b69c2b068fc378daa952ba7f163c4a11628f55a4df523b3ef\n    /* \"@openzeppelin/contracts/token/ERC20/ERC20.sol\":9029:9035  amount */\n  dup4\n    /* \"@openzeppelin/contracts/token/ERC20/ERC20.sol\":8999:9036  Transfer(address(0), account, amount) */\n  mload(0x40)\n  tag_42\n  swap2\n  swap1\n  tag_43\n  jump\t// in\ntag_42:\n  mload(0x40)\n  dup1\n  swap2\n  sub\n  swap1\n  log3\n    /* \"@openzeppelin/contracts/token/ERC20/ERC20.sol\":9047:9095  _afterTokenTransfer(address(0), account, amount) */\n  tag_44\n    /* \"@openzeppelin/contracts/token/ERC20/ERC20.sol\":9075:9076  0 */\n  0x00\n    /* \"@openzeppelin/contracts/token/ERC20/ERC20.sol\":9079:9086  account */\n  dup4\n    /* \"@openzeppelin/contracts/token/ERC20/ERC20.sol\":9088:9094  amount */\n  dup4\n    /* \"@openzeppelin/contracts/token/ERC20/ERC20.sol\":9047:9066  _afterTokenTransfer */\n  shl(0x20, tag_45)\n    /* \"@openzeppelin/contracts/token/ERC20/ERC20.sol\":9047:9095  _afterTokenTransfer(address(0), account, amount) */\n  0x20\n  shr\n  jump\t// in\ntag_44:\n    /* \"@openzeppelin/contracts/token/ERC20/ERC20.sol\":8567:9102  function _mint(address account, uint256 amount) internal virtual {... */\n  pop\n  pop\n  jump\t// out\n    /* \"@openzeppelin/contracts/access/Ownable.sol\":1201:1286  function owner() public view virtual returns (address) {... */\ntag_30:\n    /* \"@openzeppelin/contracts/access/Ownable.sol\":1247:1254  address */\n  0x00\n    /* \"@openzeppelin/contracts/access/Ownable.sol\":1273:1279  _owner */\n  0x05\n  0x00\n  swap1\n  sload\n  swap1\n  0x0100\n  exp\n  swap1\n  div\n  0xffffffffffffffffffffffffffffffffffffffff\n  and\n    /* \"@openzeppelin/contracts/access/Ownable.sol\":1266:1279  return _owner */\n  swap1\n  pop\n    /* \"@openzeppelin/contracts/access/Ownable.sol\":1201:1286  function owner() public view virtual returns (address) {... */\n  swap1\n  jump\t// out\n    /* \"@openzeppelin/contracts/token/ERC20/ERC20.sol\":12180:12301  function _beforeTokenTransfer(... */\ntag_39:\n  pop\n  pop\n  pop\n  jump\t// out\n    /* \"@openzeppelin/contracts/token/ERC20/ERC20.sol\":12889:13009  function _afterTokenTransfer(... */\ntag_45:\n  pop\n  pop\n  pop\n  jump\t// out\n    /* \"contracts/MyToken.sol\":169:3134  contract Yebelo is ERC20, Ownable {... */\ntag_7:\n  dup3\n  dup1\n  sload\n  tag_49\n  swap1\n  tag_50\n  jump\t// in\ntag_49:\n  swap1\n  0x00\n  mstore\n  keccak256(0x00, 0x20)\n  swap1\n  0x1f\n  add\n  0x20\n  swap1\n  div\n  dup2\n  add\n  swap3\n  dup3\n  tag_52\n  jumpi\n  0x00\n  dup6\n  sstore\n  jump(tag_51)\ntag_52:\n  dup3\n  0x1f\n  lt\n  tag_53\n  jumpi\n  dup1\n  mload\n  not(0xff)\n  and\n  dup4\n  dup1\n  add\n  or\n  dup6\n  sstore\n  jump(tag_51)\ntag_53:\n  dup3\n  dup1\n  add\n  0x01\n  add\n  dup6\n  sstore\n  dup3\n  iszero\n  tag_51\n  jumpi\n  swap2\n  dup3\n  add\ntag_54:\n  dup3\n  dup2\n  gt\n  iszero\n  tag_55\n  jumpi\n  dup3\n  mload\n  dup3\n  sstore\n  swap2\n  0x20\n  add\n  swap2\n  swap1\n  0x01\n  add\n  swap1\n  jump(tag_54)\ntag_55:\ntag_51:\n  pop\n  swap1\n  pop\n  tag_56\n  swap2\n  swap1\n  tag_57\n  jump\t// in\ntag_56:\n  pop\n  swap1\n  jump\t// out\ntag_57:\ntag_58:\n  dup1\n  dup3\n  gt\n  iszero\n  tag_59\n  jumpi\n  0x00\n  dup2\n  0x00\n  swap1\n  sstore\n  pop\n  0x01\n  add\n  jump(tag_58)\ntag_59:\n  pop\n  swap1\n  jump\t// out\n    /* \"#utility.yul\":7:337   */\ntag_61:\n  0x00\n    /* \"#utility.yul\":170:237   */\n  tag_63\n    /* \"#utility.yul\":234:236   */\n  0x20\n    /* \"#utility.yul\":229:232   */\n  dup4\n    /* \"#utility.yul\":170:237   */\n  tag_64\n  jump\t// in\ntag_63:\n    /* \"#utility.yul\":163:237   */\n  swap2\n  pop\n    /* \"#utility.yul\":267:301   */\n  0x4f776e61626c653a2063616c6c6572206973206e6f7420746865206f776e6572\n    /* \"#utility.yul\":263:264   */\n  0x00\n    /* \"#utility.yul\":258:261   */\n  dup4\n    /* \"#utility.yul\":254:265   */\n  add\n    /* \"#utility.yul\":247:302   */\n  mstore\n    /* \"#utility.yul\":328:330   */\n  0x20\n    /* \"#utility.yul\":323:326   */\n  dup3\n    /* \"#utility.yul\":319:331   */\n  add\n    /* \"#utility.yul\":312:331   */\n  swap1\n  pop\n    /* \"#utility.yul\":153:337   */\n  swap2\n  swap1\n  pop\n  jump\t// out\n    /* \"#utility.yul\":343:672   */\ntag_65:\n  0x00\n    /* \"#utility.yul\":506:573   */\n  tag_67\n    /* \"#utility.yul\":570:572   */\n  0x1f\n    /* \"#utility.yul\":565:568   */\n  dup4\n    /* \"#utility.yul\":506:573   */\n  tag_64\n  jump\t// in\ntag_67:\n    /* \"#utility.yul\":499:573   */\n  swap2\n  pop\n    /* \"#utility.yul\":603:636   */\n  0x45524332303a206d696e7420746f20746865207a65726f206164647265737300\n    /* \"#utility.yul\":599:600   */\n  0x00\n    /* \"#utility.yul\":594:597   */\n  dup4\n    /* \"#utility.yul\":590:601   */\n  add\n    /* \"#utility.yul\":583:637   */\n  mstore\n    /* \"#utility.yul\":663:665   */\n  0x20\n    /* \"#utility.yul\":658:661   */\n  dup3\n    /* \"#utility.yul\":654:666   */\n  add\n    /* \"#utility.yul\":647:666   */\n  swap1\n  pop\n    /* \"#utility.yul\":489:672   */\n  swap2\n  swap1\n  pop\n  jump\t// out\n    /* \"#utility.yul\":678:796   */\ntag_68:\n    /* \"#utility.yul\":765:789   */\n  tag_70\n    /* \"#utility.yul\":783:788   */\n  dup2\n    /* \"#utility.yul\":765:789   */\n  tag_71\n  jump\t// in\ntag_70:\n    /* \"#utility.yul\":760:763   */\n  dup3\n    /* \"#utility.yul\":753:790   */\n  mstore\n    /* \"#utility.yul\":743:796   */\n  pop\n  pop\n  jump\t// out\n    /* \"#utility.yul\":802:1221   */\ntag_33:\n  0x00\n    /* \"#utility.yul\":1006:1008   */\n  0x20\n    /* \"#utility.yul\":995:1004   */\n  dup3\n    /* \"#utility.yul\":991:1009   */\n  add\n    /* \"#utility.yul\":983:1009   */\n  swap1\n  pop\n    /* \"#utility.yul\":1055:1064   */\n  dup2\n    /* \"#utility.yul\":1049:1053   */\n  dup2\n    /* \"#utility.yul\":1045:1065   */\n  sub\n    /* \"#utility.yul\":1041:1042   */\n  0x00\n    /* \"#utility.yul\":1030:1039   */\n  dup4\n    /* \"#utility.yul\":1026:1043   */\n  add\n    /* \"#utility.yul\":1019:1066   */\n  mstore\n    /* \"#utility.yul\":1083:1214   */\n  tag_73\n    /* \"#utility.yul\":1209:1213   */\n  dup2\n    /* \"#utility.yul\":1083:1214   */\n  tag_61\n  jump\t// in\ntag_73:\n    /* \"#utility.yul\":1075:1214   */\n  swap1\n  pop\n    /* \"#utility.yul\":973:1221   */\n  swap2\n  swap1\n  pop\n  jump\t// out\n    /* \"#utility.yul\":1227:1646   */\ntag_37:\n  0x00\n    /* \"#utility.yul\":1431:1433   */\n  0x20\n    /* \"#utility.yul\":1420:1429   */\n  dup3\n    /* \"#utility.yul\":1416:1434   */\n  add\n    /* \"#utility.yul\":1408:1434   */\n  swap1\n  pop\n    /* \"#utility.yul\":1480:1489   */\n  dup2\n    /* \"#utility.yul\":1474:1478   */\n  dup2\n    /* \"#utility.yul\":1470:1490   */\n  sub\n    /* \"#utility.yul\":1466:1467   */\n  0x00\n    /* \"#utility.yul\":1455:1464   */\n  dup4\n    /* \"#utility.yul\":1451:1468   */\n  add\n    /* \"#utility.yul\":1444:1491   */\n  mstore\n    /* \"#utility.yul\":1508:1639   */\n  tag_75\n    /* \"#utility.yul\":1634:1638   */\n  dup2\n    /* \"#utility.yul\":1508:1639   */\n  tag_65\n  jump\t// in\ntag_75:\n    /* \"#utility.yul\":1500:1639   */\n  swap1\n  pop\n    /* \"#utility.yul\":1398:1646   */\n  swap2\n  swap1\n  pop\n  jump\t// out\n    /* \"#utility.yul\":1652:1874   */\ntag_43:\n  0x00\n    /* \"#utility.yul\":1783:1785   */\n  0x20\n    /* \"#utility.yul\":1772:1781   */\n  dup3\n    /* \"#utility.yul\":1768:1786   */\n  add\n    /* \"#utility.yul\":1760:1786   */\n  swap1\n  pop\n    /* \"#utility.yul\":1796:1867   */\n  tag_77\n    /* \"#utility.yul\":1864:1865   */\n  0x00\n    /* \"#utility.yul\":1853:1862   */\n  dup4\n    /* \"#utility.yul\":1849:1866   */\n  add\n    /* \"#utility.yul\":1840:1846   */\n  dup5\n    /* \"#utility.yul\":1796:1867   */\n  tag_68\n  jump\t// in\ntag_77:\n    /* \"#utility.yul\":1750:1874   */\n  swap3\n  swap2\n  pop\n  pop\n  jump\t// out\n    /* \"#utility.yul\":1880:2049   */\ntag_64:\n  0x00\n    /* \"#utility.yul\":1998:2004   */\n  dup3\n    /* \"#utility.yul\":1993:1996   */\n  dup3\n    /* \"#utility.yul\":1986:2005   */\n  mstore\n    /* \"#utility.yul\":2038:2042   */\n  0x20\n    /* \"#utility.yul\":2033:2036   */\n  dup3\n    /* \"#utility.yul\":2029:2043   */\n  add\n    /* \"#utility.yul\":2014:2043   */\n  swap1\n  pop\n    /* \"#utility.yul\":1976:2049   */\n  swap3\n  swap2\n  pop\n  pop\n  jump\t// out\n    /* \"#utility.yul\":2055:2360   */\ntag_41:\n  0x00\n    /* \"#utility.yul\":2114:2134   */\n  tag_80\n    /* \"#utility.yul\":2132:2133   */\n  dup3\n    /* \"#utility.yul\":2114:2134   */\n  tag_71\n  jump\t// in\ntag_80:\n    /* \"#utility.yul\":2109:2134   */\n  swap2\n  pop\n    /* \"#utility.yul\":2148:2168   */\n  tag_81\n    /* \"#utility.yul\":2166:2167   */\n  dup4\n    /* \"#utility.yul\":2148:2168   */\n  tag_71\n  jump\t// in\ntag_81:\n    /* \"#utility.yul\":2143:2168   */\n  swap3\n  pop\n    /* \"#utility.yul\":2302:2303   */\n  dup3\n    /* \"#utility.yul\":2234:2300   */\n  0xffffffffffffffffffffffffffffffffffffffffffffffffffffffffffffffff\n    /* \"#utility.yul\":2230:2304   */\n  sub\n    /* \"#utility.yul\":2227:2228   */\n  dup3\n    /* \"#utility.yul\":2224:2305   */\n  gt\n    /* \"#utility.yul\":2221:2223   */\n  iszero\n  tag_82\n  jumpi\n    /* \"#utility.yul\":2308:2326   */\n  tag_83\n  tag_84\n  jump\t// in\ntag_83:\n    /* \"#utility.yul\":2221:2223   */\ntag_82:\n    /* \"#utility.yul\":2352:2353   */\n  dup3\n    /* \"#utility.yul\":2349:2350   */\n  dup3\n    /* \"#utility.yul\":2345:2354   */\n  add\n    /* \"#utility.yul\":2338:2354   */\n  swap1\n  pop\n    /* \"#utility.yul\":2099:2360   */\n  swap3\n  swap2\n  pop\n  pop\n  jump\t// out\n    /* \"#utility.yul\":2366:2443   */\ntag_71:\n  0x00\n    /* \"#utility.yul\":2432:2437   */\n  dup2\n    /* \"#utility.yul\":2421:2437   */\n  swap1\n  pop\n    /* \"#utility.yul\":2411:2443   */\n  swap2\n  swap1\n  pop\n  jump\t// out\n    /* \"#utility.yul\":2449:2769   */\ntag_50:\n  0x00\n    /* \"#utility.yul\":2530:2531   */\n  0x02\n    /* \"#utility.yul\":2524:2528   */\n  dup3\n    /* \"#utility.yul\":2520:2532   */\n  div\n    /* \"#utility.yul\":2510:2532   */\n  swap1\n  pop\n    /* \"#utility.yul\":2577:2578   */\n  0x01\n    /* \"#utility.yul\":2571:2575   */\n  dup3\n    /* \"#utility.yul\":2567:2579   */\n  and\n    /* \"#utility.yul\":2598:2616   */\n  dup1\n    /* \"#utility.yul\":2588:2590   */\n  tag_87\n  jumpi\n    /* \"#utility.yul\":2654:2658   */\n  0x7f\n    /* \"#utility.yul\":2646:2652   */\n  dup3\n    /* \"#utility.yul\":2642:2659   */\n  and\n    /* \"#utility.yul\":2632:2659   */\n  swap2\n  pop\n    /* \"#utility.yul\":2588:2590   */\ntag_87:\n    /* \"#utility.yul\":2716:2718   */\n  0x20\n    /* \"#utility.yul\":2708:2714   */\n  dup3\n    /* \"#utility.yul\":2705:2719   */\n  lt\n    /* \"#utility.yul\":2685:2703   */\n  dup2\n    /* \"#utility.yul\":2682:2720   */\n  eq\n    /* \"#utility.yul\":2679:2681   */\n  iszero\n  tag_88\n  jumpi\n    /* \"#utility.yul\":2735:2753   */\n  tag_89\n  tag_90\n  jump\t// in\ntag_89:\n    /* \"#utility.yul\":2679:2681   */\ntag_88:\n    /* \"#utility.yul\":2500:2769   */\n  pop\n  swap2\n  swap1\n  pop\n  jump\t// out\n    /* \"#utility.yul\":2775:2955   */\ntag_84:\n    /* \"#utility.yul\":2823:2900   */\n  0x4e487b7100000000000000000000000000000000000000000000000000000000\n    /* \"#utility.yul\":2820:2821   */\n  0x00\n    /* \"#utility.yul\":2813:2901   */\n  mstore\n    /* \"#utility.yul\":2920:2924   */\n  0x11\n    /* \"#utility.yul\":2917:2918   */\n  0x04\n    /* \"#utility.yul\":2910:2925   */\n  mstore\n    /* \"#utility.yul\":2944:2948   */\n  0x24\n    /* \"#utility.yul\":2941:2942   */\n  0x00\n    /* \"#utility.yul\":2934:2949   */\n  revert\n    /* \"#utility.yul\":2961:3141   */\ntag_90:\n    /* \"#utility.yul\":3009:3086   */\n  0x4e487b7100000000000000000000000000000000000000000000000000000000\n    /* \"#utility.yul\":3006:3007   */\n  0x00\n    /* \"#utility.yul\":2999:3087   */\n  mstore\n    /* \"#utility.yul\":3106:3110   */\n  0x22\n    /* \"#utility.yul\":3103:3104   */\n  0x04\n    /* \"#utility.yul\":3096:3111   */\n  mstore\n    /* \"#utility.yul\":3130:3134   */\n  0x24\n    /* \"#utility.yul\":3127:3128   */\n  0x00\n    /* \"#utility.yul\":3120:3135   */\n  revert\n    /* \"contracts/MyToken.sol\":169:3134  contract Yebelo is ERC20, Ownable {... */\ntag_18:\n  dataSize(sub_0)\n  dup1\n  dataOffset(sub_0)\n  0x00\n  codecopy\n  0x00\n  return\nstop\n\nsub_0: assembly {\n        /* \"contracts/MyToken.sol\":169:3134  contract Yebelo is ERC20, Ownable {... */\n      mstore(0x40, 0x80)\n      jumpi(tag_1, lt(calldatasize, 0x04))\n      shr(0xe0, calldataload(0x00))\n      dup1\n      0x83786f8c\n      gt\n      tag_23\n      jumpi\n      dup1\n      0xa9059cbb\n      gt\n      tag_24\n      jumpi\n      dup1\n      0xa9059cbb\n      eq\n      tag_17\n      jumpi\n      dup1\n      0xae14bcbe\n      eq\n      tag_18\n      jumpi\n      dup1\n      0xdd62ed3e\n      eq\n      tag_19\n      jumpi\n      dup1\n      0xeef49ee3\n      eq\n      tag_20\n      jumpi\n      dup1\n      0xf01e2359\n      eq\n      tag_21\n      jumpi\n      dup1\n      0xf2fde38b\n      eq\n      tag_22\n      jumpi\n      jump(tag_1)\n    tag_24:\n      dup1\n      0x83786f8c\n      eq\n      tag_12\n      jumpi\n      dup1\n      0x8da5cb5b\n      eq\n      tag_13\n      jumpi\n      dup1\n      0x958fb03d\n      eq\n      tag_14\n      jumpi\n      dup1\n      0x95d89b41\n      eq\n      tag_15\n      jumpi\n      dup1\n      0xa457c2d7\n      eq\n      tag_16\n      jumpi\n      jump(tag_1)\n    tag_23:\n      dup1\n      0x39509351\n      gt\n      tag_25\n      jumpi\n      dup1\n      0x39509351\n      eq\n      tag_7\n      jumpi\n      dup1\n      0x40c10f19\n      eq\n      tag_8\n      jumpi\n      dup1\n      0x70a08231\n      eq\n      tag_9\n      jumpi\n      dup1\n      0x715018a6\n      eq\n      tag_10\n      jumpi\n      dup1\n      0x80cecea9\n      eq\n      tag_11\n      jumpi\n      jump(tag_1)\n    tag_25:\n      dup1\n      0x06fdde03\n      eq\n      tag_2\n      jumpi\n      dup1\n      0x095ea7b3\n      eq\n      tag_3\n      jumpi\n      dup1\n      0x18160ddd\n      eq\n      tag_4\n      jumpi\n      dup1\n      0x23b872dd\n      eq\n      tag_5\n      jumpi\n      dup1\n      0x313ce567\n      eq\n      tag_6\n      jumpi\n    tag_1:\n      0x00\n      dup1\n      revert\n        /* \"@openzeppelin/contracts/token/ERC20/ERC20.sol\":2154:2252  function name() public view virtual override returns (string memory) {... */\n    tag_2:\n      callvalue\n      dup1\n      iszero\n      tag_26\n      jumpi\n      0x00\n      dup1\n      revert\n    tag_26:\n      pop\n      tag_27\n      tag_28\n      jump\t// in\n    tag_27:\n      mload(0x40)\n      tag_29\n      swap2\n      swap1\n      tag_30\n      jump\t// in\n    tag_29:\n      mload(0x40)\n      dup1\n      swap2\n      sub\n      swap1\n      return\n        /* \"@openzeppelin/contracts/token/ERC20/ERC20.sol\":4431:4628  function approve(address spender, uint256 amount) public virtual override returns (bool) {... */\n    tag_3:\n      callvalue\n      dup1\n      iszero\n      tag_31\n      jumpi\n      0x00\n      dup1\n      revert\n    tag_31:\n      pop\n      tag_32\n      0x04\n      dup1\n      calldatasize\n      sub\n      dup2\n      add\n      swap1\n      tag_33\n      swap2\n      swap1\n      tag_34\n      jump\t// in\n    tag_33:\n      tag_35\n      jump\t// in\n    tag_32:\n      mload(0x40)\n      tag_36\n      swap2\n      swap1\n      tag_37\n      jump\t// in\n    tag_36:\n      mload(0x40)\n      dup1\n      swap2\n      sub\n      swap1\n      return\n        /* \"@openzeppelin/contracts/token/ERC20/ERC20.sol\":3242:3348  function totalSupply() public view virtual override returns (uint256) {... */\n    tag_4:\n      callvalue\n      dup1\n      iszero\n      tag_38\n      jumpi\n      0x00\n      dup1\n      revert\n    tag_38:\n      pop\n      tag_39\n      tag_40\n      jump\t// in\n    tag_39:\n      mload(0x40)\n      tag_41\n      swap2\n      swap1\n      tag_42\n      jump\t// in\n    tag_41:\n      mload(0x40)\n      dup1\n      swap2\n      sub\n      swap1\n      return\n        /* \"@openzeppelin/contracts/token/ERC20/ERC20.sol\":5190:5476  function transferFrom(... */\n    tag_5:\n      callvalue\n      dup1\n      iszero\n      tag_43\n      jumpi\n      0x00\n      dup1\n      revert\n    tag_43:\n      pop\n      tag_44\n      0x04\n      dup1\n      calldatasize\n      sub\n      dup2\n      add\n      swap1\n      tag_45\n      swap2\n      swap1\n      tag_46\n      jump\t// in\n    tag_45:\n      tag_47\n      jump\t// in\n    tag_44:\n      mload(0x40)\n      tag_48\n      swap2\n      swap1\n      tag_37\n      jump\t// in\n    tag_48:\n      mload(0x40)\n      dup1\n      swap2\n      sub\n      swap1\n      return\n        /* \"@openzeppelin/contracts/token/ERC20/ERC20.sol\":3091:3182  function decimals() public view virtual override returns (uint8) {... */\n    tag_6:\n      callvalue\n      dup1\n      iszero\n      tag_49\n      jumpi\n      0x00\n      dup1\n      revert\n    tag_49:\n      pop\n      tag_50\n      tag_51\n      jump\t// in\n    tag_50:\n      mload(0x40)\n      tag_52\n      swap2\n      swap1\n      tag_53\n      jump\t// in\n    tag_52:\n      mload(0x40)\n      dup1\n      swap2\n      sub\n      swap1\n      return\n        /* \"@openzeppelin/contracts/token/ERC20/ERC20.sol\":5871:6105  function increaseAllowance(address spender, uint256 addedValue) public virtual returns (bool) {... */\n    tag_7:\n      callvalue\n      dup1\n      iszero\n      tag_54\n      jumpi\n      0x00\n      dup1\n      revert\n    tag_54:\n      pop\n      tag_55\n      0x04\n      dup1\n      calldatasize\n      sub\n      dup2\n      add\n      swap1\n      tag_56\n      swap2\n      swap1\n      tag_34\n      jump\t// in\n    tag_56:\n      tag_57\n      jump\t// in\n    tag_55:\n      mload(0x40)\n      tag_58\n      swap2\n      swap1\n      tag_37\n      jump\t// in\n    tag_58:\n      mload(0x40)\n      dup1\n      swap2\n      sub\n      swap1\n      return\n        /* \"contracts/MyToken.sol\":1373:1466  function mint(address to, uint256 amount) public onlyOwner {... */\n    tag_8:\n      callvalue\n      dup1\n      iszero\n      tag_59\n      jumpi\n      0x00\n      dup1\n      revert\n    tag_59:\n      pop\n      tag_60\n      0x04\n      dup1\n      calldatasize\n      sub\n      dup2\n      add\n      swap1\n      tag_61\n      swap2\n      swap1\n      tag_34\n      jump\t// in\n    tag_61:\n      tag_62\n      jump\t// in\n    tag_60:\n      stop\n        /* \"@openzeppelin/contracts/token/ERC20/ERC20.sol\":3406:3531  function balanceOf(address account) public view virtual override returns (uint256) {... */\n    tag_9:\n      callvalue\n      dup1\n      iszero\n      tag_63\n      jumpi\n      0x00\n      dup1\n      revert\n    tag_63:\n      pop\n      tag_64\n      0x04\n      dup1\n      calldatasize\n      sub\n      dup2\n      add\n      swap1\n      tag_65\n      swap2\n      swap1\n      tag_66\n      jump\t// in\n    tag_65:\n      tag_67\n      jump\t// in\n    tag_64:\n      mload(0x40)\n      tag_68\n      swap2\n      swap1\n      tag_42\n      jump\t// in\n    tag_68:\n      mload(0x40)\n      dup1\n      swap2\n      sub\n      swap1\n      return\n        /* \"@openzeppelin/contracts/access/Ownable.sol\":1831:1932  function renounceOwnership() public virtual onlyOwner {... */\n    tag_10:\n      callvalue\n      dup1\n      iszero\n      tag_69\n      jumpi\n      0x00\n      dup1\n      revert\n    tag_69:\n      pop\n      tag_70\n      tag_71\n      jump\t// in\n    tag_70:\n      stop\n        /* \"contracts/MyToken.sol\":1897:2189  function transferToContract(address _to,uint _amount)public payable {... */\n    tag_11:\n      tag_72\n      0x04\n      dup1\n      calldatasize\n      sub\n      dup2\n      add\n      swap1\n      tag_73\n      swap2\n      swap1\n      tag_34\n      jump\t// in\n    tag_73:\n      tag_74\n      jump\t// in\n    tag_72:\n      stop\n        /* \"contracts/MyToken.sol\":2262:2407  function getBalanceOfToken(address _address) public view returns (uint) {... */\n    tag_12:\n      callvalue\n      dup1\n      iszero\n      tag_75\n      jumpi\n      0x00\n      dup1\n      revert\n    tag_75:\n      pop\n      tag_76\n      0x04\n      dup1\n      calldatasize\n      sub\n      dup2\n      add\n      swap1\n      tag_77\n      swap2\n      swap1\n      tag_66\n      jump\t// in\n    tag_77:\n      tag_78\n      jump\t// in\n    tag_76:\n      mload(0x40)\n      tag_79\n      swap2\n      swap1\n      tag_42\n      jump\t// in\n    tag_79:\n      mload(0x40)\n      dup1\n      swap2\n      sub\n      swap1\n      return\n        /* \"@openzeppelin/contracts/access/Ownable.sol\":1201:1286  function owner() public view virtual returns (address) {... */\n    tag_13:\n      callvalue\n      dup1\n      iszero\n      tag_80\n      jumpi\n      0x00\n      dup1\n      revert\n    tag_80:\n      pop\n      tag_81\n      tag_82\n      jump\t// in\n    tag_81:\n      mload(0x40)\n      tag_83\n      swap2\n      swap1\n      tag_84\n      jump\t// in\n    tag_83:\n      mload(0x40)\n      dup1\n      swap2\n      sub\n      swap1\n      return\n        /* \"contracts/MyToken.sol\":1529:1814  function returnSlab(address _checker)public view returns (uint){... */\n    tag_14:\n      callvalue\n      dup1\n      iszero\n      tag_85\n      jumpi\n      0x00\n      dup1\n      revert\n    tag_85:\n      pop\n      tag_86\n      0x04\n      dup1\n      calldatasize\n      sub\n      dup2\n      add\n      swap1\n      tag_87\n      swap2\n      swap1\n      tag_66\n      jump\t// in\n    tag_87:\n      tag_88\n      jump\t// in\n    tag_86:\n      mload(0x40)\n      tag_89\n      swap2\n      swap1\n      tag_42\n      jump\t// in\n    tag_89:\n      mload(0x40)\n      dup1\n      swap2\n      sub\n      swap1\n      return\n        /* \"@openzeppelin/contracts/token/ERC20/ERC20.sol\":2365:2467  function symbol() public view virtual override returns (string memory) {... */\n    tag_15:\n      callvalue\n      dup1\n      iszero\n      tag_90\n      jumpi\n      0x00\n      dup1\n      revert\n    tag_90:\n      pop\n      tag_91\n      tag_92\n      jump\t// in\n    tag_91:\n      mload(0x40)\n      tag_93\n      swap2\n      swap1\n      tag_30\n      jump\t// in\n    tag_93:\n      mload(0x40)\n      dup1\n      swap2\n      sub\n      swap1\n      return\n        /* \"@openzeppelin/contracts/token/ERC20/ERC20.sol\":6592:7019  function decreaseAllowance(address spender, uint256 subtractedValue) public virtual returns (bool) {... */\n    tag_16:\n      callvalue\n      dup1\n      iszero\n      tag_94\n      jumpi\n      0x00\n      dup1\n      revert\n    tag_94:\n      pop\n      tag_95\n      0x04\n      dup1\n      calldatasize\n      sub\n      dup2\n      add\n      swap1\n      tag_96\n      swap2\n      swap1\n      tag_34\n      jump\t// in\n    tag_96:\n      tag_97\n      jump\t// in\n    tag_95:\n      mload(0x40)\n      tag_98\n      swap2\n      swap1\n      tag_37\n      jump\t// in\n    tag_98:\n      mload(0x40)\n      dup1\n      swap2\n      sub\n      swap1\n      return\n        /* \"@openzeppelin/contracts/token/ERC20/ERC20.sol\":3727:3916  function transfer(address to, uint256 amount) public virtual override returns (bool) {... */\n    tag_17:\n      callvalue\n      dup1\n      iszero\n      tag_99\n      jumpi\n      0x00\n      dup1\n      revert\n    tag_99:\n      pop\n      tag_100\n      0x04\n      dup1\n      calldatasize\n      sub\n      dup2\n      add\n      swap1\n      tag_101\n      swap2\n      swap1\n      tag_34\n      jump\t// in\n    tag_101:\n      tag_102\n      jump\t// in\n    tag_100:\n      mload(0x40)\n      tag_103\n      swap2\n      swap1\n      tag_37\n      jump\t// in\n    tag_103:\n      mload(0x40)\n      dup1\n      swap2\n      sub\n      swap1\n      return\n        /* \"contracts/MyToken.sol\":2413:3132  function assignSlab()public  {... */\n    tag_18:\n      callvalue\n      dup1\n      iszero\n      tag_104\n      jumpi\n      0x00\n      dup1\n      revert\n    tag_104:\n      pop\n      tag_105\n      tag_106\n      jump\t// in\n    tag_105:\n      stop\n        /* \"@openzeppelin/contracts/token/ERC20/ERC20.sol\":3974:4123  function allowance(address owner, address spender) public view virtual override returns (uint256) {... */\n    tag_19:\n      callvalue\n      dup1\n      iszero\n      tag_107\n      jumpi\n      0x00\n      dup1\n      revert\n    tag_107:\n      pop\n      tag_108\n      0x04\n      dup1\n      calldatasize\n      sub\n      dup2\n      add\n      swap1\n      tag_109\n      swap2\n      swap1\n      tag_110\n      jump\t// in\n    tag_109:\n      tag_111\n      jump\t// in\n    tag_108:\n      mload(0x40)\n      tag_112\n      swap2\n      swap1\n      tag_42\n      jump\t// in\n    tag_112:\n      mload(0x40)\n      dup1\n      swap2\n      sub\n      swap1\n      return\n        /* \"contracts/MyToken.sol\":660:683  uint public deposited=0 */\n    tag_20:\n      callvalue\n      dup1\n      iszero\n      tag_113\n      jumpi\n      0x00\n      dup1\n      revert\n    tag_113:\n      pop\n      tag_114\n      tag_115\n      jump\t// in\n    tag_114:\n      mload(0x40)\n      tag_116\n      swap2\n      swap1\n      tag_42\n      jump\t// in\n    tag_116:\n      mload(0x40)\n      dup1\n      swap2\n      sub\n      swap1\n      return\n        /* \"contracts/MyToken.sol\":987:1028  mapping(address=>Stack)public slabDetails */\n    tag_21:\n      callvalue\n      dup1\n      iszero\n      tag_117\n      jumpi\n      0x00\n      dup1\n      revert\n    tag_117:\n      pop\n      tag_118\n      0x04\n      dup1\n      calldatasize\n      sub\n      dup2\n      add\n      swap1\n      tag_119\n      swap2\n      swap1\n      tag_66\n      jump\t// in\n    tag_119:\n      tag_120\n      jump\t// in\n    tag_118:\n      mload(0x40)\n      tag_121\n      swap4\n      swap3\n      swap2\n      swap1\n      tag_122\n      jump\t// in\n    tag_121:\n      mload(0x40)\n      dup1\n      swap2\n      sub\n      swap1\n      return\n        /* \"@openzeppelin/contracts/access/Ownable.sol\":2081:2279  function transferOwnership(address newOwner) public virtual onlyOwner {... */\n    tag_22:\n      callvalue\n      dup1\n      iszero\n      tag_123\n      jumpi\n      0x00\n      dup1\n      revert\n    tag_123:\n      pop\n      tag_124\n      0x04\n      dup1\n      calldatasize\n      sub\n      dup2\n      add\n      swap1\n      tag_125\n      swap2\n      swap1\n      tag_66\n      jump\t// in\n    tag_125:\n      tag_126\n      jump\t// in\n    tag_124:\n      stop\n        /* \"@openzeppelin/contracts/token/ERC20/ERC20.sol\":2154:2252  function name() public view virtual override returns (string memory) {... */\n    tag_28:\n        /* \"@openzeppelin/contracts/token/ERC20/ERC20.sol\":2208:2221  string memory */\n      0x60\n        /* \"@openzeppelin/contracts/token/ERC20/ERC20.sol\":2240:2245  _name */\n      0x03\n        /* \"@openzeppelin/contracts/token/ERC20/ERC20.sol\":2233:2245  return _name */\n      dup1\n      sload\n      tag_128\n      swap1\n      tag_129\n      jump\t// in\n    tag_128:\n      dup1\n      0x1f\n      add\n      0x20\n      dup1\n      swap2\n      div\n      mul\n      0x20\n      add\n      mload(0x40)\n      swap1\n      dup2\n      add\n      0x40\n      mstore\n      dup1\n      swap3\n      swap2\n      swap1\n      dup2\n      dup2\n      mstore\n      0x20\n      add\n      dup3\n      dup1\n      sload\n      tag_130\n      swap1\n      tag_129\n      jump\t// in\n    tag_130:\n      dup1\n      iszero\n      tag_131\n      jumpi\n      dup1\n      0x1f\n      lt\n      tag_132\n      jumpi\n      0x0100\n      dup1\n      dup4\n      sload\n      div\n      mul\n      dup4\n      mstore\n      swap2\n      0x20\n      add\n      swap2\n      jump(tag_131)\n    tag_132:\n      dup3\n      add\n      swap2\n      swap1\n      0x00\n      mstore\n      keccak256(0x00, 0x20)\n      swap1\n    tag_133:\n      dup2\n      sload\n      dup2\n      mstore\n      swap1\n      0x01\n      add\n      swap1\n      0x20\n      add\n      dup1\n      dup4\n      gt\n      tag_133\n      jumpi\n      dup3\n      swap1\n      sub\n      0x1f\n      and\n      dup3\n      add\n      swap2\n    tag_131:\n      pop\n      pop\n      pop\n      pop\n      pop\n      swap1\n      pop\n        /* \"@openzeppelin/contracts/token/ERC20/ERC20.sol\":2154:2252  function name() public view virtual override returns (string memory) {... */\n      swap1\n      jump\t// out\n        /* \"@openzeppelin/contracts/token/ERC20/ERC20.sol\":4431:4628  function approve(address spender, uint256 amount) public virtual override returns (bool) {... */\n    tag_35:\n        /* \"@openzeppelin/contracts/token/ERC20/ERC20.sol\":4514:4518  bool */\n      0x00\n        /* \"@openzeppelin/contracts/token/ERC20/ERC20.sol\":4530:4543  address owner */\n      dup1\n        /* \"@openzeppelin/contracts/token/ERC20/ERC20.sol\":4546:4558  _msgSender() */\n      tag_135\n        /* \"@openzeppelin/contracts/token/ERC20/ERC20.sol\":4546:4556  _msgSender */\n      tag_136\n        /* \"@openzeppelin/contracts/token/ERC20/ERC20.sol\":4546:4558  _msgSender() */\n      jump\t// in\n    tag_135:\n        /* \"@openzeppelin/contracts/token/ERC20/ERC20.sol\":4530:4558  address owner = _msgSender() */\n      swap1\n      pop\n        /* \"@openzeppelin/contracts/token/ERC20/ERC20.sol\":4568:4600  _approve(owner, spender, amount) */\n      tag_137\n        /* \"@openzeppelin/contracts/token/ERC20/ERC20.sol\":4577:4582  owner */\n      dup2\n        /* \"@openzeppelin/contracts/token/ERC20/ERC20.sol\":4584:4591  spender */\n      dup6\n        /* \"@openzeppelin/contracts/token/ERC20/ERC20.sol\":4593:4599  amount */\n      dup6\n        /* \"@openzeppelin/contracts/token/ERC20/ERC20.sol\":4568:4576  _approve */\n      tag_138\n        /* \"@openzeppelin/contracts/token/ERC20/ERC20.sol\":4568:4600  _approve(owner, spender, amount) */\n      jump\t// in\n    tag_137:\n        /* \"@openzeppelin/contracts/token/ERC20/ERC20.sol\":4617:4621  true */\n      0x01\n        /* \"@openzeppelin/contracts/token/ERC20/ERC20.sol\":4610:4621  return true */\n      swap2\n      pop\n      pop\n        /* \"@openzeppelin/contracts/token/ERC20/ERC20.sol\":4431:4628  function approve(address spender, uint256 amount) public virtual override returns (bool) {... */\n      swap3\n      swap2\n      pop\n      pop\n      jump\t// out\n        /* \"@openzeppelin/contracts/token/ERC20/ERC20.sol\":3242:3348  function totalSupply() public view virtual override returns (uint256) {... */\n    tag_40:\n        /* \"@openzeppelin/contracts/token/ERC20/ERC20.sol\":3303:3310  uint256 */\n      0x00\n        /* \"@openzeppelin/contracts/token/ERC20/ERC20.sol\":3329:3341  _totalSupply */\n      sload(0x02)\n        /* \"@openzeppelin/contracts/token/ERC20/ERC20.sol\":3322:3341  return _totalSupply */\n      swap1\n      pop\n        /* \"@openzeppelin/contracts/token/ERC20/ERC20.sol\":3242:3348  function totalSupply() public view virtual override returns (uint256) {... */\n      swap1\n      jump\t// out\n        /* \"@openzeppelin/contracts/token/ERC20/ERC20.sol\":5190:5476  function transferFrom(... */\n    tag_47:\n        /* \"@openzeppelin/contracts/token/ERC20/ERC20.sol\":5317:5321  bool */\n      0x00\n        /* \"@openzeppelin/contracts/token/ERC20/ERC20.sol\":5333:5348  address spender */\n      dup1\n        /* \"@openzeppelin/contracts/token/ERC20/ERC20.sol\":5351:5363  _msgSender() */\n      tag_141\n        /* \"@openzeppelin/contracts/token/ERC20/ERC20.sol\":5351:5361  _msgSender */\n      tag_136\n        /* \"@openzeppelin/contracts/token/ERC20/ERC20.sol\":5351:5363  _msgSender() */\n      jump\t// in\n    tag_141:\n        /* \"@openzeppelin/contracts/token/ERC20/ERC20.sol\":5333:5363  address spender = _msgSender() */\n      swap1\n      pop\n        /* \"@openzeppelin/contracts/token/ERC20/ERC20.sol\":5373:5411  _spendAllowance(from, spender, amount) */\n      tag_142\n        /* \"@openzeppelin/contracts/token/ERC20/ERC20.sol\":5389:5393  from */\n      dup6\n        /* \"@openzeppelin/contracts/token/ERC20/ERC20.sol\":5395:5402  spender */\n      dup3\n        /* \"@openzeppelin/contracts/token/ERC20/ERC20.sol\":5404:5410  amount */\n      dup6\n        /* \"@openzeppelin/contracts/token/ERC20/ERC20.sol\":5373:5388  _spendAllowance */\n      tag_143\n        /* \"@openzeppelin/contracts/token/ERC20/ERC20.sol\":5373:5411  _spendAllowance(from, spender, amount) */\n      jump\t// in\n    tag_142:\n        /* \"@openzeppelin/contracts/token/ERC20/ERC20.sol\":5421:5448  _transfer(from, to, amount) */\n      tag_144\n        /* \"@openzeppelin/contracts/token/ERC20/ERC20.sol\":5431:5435  from */\n      dup6\n        /* \"@openzeppelin/contracts/token/ERC20/ERC20.sol\":5437:5439  to */\n      dup6\n        /* \"@openzeppelin/contracts/token/ERC20/ERC20.sol\":5441:5447  amount */\n      dup6\n        /* \"@openzeppelin/contracts/token/ERC20/ERC20.sol\":5421:5430  _transfer */\n      tag_145\n        /* \"@openzeppelin/contracts/token/ERC20/ERC20.sol\":5421:5448  _transfer(from, to, amount) */\n      jump\t// in\n    tag_144:\n        /* \"@openzeppelin/contracts/token/ERC20/ERC20.sol\":5465:5469  true */\n      0x01\n        /* \"@openzeppelin/contracts/token/ERC20/ERC20.sol\":5458:5469  return true */\n      swap2\n      pop\n      pop\n        /* \"@openzeppelin/contracts/token/ERC20/ERC20.sol\":5190:5476  function transferFrom(... */\n      swap4\n      swap3\n      pop\n      pop\n      pop\n      jump\t// out\n        /* \"@openzeppelin/contracts/token/ERC20/ERC20.sol\":3091:3182  function decimals() public view virtual override returns (uint8) {... */\n    tag_51:\n        /* \"@openzeppelin/contracts/token/ERC20/ERC20.sol\":3149:3154  uint8 */\n      0x00\n        /* \"@openzeppelin/contracts/token/ERC20/ERC20.sol\":3173:3175  18 */\n      0x12\n        /* \"@openzeppelin/contracts/token/ERC20/ERC20.sol\":3166:3175  return 18 */\n      swap1\n      pop\n        /* \"@openzeppelin/contracts/token/ERC20/ERC20.sol\":3091:3182  function decimals() public view virtual override returns (uint8) {... */\n      swap1\n      jump\t// out\n        /* \"@openzeppelin/contracts/token/ERC20/ERC20.sol\":5871:6105  function increaseAllowance(address spender, uint256 addedValue) public virtual returns (bool) {... */\n    tag_57:\n        /* \"@openzeppelin/contracts/token/ERC20/ERC20.sol\":5959:5963  bool */\n      0x00\n        /* \"@openzeppelin/contracts/token/ERC20/ERC20.sol\":5975:5988  address owner */\n      dup1\n        /* \"@openzeppelin/contracts/token/ERC20/ERC20.sol\":5991:6003  _msgSender() */\n      tag_148\n        /* \"@openzeppelin/contracts/token/ERC20/ERC20.sol\":5991:6001  _msgSender */\n      tag_136\n        /* \"@openzeppelin/contracts/token/ERC20/ERC20.sol\":5991:6003  _msgSender() */\n      jump\t// in\n    tag_148:\n        /* \"@openzeppelin/contracts/token/ERC20/ERC20.sol\":5975:6003  address owner = _msgSender() */\n      swap1\n      pop\n        /* \"@openzeppelin/contracts/token/ERC20/ERC20.sol\":6013:6077  _approve(owner, spender, allowance(owner, spender) + addedValue) */\n      tag_149\n        /* \"@openzeppelin/contracts/token/ERC20/ERC20.sol\":6022:6027  owner */\n      dup2\n        /* \"@openzeppelin/contracts/token/ERC20/ERC20.sol\":6029:6036  spender */\n      dup6\n        /* \"@openzeppelin/contracts/token/ERC20/ERC20.sol\":6066:6076  addedValue */\n      dup6\n        /* \"@openzeppelin/contracts/token/ERC20/ERC20.sol\":6038:6063  allowance(owner, spender) */\n      tag_150\n        /* \"@openzeppelin/contracts/token/ERC20/ERC20.sol\":6048:6053  owner */\n      dup6\n        /* \"@openzeppelin/contracts/token/ERC20/ERC20.sol\":6055:6062  spender */\n      dup10\n        /* \"@openzeppelin/contracts/token/ERC20/ERC20.sol\":6038:6047  allowance */\n      tag_111\n        /* \"@openzeppelin/contracts/token/ERC20/ERC20.sol\":6038:6063  allowance(owner, spender) */\n      jump\t// in\n    tag_150:\n        /* \"@openzeppelin/contracts/token/ERC20/ERC20.sol\":6038:6076  allowance(owner, spender) + addedValue */\n      tag_151\n      swap2\n      swap1\n      tag_152\n      jump\t// in\n    tag_151:\n        /* \"@openzeppelin/contracts/token/ERC20/ERC20.sol\":6013:6021  _approve */\n      tag_138\n        /* \"@openzeppelin/contracts/token/ERC20/ERC20.sol\":6013:6077  _approve(owner, spender, allowance(owner, spender) + addedValue) */\n      jump\t// in\n    tag_149:\n        /* \"@openzeppelin/contracts/token/ERC20/ERC20.sol\":6094:6098  true */\n      0x01\n        /* \"@openzeppelin/contracts/token/ERC20/ERC20.sol\":6087:6098  return true */\n      swap2\n      pop\n      pop\n        /* \"@openzeppelin/contracts/token/ERC20/ERC20.sol\":5871:6105  function increaseAllowance(address spender, uint256 addedValue) public virtual returns (bool) {... */\n      swap3\n      swap2\n      pop\n      pop\n      jump\t// out\n        /* \"contracts/MyToken.sol\":1373:1466  function mint(address to, uint256 amount) public onlyOwner {... */\n    tag_62:\n        /* \"@openzeppelin/contracts/access/Ownable.sol\":1094:1107  _checkOwner() */\n      tag_154\n        /* \"@openzeppelin/contracts/access/Ownable.sol\":1094:1105  _checkOwner */\n      tag_155\n        /* \"@openzeppelin/contracts/access/Ownable.sol\":1094:1107  _checkOwner() */\n      jump\t// in\n    tag_154:\n        /* \"contracts/MyToken.sol\":1442:1459  _mint(to, amount) */\n      tag_157\n        /* \"contracts/MyToken.sol\":1448:1450  to */\n      dup3\n        /* \"contracts/MyToken.sol\":1452:1458  amount */\n      dup3\n        /* \"contracts/MyToken.sol\":1442:1447  _mint */\n      tag_158\n        /* \"contracts/MyToken.sol\":1442:1459  _mint(to, amount) */\n      jump\t// in\n    tag_157:\n        /* \"contracts/MyToken.sol\":1373:1466  function mint(address to, uint256 amount) public onlyOwner {... */\n      pop\n      pop\n      jump\t// out\n        /* \"@openzeppelin/contracts/token/ERC20/ERC20.sol\":3406:3531  function balanceOf(address account) public view virtual override returns (uint256) {... */\n    tag_67:\n        /* \"@openzeppelin/contracts/token/ERC20/ERC20.sol\":3480:3487  uint256 */\n      0x00\n        /* \"@openzeppelin/contracts/token/ERC20/ERC20.sol\":3506:3515  _balances */\n      dup1\n        /* \"@openzeppelin/contracts/token/ERC20/ERC20.sol\":3506:3524  _balances[account] */\n      0x00\n        /* \"@openzeppelin/contracts/token/ERC20/ERC20.sol\":3516:3523  account */\n      dup4\n        /* \"@openzeppelin/contracts/token/ERC20/ERC20.sol\":3506:3524  _balances[account] */\n      0xffffffffffffffffffffffffffffffffffffffff\n      and\n      0xffffffffffffffffffffffffffffffffffffffff\n      and\n      dup2\n      mstore\n      0x20\n      add\n      swap1\n      dup2\n      mstore\n      0x20\n      add\n      0x00\n      keccak256\n      sload\n        /* \"@openzeppelin/contracts/token/ERC20/ERC20.sol\":3499:3524  return _balances[account] */\n      swap1\n      pop\n        /* \"@openzeppelin/contracts/token/ERC20/ERC20.sol\":3406:3531  function balanceOf(address account) public view virtual override returns (uint256) {... */\n      swap2\n      swap1\n      pop\n      jump\t// out\n        /* \"@openzeppelin/contracts/access/Ownable.sol\":1831:1932  function renounceOwnership() public virtual onlyOwner {... */\n    tag_71:\n        /* \"@openzeppelin/contracts/access/Ownable.sol\":1094:1107  _checkOwner() */\n      tag_161\n        /* \"@openzeppelin/contracts/access/Ownable.sol\":1094:1105  _checkOwner */\n      tag_155\n        /* \"@openzeppelin/contracts/access/Ownable.sol\":1094:1107  _checkOwner() */\n      jump\t// in\n    tag_161:\n        /* \"@openzeppelin/contracts/access/Ownable.sol\":1895:1925  _transferOwnership(address(0)) */\n      tag_163\n        /* \"@openzeppelin/contracts/access/Ownable.sol\":1922:1923  0 */\n      0x00\n        /* \"@openzeppelin/contracts/access/Ownable.sol\":1895:1913  _transferOwnership */\n      tag_164\n        /* \"@openzeppelin/contracts/access/Ownable.sol\":1895:1925  _transferOwnership(address(0)) */\n      jump\t// in\n    tag_163:\n        /* \"@openzeppelin/contracts/access/Ownable.sol\":1831:1932  function renounceOwnership() public virtual onlyOwner {... */\n      jump\t// out\n        /* \"contracts/MyToken.sol\":1897:2189  function transferToContract(address _to,uint _amount)public payable {... */\n    tag_74:\n        /* \"contracts/MyToken.sol\":1984:2006  transfer(_to, _amount) */\n      tag_166\n        /* \"contracts/MyToken.sol\":1993:1996  _to */\n      dup3\n        /* \"contracts/MyToken.sol\":1998:2005  _amount */\n      dup3\n        /* \"contracts/MyToken.sol\":1984:1992  transfer */\n      tag_102\n        /* \"contracts/MyToken.sol\":1984:2006  transfer(_to, _amount) */\n      jump\t// in\n    tag_166:\n      pop\n        /* \"contracts/MyToken.sol\":2053:2057  true */\n      0x01\n        /* \"contracts/MyToken.sol\":2016:2027  slabDetails */\n      0x09\n        /* \"contracts/MyToken.sol\":2016:2039  slabDetails[msg.sender] */\n      0x00\n        /* \"contracts/MyToken.sol\":2028:2038  msg.sender */\n      caller\n        /* \"contracts/MyToken.sol\":2016:2039  slabDetails[msg.sender] */\n      0xffffffffffffffffffffffffffffffffffffffff\n      and\n      0xffffffffffffffffffffffffffffffffffffffff\n      and\n      dup2\n      mstore\n      0x20\n      add\n      swap1\n      dup2\n      mstore\n      0x20\n      add\n      0x00\n      keccak256\n        /* \"contracts/MyToken.sol\":2016:2052  slabDetails[msg.sender].hasDeposited */\n      0x00\n      add\n      0x00\n        /* \"contracts/MyToken.sol\":2016:2057  slabDetails[msg.sender].hasDeposited=true */\n      0x0100\n      exp\n      dup2\n      sload\n      dup2\n      0xff\n      mul\n      not\n      and\n      swap1\n      dup4\n      iszero\n      iszero\n      mul\n      or\n      swap1\n      sstore\n      pop\n        /* \"contracts/MyToken.sol\":2147:2154  _amount */\n      dup1\n        /* \"contracts/MyToken.sol\":2107:2118  slabDetails */\n      0x09\n        /* \"contracts/MyToken.sol\":2107:2130  slabDetails[msg.sender] */\n      0x00\n        /* \"contracts/MyToken.sol\":2119:2129  msg.sender */\n      caller\n        /* \"contracts/MyToken.sol\":2107:2130  slabDetails[msg.sender] */\n      0xffffffffffffffffffffffffffffffffffffffff\n      and\n      0xffffffffffffffffffffffffffffffffffffffff\n      and\n      dup2\n      mstore\n      0x20\n      add\n      swap1\n      dup2\n      mstore\n      0x20\n      add\n      0x00\n      keccak256\n        /* \"contracts/MyToken.sol\":2107:2146  slabDetails[msg.sender].depositedAmount */\n      0x01\n      add\n      sload\n        /* \"contracts/MyToken.sol\":2107:2154  slabDetails[msg.sender].depositedAmount+_amount */\n      tag_167\n      swap2\n      swap1\n      tag_152\n      jump\t// in\n    tag_167:\n        /* \"contracts/MyToken.sol\":2067:2078  slabDetails */\n      0x09\n        /* \"contracts/MyToken.sol\":2067:2090  slabDetails[msg.sender] */\n      0x00\n        /* \"contracts/MyToken.sol\":2079:2089  msg.sender */\n      caller\n        /* \"contracts/MyToken.sol\":2067:2090  slabDetails[msg.sender] */\n      0xffffffffffffffffffffffffffffffffffffffff\n      and\n      0xffffffffffffffffffffffffffffffffffffffff\n      and\n      dup2\n      mstore\n      0x20\n      add\n      swap1\n      dup2\n      mstore\n      0x20\n      add\n      0x00\n      keccak256\n        /* \"contracts/MyToken.sol\":2067:2106  slabDetails[msg.sender].depositedAmount */\n      0x01\n      add\n        /* \"contracts/MyToken.sol\":2067:2154  slabDetails[msg.sender].depositedAmount=slabDetails[msg.sender].depositedAmount+_amount */\n      dup2\n      swap1\n      sstore\n      pop\n        /* \"contracts/MyToken.sol\":2175:2182  _amount */\n      dup1\n        /* \"contracts/MyToken.sol\":2164:2173  deposited */\n      0x06\n      0x00\n        /* \"contracts/MyToken.sol\":2164:2182  deposited+=_amount */\n      dup3\n      dup3\n      sload\n      tag_168\n      swap2\n      swap1\n      tag_152\n      jump\t// in\n    tag_168:\n      swap3\n      pop\n      pop\n      dup2\n      swap1\n      sstore\n      pop\n        /* \"contracts/MyToken.sol\":1897:2189  function transferToContract(address _to,uint _amount)public payable {... */\n      pop\n      pop\n      jump\t// out\n        /* \"contracts/MyToken.sol\":2262:2407  function getBalanceOfToken(address _address) public view returns (uint) {... */\n    tag_78:\n        /* \"contracts/MyToken.sol\":2328:2332  uint */\n      0x00\n        /* \"contracts/MyToken.sol\":2366:2374  _address */\n      dup2\n        /* \"contracts/MyToken.sol\":2360:2385  ERC20(_address).balanceOf */\n      0xffffffffffffffffffffffffffffffffffffffff\n      and\n      0x70a08231\n        /* \"contracts/MyToken.sol\":2394:2398  this */\n      address\n        /* \"contracts/MyToken.sol\":2360:2400  ERC20(_address).balanceOf(address(this)) */\n      mload(0x40)\n      dup3\n      0xffffffff\n      and\n      0xe0\n      shl\n      dup2\n      mstore\n      0x04\n      add\n      tag_170\n      swap2\n      swap1\n      tag_84\n      jump\t// in\n    tag_170:\n      0x20\n      mload(0x40)\n      dup1\n      dup4\n      sub\n      dup2\n      dup7\n      dup1\n      extcodesize\n      iszero\n      dup1\n      iszero\n      tag_171\n      jumpi\n      0x00\n      dup1\n      revert\n    tag_171:\n      pop\n      gas\n      staticcall\n      iszero\n      dup1\n      iszero\n      tag_173\n      jumpi\n      returndatasize\n      0x00\n      dup1\n      returndatacopy\n      revert(0x00, returndatasize)\n    tag_173:\n      pop\n      pop\n      pop\n      pop\n      mload(0x40)\n      returndatasize\n      not(0x1f)\n      0x1f\n      dup3\n      add\n      and\n      dup3\n      add\n      dup1\n      0x40\n      mstore\n      pop\n      dup2\n      add\n      swap1\n      tag_174\n      swap2\n      swap1\n      tag_175\n      jump\t// in\n    tag_174:\n        /* \"contracts/MyToken.sol\":2353:2400  return ERC20(_address).balanceOf(address(this)) */\n      swap1\n      pop\n        /* \"contracts/MyToken.sol\":2262:2407  function getBalanceOfToken(address _address) public view returns (uint) {... */\n      swap2\n      swap1\n      pop\n      jump\t// out\n        /* \"@openzeppelin/contracts/access/Ownable.sol\":1201:1286  function owner() public view virtual returns (address) {... */\n    tag_82:\n        /* \"@openzeppelin/contracts/access/Ownable.sol\":1247:1254  address */\n      0x00\n        /* \"@openzeppelin/contracts/access/Ownable.sol\":1273:1279  _owner */\n      0x05\n      0x00\n      swap1\n      sload\n      swap1\n      0x0100\n      exp\n      swap1\n      div\n      0xffffffffffffffffffffffffffffffffffffffff\n      and\n        /* \"@openzeppelin/contracts/access/Ownable.sol\":1266:1279  return _owner */\n      swap1\n      pop\n        /* \"@openzeppelin/contracts/access/Ownable.sol\":1201:1286  function owner() public view virtual returns (address) {... */\n      swap1\n      jump\t// out\n        /* \"contracts/MyToken.sol\":1529:1814  function returnSlab(address _checker)public view returns (uint){... */\n    tag_88:\n        /* \"contracts/MyToken.sol\":1587:1591  uint */\n      0x00\n        /* \"contracts/MyToken.sol\":1610:1621  slabDetails */\n      0x09\n        /* \"contracts/MyToken.sol\":1610:1631  slabDetails[_checker] */\n      0x00\n        /* \"contracts/MyToken.sol\":1622:1630  _checker */\n      dup4\n        /* \"contracts/MyToken.sol\":1610:1631  slabDetails[_checker] */\n      0xffffffffffffffffffffffffffffffffffffffff\n      and\n      0xffffffffffffffffffffffffffffffffffffffff\n      and\n      dup2\n      mstore\n      0x20\n      add\n      swap1\n      dup2\n      mstore\n      0x20\n      add\n      0x00\n      keccak256\n        /* \"contracts/MyToken.sol\":1610:1644  slabDetails[_checker].hasDeposited */\n      0x00\n      add\n      0x00\n      swap1\n      sload\n      swap1\n      0x0100\n      exp\n      swap1\n      div\n      0xff\n      and\n        /* \"contracts/MyToken.sol\":1602:1688  require(slabDetails[_checker].hasDeposited,\"Deposit tokens before checking for slab.\") */\n      tag_178\n      jumpi\n      mload(0x40)\n      0x08c379a000000000000000000000000000000000000000000000000000000000\n      dup2\n      mstore\n      0x04\n      add\n      tag_179\n      swap1\n      tag_180\n      jump\t// in\n    tag_179:\n      mload(0x40)\n      dup1\n      swap2\n      sub\n      swap1\n      revert\n    tag_178:\n        /* \"contracts/MyToken.sol\":1781:1792  slabDetails */\n      0x09\n        /* \"contracts/MyToken.sol\":1781:1802  slabDetails[_checker] */\n      0x00\n        /* \"contracts/MyToken.sol\":1793:1801  _checker */\n      dup4\n        /* \"contracts/MyToken.sol\":1781:1802  slabDetails[_checker] */\n      0xffffffffffffffffffffffffffffffffffffffff\n      and\n      0xffffffffffffffffffffffffffffffffffffffff\n      and\n      dup2\n      mstore\n      0x20\n      add\n      swap1\n      dup2\n      mstore\n      0x20\n      add\n      0x00\n      keccak256\n        /* \"contracts/MyToken.sol\":1781:1807  slabDetails[_checker].slab */\n      0x02\n      add\n      sload\n        /* \"contracts/MyToken.sol\":1774:1807  return slabDetails[_checker].slab */\n      swap1\n      pop\n        /* \"contracts/MyToken.sol\":1529:1814  function returnSlab(address _checker)public view returns (uint){... */\n      swap2\n      swap1\n      pop\n      jump\t// out\n        /* \"@openzeppelin/contracts/token/ERC20/ERC20.sol\":2365:2467  function symbol() public view virtual override returns (string memory) {... */\n    tag_92:\n        /* \"@openzeppelin/contracts/token/ERC20/ERC20.sol\":2421:2434  string memory */\n      0x60\n        /* \"@openzeppelin/contracts/token/ERC20/ERC20.sol\":2453:2460  _symbol */\n      0x04\n        /* \"@openzeppelin/contracts/token/ERC20/ERC20.sol\":2446:2460  return _symbol */\n      dup1\n      sload\n      tag_182\n      swap1\n      tag_129\n      jump\t// in\n    tag_182:\n      dup1\n      0x1f\n      add\n      0x20\n      dup1\n      swap2\n      div\n      mul\n      0x20\n      add\n      mload(0x40)\n      swap1\n      dup2\n      add\n      0x40\n      mstore\n      dup1\n      swap3\n      swap2\n      swap1\n      dup2\n      dup2\n      mstore\n      0x20\n      add\n      dup3\n      dup1\n      sload\n      tag_183\n      swap1\n      tag_129\n      jump\t// in\n    tag_183:\n      dup1\n      iszero\n      tag_184\n      jumpi\n      dup1\n      0x1f\n      lt\n      tag_185\n      jumpi\n      0x0100\n      dup1\n      dup4\n      sload\n      div\n      mul\n      dup4\n      mstore\n      swap2\n      0x20\n      add\n      swap2\n      jump(tag_184)\n    tag_185:\n      dup3\n      add\n      swap2\n      swap1\n      0x00\n      mstore\n      keccak256(0x00, 0x20)\n      swap1\n    tag_186:\n      dup2\n      sload\n      dup2\n      mstore\n      swap1\n      0x01\n      add\n      swap1\n      0x20\n      add\n      dup1\n      dup4\n      gt\n      tag_186\n      jumpi\n      dup3\n      swap1\n      sub\n      0x1f\n      and\n      dup3\n      add\n      swap2\n    tag_184:\n      pop\n      pop\n      pop\n      pop\n      pop\n      swap1\n      pop\n        /* \"@openzeppelin/contracts/token/ERC20/ERC20.sol\":2365:2467  function symbol() public view virtual override returns (string memory) {... */\n      swap1\n      jump\t// out\n        /* \"@openzeppelin/contracts/token/ERC20/ERC20.sol\":6592:7019  function decreaseAllowance(address spender, uint256 subtractedValue) public virtual returns (bool) {... */\n    tag_97:\n        /* \"@openzeppelin/contracts/token/ERC20/ERC20.sol\":6685:6689  bool */\n      0x00\n        /* \"@openzeppelin/contracts/token/ERC20/ERC20.sol\":6701:6714  address owner */\n      dup1\n        /* \"@openzeppelin/contracts/token/ERC20/ERC20.sol\":6717:6729  _msgSender() */\n      tag_188\n        /* \"@openzeppelin/contracts/token/ERC20/ERC20.sol\":6717:6727  _msgSender */\n      tag_136\n        /* \"@openzeppelin/contracts/token/ERC20/ERC20.sol\":6717:6729  _msgSender() */\n      jump\t// in\n    tag_188:\n        /* \"@openzeppelin/contracts/token/ERC20/ERC20.sol\":6701:6729  address owner = _msgSender() */\n      swap1\n      pop\n        /* \"@openzeppelin/contracts/token/ERC20/ERC20.sol\":6739:6763  uint256 currentAllowance */\n      0x00\n        /* \"@openzeppelin/contracts/token/ERC20/ERC20.sol\":6766:6791  allowance(owner, spender) */\n      tag_189\n        /* \"@openzeppelin/contracts/token/ERC20/ERC20.sol\":6776:6781  owner */\n      dup3\n        /* \"@openzeppelin/contracts/token/ERC20/ERC20.sol\":6783:6790  spender */\n      dup7\n        /* \"@openzeppelin/contracts/token/ERC20/ERC20.sol\":6766:6775  allowance */\n      tag_111\n        /* \"@openzeppelin/contracts/token/ERC20/ERC20.sol\":6766:6791  allowance(owner, spender) */\n      jump\t// in\n    tag_189:\n        /* \"@openzeppelin/contracts/token/ERC20/ERC20.sol\":6739:6791  uint256 currentAllowance = allowance(owner, spender) */\n      swap1\n      pop\n        /* \"@openzeppelin/contracts/token/ERC20/ERC20.sol\":6829:6844  subtractedValue */\n      dup4\n        /* \"@openzeppelin/contracts/token/ERC20/ERC20.sol\":6809:6825  currentAllowance */\n      dup2\n        /* \"@openzeppelin/contracts/token/ERC20/ERC20.sol\":6809:6844  currentAllowance >= subtractedValue */\n      lt\n      iszero\n        /* \"@openzeppelin/contracts/token/ERC20/ERC20.sol\":6801:6886  require(currentAllowance >= subtractedValue, \"ERC20: decreased allowance below zero\") */\n      tag_190\n      jumpi\n      mload(0x40)\n      0x08c379a000000000000000000000000000000000000000000000000000000000\n      dup2\n      mstore\n      0x04\n      add\n      tag_191\n      swap1\n      tag_192\n      jump\t// in\n    tag_191:\n      mload(0x40)\n      dup1\n      swap2\n      sub\n      swap1\n      revert\n    tag_190:\n        /* \"@openzeppelin/contracts/token/ERC20/ERC20.sol\":6920:6980  _approve(owner, spender, currentAllowance - subtractedValue) */\n      tag_193\n        /* \"@openzeppelin/contracts/token/ERC20/ERC20.sol\":6929:6934  owner */\n      dup3\n        /* \"@openzeppelin/contracts/token/ERC20/ERC20.sol\":6936:6943  spender */\n      dup7\n        /* \"@openzeppelin/contracts/token/ERC20/ERC20.sol\":6964:6979  subtractedValue */\n      dup7\n        /* \"@openzeppelin/contracts/token/ERC20/ERC20.sol\":6945:6961  currentAllowance */\n      dup5\n        /* \"@openzeppelin/contracts/token/ERC20/ERC20.sol\":6945:6979  currentAllowance - subtractedValue */\n      sub\n        /* \"@openzeppelin/contracts/token/ERC20/ERC20.sol\":6920:6928  _approve */\n      tag_138\n        /* \"@openzeppelin/contracts/token/ERC20/ERC20.sol\":6920:6980  _approve(owner, spender, currentAllowance - subtractedValue) */\n      jump\t// in\n    tag_193:\n        /* \"@openzeppelin/contracts/token/ERC20/ERC20.sol\":7008:7012  true */\n      0x01\n        /* \"@openzeppelin/contracts/token/ERC20/ERC20.sol\":7001:7012  return true */\n      swap3\n      pop\n      pop\n      pop\n        /* \"@openzeppelin/contracts/token/ERC20/ERC20.sol\":6592:7019  function decreaseAllowance(address spender, uint256 subtractedValue) public virtual returns (bool) {... */\n      swap3\n      swap2\n      pop\n      pop\n      jump\t// out\n        /* \"@openzeppelin/contracts/token/ERC20/ERC20.sol\":3727:3916  function transfer(address to, uint256 amount) public virtual override returns (bool) {... */\n    tag_102:\n        /* \"@openzeppelin/contracts/token/ERC20/ERC20.sol\":3806:3810  bool */\n      0x00\n        /* \"@openzeppelin/contracts/token/ERC20/ERC20.sol\":3822:3835  address owner */\n      dup1\n        /* \"@openzeppelin/contracts/token/ERC20/ERC20.sol\":3838:3850  _msgSender() */\n      tag_195\n        /* \"@openzeppelin/contracts/token/ERC20/ERC20.sol\":3838:3848  _msgSender */\n      tag_136\n        /* \"@openzeppelin/contracts/token/ERC20/ERC20.sol\":3838:3850  _msgSender() */\n      jump\t// in\n    tag_195:\n        /* \"@openzeppelin/contracts/token/ERC20/ERC20.sol\":3822:3850  address owner = _msgSender() */\n      swap1\n      pop\n        /* \"@openzeppelin/contracts/token/ERC20/ERC20.sol\":3860:3888  _transfer(owner, to, amount) */\n      tag_196\n        /* \"@openzeppelin/contracts/token/ERC20/ERC20.sol\":3870:3875  owner */\n      dup2\n        /* \"@openzeppelin/contracts/token/ERC20/ERC20.sol\":3877:3879  to */\n      dup6\n        /* \"@openzeppelin/contracts/token/ERC20/ERC20.sol\":3881:3887  amount */\n      dup6\n        /* \"@openzeppelin/contracts/token/ERC20/ERC20.sol\":3860:3869  _transfer */\n      tag_145\n        /* \"@openzeppelin/contracts/token/ERC20/ERC20.sol\":3860:3888  _transfer(owner, to, amount) */\n      jump\t// in\n    tag_196:\n        /* \"@openzeppelin/contracts/token/ERC20/ERC20.sol\":3905:3909  true */\n      0x01\n        /* \"@openzeppelin/contracts/token/ERC20/ERC20.sol\":3898:3909  return true */\n      swap2\n      pop\n      pop\n        /* \"@openzeppelin/contracts/token/ERC20/ERC20.sol\":3727:3916  function transfer(address to, uint256 amount) public virtual override returns (bool) {... */\n      swap3\n      swap2\n      pop\n      pop\n      jump\t// out\n        /* \"contracts/MyToken.sol\":2413:3132  function assignSlab()public  {... */\n    tag_106:\n        /* \"contracts/MyToken.sol\":2452:2472  uint amountDeposited */\n      0x00\n        /* \"contracts/MyToken.sol\":2473:2484  slabDetails */\n      0x09\n        /* \"contracts/MyToken.sol\":2473:2496  slabDetails[msg.sender] */\n      0x00\n        /* \"contracts/MyToken.sol\":2485:2495  msg.sender */\n      caller\n        /* \"contracts/MyToken.sol\":2473:2496  slabDetails[msg.sender] */\n      0xffffffffffffffffffffffffffffffffffffffff\n      and\n      0xffffffffffffffffffffffffffffffffffffffff\n      and\n      dup2\n      mstore\n      0x20\n      add\n      swap1\n      dup2\n      mstore\n      0x20\n      add\n      0x00\n      keccak256\n        /* \"contracts/MyToken.sol\":2473:2512  slabDetails[msg.sender].depositedAmount */\n      0x01\n      add\n      sload\n        /* \"contracts/MyToken.sol\":2452:2512  uint amountDeposited=slabDetails[msg.sender].depositedAmount */\n      swap1\n      pop\n        /* \"contracts/MyToken.sol\":2543:2546  100 */\n      0x64\n        /* \"contracts/MyToken.sol\":2526:2541  amountDeposited */\n      dup2\n        /* \"contracts/MyToken.sol\":2526:2546  amountDeposited<=100 */\n      gt\n        /* \"contracts/MyToken.sol\":2522:3087  if (amountDeposited<=100 ){... */\n      tag_198\n      jumpi\n        /* \"contracts/MyToken.sol\":2591:2592  4 */\n      0x04\n        /* \"contracts/MyToken.sol\":2562:2573  slabDetails */\n      0x09\n        /* \"contracts/MyToken.sol\":2562:2585  slabDetails[msg.sender] */\n      0x00\n        /* \"contracts/MyToken.sol\":2574:2584  msg.sender */\n      caller\n        /* \"contracts/MyToken.sol\":2562:2585  slabDetails[msg.sender] */\n      0xffffffffffffffffffffffffffffffffffffffff\n      and\n      0xffffffffffffffffffffffffffffffffffffffff\n      and\n      dup2\n      mstore\n      0x20\n      add\n      swap1\n      dup2\n      mstore\n      0x20\n      add\n      0x00\n      keccak256\n        /* \"contracts/MyToken.sol\":2562:2590  slabDetails[msg.sender].slab */\n      0x02\n      add\n        /* \"contracts/MyToken.sol\":2562:2592  slabDetails[msg.sender].slab=4 */\n      dup2\n      swap1\n      sstore\n      pop\n        /* \"contracts/MyToken.sol\":2522:3087  if (amountDeposited<=100 ){... */\n      jump(tag_199)\n    tag_198:\n        /* \"contracts/MyToken.sol\":2639:2642  100 */\n      0x64\n        /* \"contracts/MyToken.sol\":2621:2636  amountDeposited */\n      dup2\n        /* \"contracts/MyToken.sol\":2621:2642  amountDeposited > 100 */\n      gt\n        /* \"contracts/MyToken.sol\":2621:2668  amountDeposited > 100 && amountDeposited <= 200 */\n      dup1\n      iszero\n      tag_200\n      jumpi\n      pop\n        /* \"contracts/MyToken.sol\":2665:2668  200 */\n      0xc8\n        /* \"contracts/MyToken.sol\":2646:2661  amountDeposited */\n      dup2\n        /* \"contracts/MyToken.sol\":2646:2668  amountDeposited <= 200 */\n      gt\n      iszero\n        /* \"contracts/MyToken.sol\":2621:2668  amountDeposited > 100 && amountDeposited <= 200 */\n    tag_200:\n        /* \"contracts/MyToken.sol\":2617:3087  if (amountDeposited > 100 && amountDeposited <= 200){... */\n      iszero\n      tag_201\n      jumpi\n        /* \"contracts/MyToken.sol\":2712:2713  3 */\n      0x03\n        /* \"contracts/MyToken.sol\":2683:2694  slabDetails */\n      0x09\n        /* \"contracts/MyToken.sol\":2683:2706  slabDetails[msg.sender] */\n      0x00\n        /* \"contracts/MyToken.sol\":2695:2705  msg.sender */\n      caller\n        /* \"contracts/MyToken.sol\":2683:2706  slabDetails[msg.sender] */\n      0xffffffffffffffffffffffffffffffffffffffff\n      and\n      0xffffffffffffffffffffffffffffffffffffffff\n      and\n      dup2\n      mstore\n      0x20\n      add\n      swap1\n      dup2\n      mstore\n      0x20\n      add\n      0x00\n      keccak256\n        /* \"contracts/MyToken.sol\":2683:2711  slabDetails[msg.sender].slab */\n      0x02\n      add\n        /* \"contracts/MyToken.sol\":2683:2713  slabDetails[msg.sender].slab=3 */\n      dup2\n      swap1\n      sstore\n      pop\n        /* \"contracts/MyToken.sol\":2617:3087  if (amountDeposited > 100 && amountDeposited <= 200){... */\n      jump(tag_202)\n    tag_201:\n        /* \"contracts/MyToken.sol\":2760:2763  200 */\n      0xc8\n        /* \"contracts/MyToken.sol\":2742:2757  amountDeposited */\n      dup2\n        /* \"contracts/MyToken.sol\":2742:2763  amountDeposited > 200 */\n      gt\n        /* \"contracts/MyToken.sol\":2742:2789  amountDeposited > 200 && amountDeposited <= 300 */\n      dup1\n      iszero\n      tag_203\n      jumpi\n      pop\n        /* \"contracts/MyToken.sol\":2786:2789  300 */\n      0x012c\n        /* \"contracts/MyToken.sol\":2767:2782  amountDeposited */\n      dup2\n        /* \"contracts/MyToken.sol\":2767:2789  amountDeposited <= 300 */\n      gt\n      iszero\n        /* \"contracts/MyToken.sol\":2742:2789  amountDeposited > 200 && amountDeposited <= 300 */\n    tag_203:\n        /* \"contracts/MyToken.sol\":2738:3087  if (amountDeposited > 200 && amountDeposited <= 300){... */\n      iszero\n      tag_204\n      jumpi\n        /* \"contracts/MyToken.sol\":2833:2834  2 */\n      0x02\n        /* \"contracts/MyToken.sol\":2804:2815  slabDetails */\n      0x09\n        /* \"contracts/MyToken.sol\":2804:2827  slabDetails[msg.sender] */\n      0x00\n        /* \"contracts/MyToken.sol\":2816:2826  msg.sender */\n      caller\n        /* \"contracts/MyToken.sol\":2804:2827  slabDetails[msg.sender] */\n      0xffffffffffffffffffffffffffffffffffffffff\n      and\n      0xffffffffffffffffffffffffffffffffffffffff\n      and\n      dup2\n      mstore\n      0x20\n      add\n      swap1\n      dup2\n      mstore\n      0x20\n      add\n      0x00\n      keccak256\n        /* \"contracts/MyToken.sol\":2804:2832  slabDetails[msg.sender].slab */\n      0x02\n      add\n        /* \"contracts/MyToken.sol\":2804:2834  slabDetails[msg.sender].slab=2 */\n      dup2\n      swap1\n      sstore\n      pop\n        /* \"contracts/MyToken.sol\":2738:3087  if (amountDeposited > 200 && amountDeposited <= 300){... */\n      jump(tag_205)\n    tag_204:\n        /* \"contracts/MyToken.sol\":2881:2884  300 */\n      0x012c\n        /* \"contracts/MyToken.sol\":2863:2878  amountDeposited */\n      dup2\n        /* \"contracts/MyToken.sol\":2863:2884  amountDeposited > 300 */\n      gt\n        /* \"contracts/MyToken.sol\":2863:2910  amountDeposited > 300 && amountDeposited <= 400 */\n      dup1\n      iszero\n      tag_206\n      jumpi\n      pop\n        /* \"contracts/MyToken.sol\":2907:2910  400 */\n      0x0190\n        /* \"contracts/MyToken.sol\":2888:2903  amountDeposited */\n      dup2\n        /* \"contracts/MyToken.sol\":2888:2910  amountDeposited <= 400 */\n      gt\n      iszero\n        /* \"contracts/MyToken.sol\":2863:2910  amountDeposited > 300 && amountDeposited <= 400 */\n    tag_206:\n        /* \"contracts/MyToken.sol\":2859:3087  if (amountDeposited > 300 && amountDeposited <= 400){... */\n      iszero\n      tag_207\n      jumpi\n        /* \"contracts/MyToken.sol\":2954:2955  1 */\n      0x01\n        /* \"contracts/MyToken.sol\":2925:2936  slabDetails */\n      0x09\n        /* \"contracts/MyToken.sol\":2925:2948  slabDetails[msg.sender] */\n      0x00\n        /* \"contracts/MyToken.sol\":2937:2947  msg.sender */\n      caller\n        /* \"contracts/MyToken.sol\":2925:2948  slabDetails[msg.sender] */\n      0xffffffffffffffffffffffffffffffffffffffff\n      and\n      0xffffffffffffffffffffffffffffffffffffffff\n      and\n      dup2\n      mstore\n      0x20\n      add\n      swap1\n      dup2\n      mstore\n      0x20\n      add\n      0x00\n      keccak256\n        /* \"contracts/MyToken.sol\":2925:2953  slabDetails[msg.sender].slab */\n      0x02\n      add\n        /* \"contracts/MyToken.sol\":2925:2955  slabDetails[msg.sender].slab=1 */\n      dup2\n      swap1\n      sstore\n      pop\n        /* \"contracts/MyToken.sol\":2859:3087  if (amountDeposited > 300 && amountDeposited <= 400){... */\n      jump(tag_208)\n    tag_207:\n        /* \"contracts/MyToken.sol\":3002:3005  400 */\n      0x0190\n        /* \"contracts/MyToken.sol\":2984:2999  amountDeposited */\n      dup2\n        /* \"contracts/MyToken.sol\":2984:3005  amountDeposited > 400 */\n      gt\n        /* \"contracts/MyToken.sol\":2984:3031  amountDeposited > 400 && amountDeposited <= 500 */\n      dup1\n      iszero\n      tag_209\n      jumpi\n      pop\n        /* \"contracts/MyToken.sol\":3028:3031  500 */\n      0x01f4\n        /* \"contracts/MyToken.sol\":3009:3024  amountDeposited */\n      dup2\n        /* \"contracts/MyToken.sol\":3009:3031  amountDeposited <= 500 */\n      gt\n      iszero\n        /* \"contracts/MyToken.sol\":2984:3031  amountDeposited > 400 && amountDeposited <= 500 */\n    tag_209:\n        /* \"contracts/MyToken.sol\":2980:3087  if (amountDeposited > 400 && amountDeposited <= 500){... */\n      iszero\n      tag_210\n      jumpi\n        /* \"contracts/MyToken.sol\":3075:3076  0 */\n      0x00\n        /* \"contracts/MyToken.sol\":3046:3057  slabDetails */\n      0x09\n        /* \"contracts/MyToken.sol\":3046:3069  slabDetails[msg.sender] */\n      0x00\n        /* \"contracts/MyToken.sol\":3058:3068  msg.sender */\n      caller\n        /* \"contracts/MyToken.sol\":3046:3069  slabDetails[msg.sender] */\n      0xffffffffffffffffffffffffffffffffffffffff\n      and\n      0xffffffffffffffffffffffffffffffffffffffff\n      and\n      dup2\n      mstore\n      0x20\n      add\n      swap1\n      dup2\n      mstore\n      0x20\n      add\n      0x00\n      keccak256\n        /* \"contracts/MyToken.sol\":3046:3074  slabDetails[msg.sender].slab */\n      0x02\n      add\n        /* \"contracts/MyToken.sol\":3046:3076  slabDetails[msg.sender].slab=0 */\n      dup2\n      swap1\n      sstore\n      pop\n        /* \"contracts/MyToken.sol\":2980:3087  if (amountDeposited > 400 && amountDeposited <= 500){... */\n    tag_210:\n        /* \"contracts/MyToken.sol\":2859:3087  if (amountDeposited > 300 && amountDeposited <= 400){... */\n    tag_208:\n        /* \"contracts/MyToken.sol\":2738:3087  if (amountDeposited > 200 && amountDeposited <= 300){... */\n    tag_205:\n        /* \"contracts/MyToken.sol\":2617:3087  if (amountDeposited > 100 && amountDeposited <= 200){... */\n    tag_202:\n        /* \"contracts/MyToken.sol\":2522:3087  if (amountDeposited<=100 ){... */\n    tag_199:\n        /* \"contracts/MyToken.sol\":2413:3132  function assignSlab()public  {... */\n      pop\n      jump\t// out\n        /* \"@openzeppelin/contracts/token/ERC20/ERC20.sol\":3974:4123  function allowance(address owner, address spender) public view virtual override returns (uint256) {... */\n    tag_111:\n        /* \"@openzeppelin/contracts/token/ERC20/ERC20.sol\":4063:4070  uint256 */\n      0x00\n        /* \"@openzeppelin/contracts/token/ERC20/ERC20.sol\":4089:4100  _allowances */\n      0x01\n        /* \"@openzeppelin/contracts/token/ERC20/ERC20.sol\":4089:4107  _allowances[owner] */\n      0x00\n        /* \"@openzeppelin/contracts/token/ERC20/ERC20.sol\":4101:4106  owner */\n      dup5\n        /* \"@openzeppelin/contracts/token/ERC20/ERC20.sol\":4089:4107  _allowances[owner] */\n      0xffffffffffffffffffffffffffffffffffffffff\n      and\n      0xffffffffffffffffffffffffffffffffffffffff\n      and\n      dup2\n      mstore\n      0x20\n      add\n      swap1\n      dup2\n      mstore\n      0x20\n      add\n      0x00\n      keccak256\n        /* \"@openzeppelin/contracts/token/ERC20/ERC20.sol\":4089:4116  _allowances[owner][spender] */\n      0x00\n        /* \"@openzeppelin/contracts/token/ERC20/ERC20.sol\":4108:4115  spender */\n      dup4\n        /* \"@openzeppelin/contracts/token/ERC20/ERC20.sol\":4089:4116  _allowances[owner][spender] */\n      0xffffffffffffffffffffffffffffffffffffffff\n      and\n      0xffffffffffffffffffffffffffffffffffffffff\n      and\n      dup2\n      mstore\n      0x20\n      add\n      swap1\n      dup2\n      mstore\n      0x20\n      add\n      0x00\n      keccak256\n      sload\n        /* \"@openzeppelin/contracts/token/ERC20/ERC20.sol\":4082:4116  return _allowances[owner][spender] */\n      swap1\n      pop\n        /* \"@openzeppelin/contracts/token/ERC20/ERC20.sol\":3974:4123  function allowance(address owner, address spender) public view virtual override returns (uint256) {... */\n      swap3\n      swap2\n      pop\n      pop\n      jump\t// out\n        /* \"contracts/MyToken.sol\":660:683  uint public deposited=0 */\n    tag_115:\n      sload(0x06)\n      dup2\n      jump\t// out\n        /* \"contracts/MyToken.sol\":987:1028  mapping(address=>Stack)public slabDetails */\n    tag_120:\n      mstore(0x20, 0x09)\n      dup1\n      0x00\n      mstore\n      keccak256(0x00, 0x40)\n      0x00\n      swap2\n      pop\n      swap1\n      pop\n      dup1\n      0x00\n      add\n      0x00\n      swap1\n      sload\n      swap1\n      0x0100\n      exp\n      swap1\n      div\n      0xff\n      and\n      swap1\n      dup1\n      0x01\n      add\n      sload\n      swap1\n      dup1\n      0x02\n      add\n      sload\n      swap1\n      pop\n      dup4\n      jump\t// out\n        /* \"@openzeppelin/contracts/access/Ownable.sol\":2081:2279  function transferOwnership(address newOwner) public virtual onlyOwner {... */\n    tag_126:\n        /* \"@openzeppelin/contracts/access/Ownable.sol\":1094:1107  _checkOwner() */\n      tag_213\n        /* \"@openzeppelin/contracts/access/Ownable.sol\":1094:1105  _checkOwner */\n      tag_155\n        /* \"@openzeppelin/contracts/access/Ownable.sol\":1094:1107  _checkOwner() */\n      jump\t// in\n    tag_213:\n        /* \"@openzeppelin/contracts/access/Ownable.sol\":2189:2190  0 */\n      0x00\n        /* \"@openzeppelin/contracts/access/Ownable.sol\":2169:2191  newOwner != address(0) */\n      0xffffffffffffffffffffffffffffffffffffffff\n      and\n        /* \"@openzeppelin/contracts/access/Ownable.sol\":2169:2177  newOwner */\n      dup2\n        /* \"@openzeppelin/contracts/access/Ownable.sol\":2169:2191  newOwner != address(0) */\n      0xffffffffffffffffffffffffffffffffffffffff\n      and\n      eq\n      iszero\n        /* \"@openzeppelin/contracts/access/Ownable.sol\":2161:2234  require(newOwner != address(0), \"Ownable: new owner is the zero address\") */\n      tag_215\n      jumpi\n      mload(0x40)\n      0x08c379a000000000000000000000000000000000000000000000000000000000\n      dup2\n      mstore\n      0x04\n      add\n      tag_216\n      swap1\n      tag_217\n      jump\t// in\n    tag_216:\n      mload(0x40)\n      dup1\n      swap2\n      sub\n      swap1\n      revert\n    tag_215:\n        /* \"@openzeppelin/contracts/access/Ownable.sol\":2244:2272  _transferOwnership(newOwner) */\n      tag_218\n        /* \"@openzeppelin/contracts/access/Ownable.sol\":2263:2271  newOwner */\n      dup2\n        /* \"@openzeppelin/contracts/access/Ownable.sol\":2244:2262  _transferOwnership */\n      tag_164\n        /* \"@openzeppelin/contracts/access/Ownable.sol\":2244:2272  _transferOwnership(newOwner) */\n      jump\t// in\n    tag_218:\n        /* \"@openzeppelin/contracts/access/Ownable.sol\":2081:2279  function transferOwnership(address newOwner) public virtual onlyOwner {... */\n      pop\n      jump\t// out\n        /* \"@openzeppelin/contracts/utils/Context.sol\":640:736  function _msgSender() internal view virtual returns (address) {... */\n    tag_136:\n        /* \"@openzeppelin/contracts/utils/Context.sol\":693:700  address */\n      0x00\n        /* \"@openzeppelin/contracts/utils/Context.sol\":719:729  msg.sender */\n      caller\n        /* \"@openzeppelin/contracts/utils/Context.sol\":712:729  return msg.sender */\n      swap1\n      pop\n        /* \"@openzeppelin/contracts/utils/Context.sol\":640:736  function _msgSender() internal view virtual returns (address) {... */\n      swap1\n      jump\t// out\n        /* \"@openzeppelin/contracts/token/ERC20/ERC20.sol\":10504:10874  function _approve(... */\n    tag_138:\n        /* \"@openzeppelin/contracts/token/ERC20/ERC20.sol\":10652:10653  0 */\n      0x00\n        /* \"@openzeppelin/contracts/token/ERC20/ERC20.sol\":10635:10654  owner != address(0) */\n      0xffffffffffffffffffffffffffffffffffffffff\n      and\n        /* \"@openzeppelin/contracts/token/ERC20/ERC20.sol\":10635:10640  owner */\n      dup4\n        /* \"@openzeppelin/contracts/token/ERC20/ERC20.sol\":10635:10654  owner != address(0) */\n      0xffffffffffffffffffffffffffffffffffffffff\n      and\n      eq\n      iszero\n        /* \"@openzeppelin/contracts/token/ERC20/ERC20.sol\":10627:10695  require(owner != address(0), \"ERC20: approve from the zero address\") */\n      tag_221\n      jumpi\n      mload(0x40)\n      0x08c379a000000000000000000000000000000000000000000000000000000000\n      dup2\n      mstore\n      0x04\n      add\n      tag_222\n      swap1\n      tag_223\n      jump\t// in\n    tag_222:\n      mload(0x40)\n      dup1\n      swap2\n      sub\n      swap1\n      revert\n    tag_221:\n        /* \"@openzeppelin/contracts/token/ERC20/ERC20.sol\":10732:10733  0 */\n      0x00\n        /* \"@openzeppelin/contracts/token/ERC20/ERC20.sol\":10713:10734  spender != address(0) */\n      0xffffffffffffffffffffffffffffffffffffffff\n      and\n        /* \"@openzeppelin/contracts/token/ERC20/ERC20.sol\":10713:10720  spender */\n      dup3\n        /* \"@openzeppelin/contracts/token/ERC20/ERC20.sol\":10713:10734  spender != address(0) */\n      0xffffffffffffffffffffffffffffffffffffffff\n      and\n      eq\n      iszero\n        /* \"@openzeppelin/contracts/token/ERC20/ERC20.sol\":10705:10773  require(spender != address(0), \"ERC20: approve to the zero address\") */\n      tag_224\n      jumpi\n      mload(0x40)\n      0x08c379a000000000000000000000000000000000000000000000000000000000\n      dup2\n      mstore\n      0x04\n      add\n      tag_225\n      swap1\n      tag_226\n      jump\t// in\n    tag_225:\n      mload(0x40)\n      dup1\n      swap2\n      sub\n      swap1\n      revert\n    tag_224:\n        /* \"@openzeppelin/contracts/token/ERC20/ERC20.sol\":10814:10820  amount */\n      dup1\n        /* \"@openzeppelin/contracts/token/ERC20/ERC20.sol\":10784:10795  _allowances */\n      0x01\n        /* \"@openzeppelin/contracts/token/ERC20/ERC20.sol\":10784:10802  _allowances[owner] */\n      0x00\n        /* \"@openzeppelin/contracts/token/ERC20/ERC20.sol\":10796:10801  owner */\n      dup6\n        /* \"@openzeppelin/contracts/token/ERC20/ERC20.sol\":10784:10802  _allowances[owner] */\n      0xffffffffffffffffffffffffffffffffffffffff\n      and\n      0xffffffffffffffffffffffffffffffffffffffff\n      and\n      dup2\n      mstore\n      0x20\n      add\n      swap1\n      dup2\n      mstore\n      0x20\n      add\n      0x00\n      keccak256\n        /* \"@openzeppelin/contracts/token/ERC20/ERC20.sol\":10784:10811  _allowances[owner][spender] */\n      0x00\n        /* \"@openzeppelin/contracts/token/ERC20/ERC20.sol\":10803:10810  spender */\n      dup5\n        /* \"@openzeppelin/contracts/token/ERC20/ERC20.sol\":10784:10811  _allowances[owner][spender] */\n      0xffffffffffffffffffffffffffffffffffffffff\n      and\n      0xffffffffffffffffffffffffffffffffffffffff\n      and\n      dup2\n      mstore\n      0x20\n      add\n      swap1\n      dup2\n      mstore\n      0x20\n      add\n      0x00\n      keccak256\n        /* \"@openzeppelin/contracts/token/ERC20/ERC20.sol\":10784:10820  _allowances[owner][spender] = amount */\n      dup2\n      swap1\n      sstore\n      pop\n        /* \"@openzeppelin/contracts/token/ERC20/ERC20.sol\":10851:10858  spender */\n      dup2\n        /* \"@openzeppelin/contracts/token/ERC20/ERC20.sol\":10835:10867  Approval(owner, spender, amount) */\n      0xffffffffffffffffffffffffffffffffffffffff\n      and\n        /* \"@openzeppelin/contracts/token/ERC20/ERC20.sol\":10844:10849  owner */\n      dup4\n        /* \"@openzeppelin/contracts/token/ERC20/ERC20.sol\":10835:10867  Approval(owner, spender, amount) */\n      0xffffffffffffffffffffffffffffffffffffffff\n      and\n      0x8c5be1e5ebec7d5bd14f71427d1e84f3dd0314c0f7b2291e5b200ac8c7c3b925\n        /* \"@openzeppelin/contracts/token/ERC20/ERC20.sol\":10860:10866  amount */\n      dup4\n        /* \"@openzeppelin/contracts/token/ERC20/ERC20.sol\":10835:10867  Approval(owner, spender, amount) */\n      mload(0x40)\n      tag_227\n      swap2\n      swap1\n      tag_42\n      jump\t// in\n    tag_227:\n      mload(0x40)\n      dup1\n      swap2\n      sub\n      swap1\n      log3\n        /* \"@openzeppelin/contracts/token/ERC20/ERC20.sol\":10504:10874  function _approve(... */\n      pop\n      pop\n      pop\n      jump\t// out\n        /* \"@openzeppelin/contracts/token/ERC20/ERC20.sol\":11155:11596  function _spendAllowance(... */\n    tag_143:\n        /* \"@openzeppelin/contracts/token/ERC20/ERC20.sol\":11285:11309  uint256 currentAllowance */\n      0x00\n        /* \"@openzeppelin/contracts/token/ERC20/ERC20.sol\":11312:11337  allowance(owner, spender) */\n      tag_229\n        /* \"@openzeppelin/contracts/token/ERC20/ERC20.sol\":11322:11327  owner */\n      dup5\n        /* \"@openzeppelin/contracts/token/ERC20/ERC20.sol\":11329:11336  spender */\n      dup5\n        /* \"@openzeppelin/contracts/token/ERC20/ERC20.sol\":11312:11321  allowance */\n      tag_111\n        /* \"@openzeppelin/contracts/token/ERC20/ERC20.sol\":11312:11337  allowance(owner, spender) */\n      jump\t// in\n    tag_229:\n        /* \"@openzeppelin/contracts/token/ERC20/ERC20.sol\":11285:11337  uint256 currentAllowance = allowance(owner, spender) */\n      swap1\n      pop\n        /* \"@openzeppelin/contracts/token/ERC20/ERC20.sol\":11371:11388  type(uint256).max */\n      0xffffffffffffffffffffffffffffffffffffffffffffffffffffffffffffffff\n        /* \"@openzeppelin/contracts/token/ERC20/ERC20.sol\":11351:11367  currentAllowance */\n      dup2\n        /* \"@openzeppelin/contracts/token/ERC20/ERC20.sol\":11351:11388  currentAllowance != type(uint256).max */\n      eq\n        /* \"@openzeppelin/contracts/token/ERC20/ERC20.sol\":11347:11590  if (currentAllowance != type(uint256).max) {... */\n      tag_230\n      jumpi\n        /* \"@openzeppelin/contracts/token/ERC20/ERC20.sol\":11432:11438  amount */\n      dup2\n        /* \"@openzeppelin/contracts/token/ERC20/ERC20.sol\":11412:11428  currentAllowance */\n      dup2\n        /* \"@openzeppelin/contracts/token/ERC20/ERC20.sol\":11412:11438  currentAllowance >= amount */\n      lt\n      iszero\n        /* \"@openzeppelin/contracts/token/ERC20/ERC20.sol\":11404:11472  require(currentAllowance >= amount, \"ERC20: insufficient allowance\") */\n      tag_231\n      jumpi\n      mload(0x40)\n      0x08c379a000000000000000000000000000000000000000000000000000000000\n      dup2\n      mstore\n      0x04\n      add\n      tag_232\n      swap1\n      tag_233\n      jump\t// in\n    tag_232:\n      mload(0x40)\n      dup1\n      swap2\n      sub\n      swap1\n      revert\n    tag_231:\n        /* \"@openzeppelin/contracts/token/ERC20/ERC20.sol\":11514:11565  _approve(owner, spender, currentAllowance - amount) */\n      tag_234\n        /* \"@openzeppelin/contracts/token/ERC20/ERC20.sol\":11523:11528  owner */\n      dup5\n        /* \"@openzeppelin/contracts/token/ERC20/ERC20.sol\":11530:11537  spender */\n      dup5\n        /* \"@openzeppelin/contracts/token/ERC20/ERC20.sol\":11558:11564  amount */\n      dup5\n        /* \"@openzeppelin/contracts/token/ERC20/ERC20.sol\":11539:11555  currentAllowance */\n      dup5\n        /* \"@openzeppelin/contracts/token/ERC20/ERC20.sol\":11539:11564  currentAllowance - amount */\n      sub\n        /* \"@openzeppelin/contracts/token/ERC20/ERC20.sol\":11514:11522  _approve */\n      tag_138\n        /* \"@openzeppelin/contracts/token/ERC20/ERC20.sol\":11514:11565  _approve(owner, spender, currentAllowance - amount) */\n      jump\t// in\n    tag_234:\n        /* \"@openzeppelin/contracts/token/ERC20/ERC20.sol\":11347:11590  if (currentAllowance != type(uint256).max) {... */\n    tag_230:\n        /* \"@openzeppelin/contracts/token/ERC20/ERC20.sol\":11155:11596  function _spendAllowance(... */\n      pop\n      pop\n      pop\n      pop\n      jump\t// out\n        /* \"@openzeppelin/contracts/token/ERC20/ERC20.sol\":7473:8291  function _transfer(... */\n    tag_145:\n        /* \"@openzeppelin/contracts/token/ERC20/ERC20.sol\":7615:7616  0 */\n      0x00\n        /* \"@openzeppelin/contracts/token/ERC20/ERC20.sol\":7599:7617  from != address(0) */\n      0xffffffffffffffffffffffffffffffffffffffff\n      and\n        /* \"@openzeppelin/contracts/token/ERC20/ERC20.sol\":7599:7603  from */\n      dup4\n        /* \"@openzeppelin/contracts/token/ERC20/ERC20.sol\":7599:7617  from != address(0) */\n      0xffffffffffffffffffffffffffffffffffffffff\n      and\n      eq\n      iszero\n        /* \"@openzeppelin/contracts/token/ERC20/ERC20.sol\":7591:7659  require(from != address(0), \"ERC20: transfer from the zero address\") */\n      tag_236\n      jumpi\n      mload(0x40)\n      0x08c379a000000000000000000000000000000000000000000000000000000000\n      dup2\n      mstore\n      0x04\n      add\n      tag_237\n      swap1\n      tag_238\n      jump\t// in\n    tag_237:\n      mload(0x40)\n      dup1\n      swap2\n      sub\n      swap1\n      revert\n    tag_236:\n        /* \"@openzeppelin/contracts/token/ERC20/ERC20.sol\":7691:7692  0 */\n      0x00\n        /* \"@openzeppelin/contracts/token/ERC20/ERC20.sol\":7677:7693  to != address(0) */\n      0xffffffffffffffffffffffffffffffffffffffff\n      and\n        /* \"@openzeppelin/contracts/token/ERC20/ERC20.sol\":7677:7679  to */\n      dup3\n        /* \"@openzeppelin/contracts/token/ERC20/ERC20.sol\":7677:7693  to != address(0) */\n      0xffffffffffffffffffffffffffffffffffffffff\n      and\n      eq\n      iszero\n        /* \"@openzeppelin/contracts/token/ERC20/ERC20.sol\":7669:7733  require(to != address(0), \"ERC20: transfer to the zero address\") */\n      tag_239\n      jumpi\n      mload(0x40)\n      0x08c379a000000000000000000000000000000000000000000000000000000000\n      dup2\n      mstore\n      0x04\n      add\n      tag_240\n      swap1\n      tag_241\n      jump\t// in\n    tag_240:\n      mload(0x40)\n      dup1\n      swap2\n      sub\n      swap1\n      revert\n    tag_239:\n        /* \"@openzeppelin/contracts/token/ERC20/ERC20.sol\":7744:7782  _beforeTokenTransfer(from, to, amount) */\n      tag_242\n        /* \"@openzeppelin/contracts/token/ERC20/ERC20.sol\":7765:7769  from */\n      dup4\n        /* \"@openzeppelin/contracts/token/ERC20/ERC20.sol\":7771:7773  to */\n      dup4\n        /* \"@openzeppelin/contracts/token/ERC20/ERC20.sol\":7775:7781  amount */\n      dup4\n        /* \"@openzeppelin/contracts/token/ERC20/ERC20.sol\":7744:7764  _beforeTokenTransfer */\n      tag_243\n        /* \"@openzeppelin/contracts/token/ERC20/ERC20.sol\":7744:7782  _beforeTokenTransfer(from, to, amount) */\n      jump\t// in\n    tag_242:\n        /* \"@openzeppelin/contracts/token/ERC20/ERC20.sol\":7793:7812  uint256 fromBalance */\n      0x00\n        /* \"@openzeppelin/contracts/token/ERC20/ERC20.sol\":7815:7824  _balances */\n      dup1\n        /* \"@openzeppelin/contracts/token/ERC20/ERC20.sol\":7815:7830  _balances[from] */\n      0x00\n        /* \"@openzeppelin/contracts/token/ERC20/ERC20.sol\":7825:7829  from */\n      dup6\n        /* \"@openzeppelin/contracts/token/ERC20/ERC20.sol\":7815:7830  _balances[from] */\n      0xffffffffffffffffffffffffffffffffffffffff\n      and\n      0xffffffffffffffffffffffffffffffffffffffff\n      and\n      dup2\n      mstore\n      0x20\n      add\n      swap1\n      dup2\n      mstore\n      0x20\n      add\n      0x00\n      keccak256\n      sload\n        /* \"@openzeppelin/contracts/token/ERC20/ERC20.sol\":7793:7830  uint256 fromBalance = _balances[from] */\n      swap1\n      pop\n        /* \"@openzeppelin/contracts/token/ERC20/ERC20.sol\":7863:7869  amount */\n      dup2\n        /* \"@openzeppelin/contracts/token/ERC20/ERC20.sol\":7848:7859  fromBalance */\n      dup2\n        /* \"@openzeppelin/contracts/token/ERC20/ERC20.sol\":7848:7869  fromBalance >= amount */\n      lt\n      iszero\n        /* \"@openzeppelin/contracts/token/ERC20/ERC20.sol\":7840:7912  require(fromBalance >= amount, \"ERC20: transfer amount exceeds balance\") */\n      tag_244\n      jumpi\n      mload(0x40)\n      0x08c379a000000000000000000000000000000000000000000000000000000000\n      dup2\n      mstore\n      0x04\n      add\n      tag_245\n      swap1\n      tag_246\n      jump\t// in\n    tag_245:\n      mload(0x40)\n      dup1\n      swap2\n      sub\n      swap1\n      revert\n    tag_244:\n        /* \"@openzeppelin/contracts/token/ERC20/ERC20.sol\":7978:7984  amount */\n      dup2\n        /* \"@openzeppelin/contracts/token/ERC20/ERC20.sol\":7964:7975  fromBalance */\n      dup2\n        /* \"@openzeppelin/contracts/token/ERC20/ERC20.sol\":7964:7984  fromBalance - amount */\n      sub\n        /* \"@openzeppelin/contracts/token/ERC20/ERC20.sol\":7946:7955  _balances */\n      0x00\n        /* \"@openzeppelin/contracts/token/ERC20/ERC20.sol\":7946:7961  _balances[from] */\n      dup1\n        /* \"@openzeppelin/contracts/token/ERC20/ERC20.sol\":7956:7960  from */\n      dup7\n        /* \"@openzeppelin/contracts/token/ERC20/ERC20.sol\":7946:7961  _balances[from] */\n      0xffffffffffffffffffffffffffffffffffffffff\n      and\n      0xffffffffffffffffffffffffffffffffffffffff\n      and\n      dup2\n      mstore\n      0x20\n      add\n      swap1\n      dup2\n      mstore\n      0x20\n      add\n      0x00\n      keccak256\n        /* \"@openzeppelin/contracts/token/ERC20/ERC20.sol\":7946:7984  _balances[from] = fromBalance - amount */\n      dup2\n      swap1\n      sstore\n      pop\n        /* \"@openzeppelin/contracts/token/ERC20/ERC20.sol\":8178:8184  amount */\n      dup2\n        /* \"@openzeppelin/contracts/token/ERC20/ERC20.sol\":8161:8170  _balances */\n      0x00\n        /* \"@openzeppelin/contracts/token/ERC20/ERC20.sol\":8161:8174  _balances[to] */\n      dup1\n        /* \"@openzeppelin/contracts/token/ERC20/ERC20.sol\":8171:8173  to */\n      dup6\n        /* \"@openzeppelin/contracts/token/ERC20/ERC20.sol\":8161:8174  _balances[to] */\n      0xffffffffffffffffffffffffffffffffffffffff\n      and\n      0xffffffffffffffffffffffffffffffffffffffff\n      and\n      dup2\n      mstore\n      0x20\n      add\n      swap1\n      dup2\n      mstore\n      0x20\n      add\n      0x00\n      keccak256\n      0x00\n        /* \"@openzeppelin/contracts/token/ERC20/ERC20.sol\":8161:8184  _balances[to] += amount */\n      dup3\n      dup3\n      sload\n      add\n      swap3\n      pop\n      pop\n      dup2\n      swap1\n      sstore\n      pop\n        /* \"@openzeppelin/contracts/token/ERC20/ERC20.sol\":8225:8227  to */\n      dup3\n        /* \"@openzeppelin/contracts/token/ERC20/ERC20.sol\":8210:8236  Transfer(from, to, amount) */\n      0xffffffffffffffffffffffffffffffffffffffff\n      and\n        /* \"@openzeppelin/contracts/token/ERC20/ERC20.sol\":8219:8223  from */\n      dup5\n        /* \"@openzeppelin/contracts/token/ERC20/ERC20.sol\":8210:8236  Transfer(from, to, amount) */\n      0xffffffffffffffffffffffffffffffffffffffff\n      and\n      0xddf252ad1be2c89b69c2b068fc378daa952ba7f163c4a11628f55a4df523b3ef\n        /* \"@openzeppelin/contracts/token/ERC20/ERC20.sol\":8229:8235  amount */\n      dup5\n        /* \"@openzeppelin/contracts/token/ERC20/ERC20.sol\":8210:8236  Transfer(from, to, amount) */\n      mload(0x40)\n      tag_247\n      swap2\n      swap1\n      tag_42\n      jump\t// in\n    tag_247:\n      mload(0x40)\n      dup1\n      swap2\n      sub\n      swap1\n      log3\n        /* \"@openzeppelin/contracts/token/ERC20/ERC20.sol\":8247:8284  _afterTokenTransfer(from, to, amount) */\n      tag_248\n        /* \"@openzeppelin/contracts/token/ERC20/ERC20.sol\":8267:8271  from */\n      dup5\n        /* \"@openzeppelin/contracts/token/ERC20/ERC20.sol\":8273:8275  to */\n      dup5\n        /* \"@openzeppelin/contracts/token/ERC20/ERC20.sol\":8277:8283  amount */\n      dup5\n        /* \"@openzeppelin/contracts/token/ERC20/ERC20.sol\":8247:8266  _afterTokenTransfer */\n      tag_249\n        /* \"@openzeppelin/contracts/token/ERC20/ERC20.sol\":8247:8284  _afterTokenTransfer(from, to, amount) */\n      jump\t// in\n    tag_248:\n        /* \"@openzeppelin/contracts/token/ERC20/ERC20.sol\":7473:8291  function _transfer(... */\n      pop\n      pop\n      pop\n      pop\n      jump\t// out\n        /* \"@openzeppelin/contracts/access/Ownable.sol\":1359:1489  function _checkOwner() internal view virtual {... */\n    tag_155:\n        /* \"@openzeppelin/contracts/access/Ownable.sol\":1433:1445  _msgSender() */\n      tag_251\n        /* \"@openzeppelin/contracts/access/Ownable.sol\":1433:1443  _msgSender */\n      tag_136\n        /* \"@openzeppelin/contracts/access/Ownable.sol\":1433:1445  _msgSender() */\n      jump\t// in\n    tag_251:\n        /* \"@openzeppelin/contracts/access/Ownable.sol\":1422:1445  owner() == _msgSender() */\n      0xffffffffffffffffffffffffffffffffffffffff\n      and\n        /* \"@openzeppelin/contracts/access/Ownable.sol\":1422:1429  owner() */\n      tag_252\n        /* \"@openzeppelin/contracts/access/Ownable.sol\":1422:1427  owner */\n      tag_82\n        /* \"@openzeppelin/contracts/access/Ownable.sol\":1422:1429  owner() */\n      jump\t// in\n    tag_252:\n        /* \"@openzeppelin/contracts/access/Ownable.sol\":1422:1445  owner() == _msgSender() */\n      0xffffffffffffffffffffffffffffffffffffffff\n      and\n      eq\n        /* \"@openzeppelin/contracts/access/Ownable.sol\":1414:1482  require(owner() == _msgSender(), \"Ownable: caller is not the owner\") */\n      tag_253\n      jumpi\n      mload(0x40)\n      0x08c379a000000000000000000000000000000000000000000000000000000000\n      dup2\n      mstore\n      0x04\n      add\n      tag_254\n      swap1\n      tag_255\n      jump\t// in\n    tag_254:\n      mload(0x40)\n      dup1\n      swap2\n      sub\n      swap1\n      revert\n    tag_253:\n        /* \"@openzeppelin/contracts/access/Ownable.sol\":1359:1489  function _checkOwner() internal view virtual {... */\n      jump\t// out\n        /* \"@openzeppelin/contracts/token/ERC20/ERC20.sol\":8567:9102  function _mint(address account, uint256 amount) internal virtual {... */\n    tag_158:\n        /* \"@openzeppelin/contracts/token/ERC20/ERC20.sol\":8669:8670  0 */\n      0x00\n        /* \"@openzeppelin/contracts/token/ERC20/ERC20.sol\":8650:8671  account != address(0) */\n      0xffffffffffffffffffffffffffffffffffffffff\n      and\n        /* \"@openzeppelin/contracts/token/ERC20/ERC20.sol\":8650:8657  account */\n      dup3\n        /* \"@openzeppelin/contracts/token/ERC20/ERC20.sol\":8650:8671  account != address(0) */\n      0xffffffffffffffffffffffffffffffffffffffff\n      and\n      eq\n      iszero\n        /* \"@openzeppelin/contracts/token/ERC20/ERC20.sol\":8642:8707  require(account != address(0), \"ERC20: mint to the zero address\") */\n      tag_257\n      jumpi\n      mload(0x40)\n      0x08c379a000000000000000000000000000000000000000000000000000000000\n      dup2\n      mstore\n      0x04\n      add\n      tag_258\n      swap1\n      tag_259\n      jump\t// in\n    tag_258:\n      mload(0x40)\n      dup1\n      swap2\n      sub\n      swap1\n      revert\n    tag_257:\n        /* \"@openzeppelin/contracts/token/ERC20/ERC20.sol\":8718:8767  _beforeTokenTransfer(address(0), account, amount) */\n      tag_260\n        /* \"@openzeppelin/contracts/token/ERC20/ERC20.sol\":8747:8748  0 */\n      0x00\n        /* \"@openzeppelin/contracts/token/ERC20/ERC20.sol\":8751:8758  account */\n      dup4\n        /* \"@openzeppelin/contracts/token/ERC20/ERC20.sol\":8760:8766  amount */\n      dup4\n        /* \"@openzeppelin/contracts/token/ERC20/ERC20.sol\":8718:8738  _beforeTokenTransfer */\n      tag_243\n        /* \"@openzeppelin/contracts/token/ERC20/ERC20.sol\":8718:8767  _beforeTokenTransfer(address(0), account, amount) */\n      jump\t// in\n    tag_260:\n        /* \"@openzeppelin/contracts/token/ERC20/ERC20.sol\":8794:8800  amount */\n      dup1\n        /* \"@openzeppelin/contracts/token/ERC20/ERC20.sol\":8778:8790  _totalSupply */\n      0x02\n      0x00\n        /* \"@openzeppelin/contracts/token/ERC20/ERC20.sol\":8778:8800  _totalSupply += amount */\n      dup3\n      dup3\n      sload\n      tag_261\n      swap2\n      swap1\n      tag_152\n      jump\t// in\n    tag_261:\n      swap3\n      pop\n      pop\n      dup2\n      swap1\n      sstore\n      pop\n        /* \"@openzeppelin/contracts/token/ERC20/ERC20.sol\":8968:8974  amount */\n      dup1\n        /* \"@openzeppelin/contracts/token/ERC20/ERC20.sol\":8946:8955  _balances */\n      0x00\n        /* \"@openzeppelin/contracts/token/ERC20/ERC20.sol\":8946:8964  _balances[account] */\n      dup1\n        /* \"@openzeppelin/contracts/token/ERC20/ERC20.sol\":8956:8963  account */\n      dup5\n        /* \"@openzeppelin/contracts/token/ERC20/ERC20.sol\":8946:8964  _balances[account] */\n      0xffffffffffffffffffffffffffffffffffffffff\n      and\n      0xffffffffffffffffffffffffffffffffffffffff\n      and\n      dup2\n      mstore\n      0x20\n      add\n      swap1\n      dup2\n      mstore\n      0x20\n      add\n      0x00\n      keccak256\n      0x00\n        /* \"@openzeppelin/contracts/token/ERC20/ERC20.sol\":8946:8974  _balances[account] += amount */\n      dup3\n      dup3\n      sload\n      add\n      swap3\n      pop\n      pop\n      dup2\n      swap1\n      sstore\n      pop\n        /* \"@openzeppelin/contracts/token/ERC20/ERC20.sol\":9020:9027  account */\n      dup2\n        /* \"@openzeppelin/contracts/token/ERC20/ERC20.sol\":8999:9036  Transfer(address(0), account, amount) */\n      0xffffffffffffffffffffffffffffffffffffffff\n      and\n        /* \"@openzeppelin/contracts/token/ERC20/ERC20.sol\":9016:9017  0 */\n      0x00\n        /* \"@openzeppelin/contracts/token/ERC20/ERC20.sol\":8999:9036  Transfer(address(0), account, amount) */\n      0xffffffffffffffffffffffffffffffffffffffff\n      and\n      0xddf252ad1be2c89b69c2b068fc378daa952ba7f163c4a11628f55a4df523b3ef\n        /* \"@openzeppelin/contracts/token/ERC20/ERC20.sol\":9029:9035  amount */\n      dup4\n        /* \"@openzeppelin/contracts/token/ERC20/ERC20.sol\":8999:9036  Transfer(address(0), account, amount) */\n      mload(0x40)\n      tag_262\n      swap2\n      swap1\n      tag_42\n      jump\t// in\n    tag_262:\n      mload(0x40)\n      dup1\n      swap2\n      sub\n      swap1\n      log3\n        /* \"@openzeppelin/contracts/token/ERC20/ERC20.sol\":9047:9095  _afterTokenTransfer(address(0), account, amount) */\n      tag_263\n        /* \"@openzeppelin/contracts/token/ERC20/ERC20.sol\":9075:9076  0 */\n      0x00\n        /* \"@openzeppelin/contracts/token/ERC20/ERC20.sol\":9079:9086  account */\n      dup4\n        /* \"@openzeppelin/contracts/token/ERC20/ERC20.sol\":9088:9094  amount */\n      dup4\n        /* \"@openzeppelin/contracts/token/ERC20/ERC20.sol\":9047:9066  _afterTokenTransfer */\n      tag_249\n        /* \"@openzeppelin/contracts/token/ERC20/ERC20.sol\":9047:9095  _afterTokenTransfer(address(0), account, amount) */\n      jump\t// in\n    tag_263:\n        /* \"@openzeppelin/contracts/token/ERC20/ERC20.sol\":8567:9102  function _mint(address account, uint256 amount) internal virtual {... */\n      pop\n      pop\n      jump\t// out\n        /* \"@openzeppelin/contracts/access/Ownable.sol\":2433:2620  function _transferOwnership(address newOwner) internal virtual {... */\n    tag_164:\n        /* \"@openzeppelin/contracts/access/Ownable.sol\":2506:2522  address oldOwner */\n      0x00\n        /* \"@openzeppelin/contracts/access/Ownable.sol\":2525:2531  _owner */\n      0x05\n      0x00\n      swap1\n      sload\n      swap1\n      0x0100\n      exp\n      swap1\n      div\n      0xffffffffffffffffffffffffffffffffffffffff\n      and\n        /* \"@openzeppelin/contracts/access/Ownable.sol\":2506:2531  address oldOwner = _owner */\n      swap1\n      pop\n        /* \"@openzeppelin/contracts/access/Ownable.sol\":2550:2558  newOwner */\n      dup2\n        /* \"@openzeppelin/contracts/access/Ownable.sol\":2541:2547  _owner */\n      0x05\n      0x00\n        /* \"@openzeppelin/contracts/access/Ownable.sol\":2541:2558  _owner = newOwner */\n      0x0100\n      exp\n      dup2\n      sload\n      dup2\n      0xffffffffffffffffffffffffffffffffffffffff\n      mul\n      not\n      and\n      swap1\n      dup4\n      0xffffffffffffffffffffffffffffffffffffffff\n      and\n      mul\n      or\n      swap1\n      sstore\n      pop\n        /* \"@openzeppelin/contracts/access/Ownable.sol\":2604:2612  newOwner */\n      dup2\n        /* \"@openzeppelin/contracts/access/Ownable.sol\":2573:2613  OwnershipTransferred(oldOwner, newOwner) */\n      0xffffffffffffffffffffffffffffffffffffffff\n      and\n        /* \"@openzeppelin/contracts/access/Ownable.sol\":2594:2602  oldOwner */\n      dup2\n        /* \"@openzeppelin/contracts/access/Ownable.sol\":2573:2613  OwnershipTransferred(oldOwner, newOwner) */\n      0xffffffffffffffffffffffffffffffffffffffff\n      and\n      0x8be0079c531659141344cd1fd0a4f28419497f9722a3daafe3b4186f6b6457e0\n      mload(0x40)\n      mload(0x40)\n      dup1\n      swap2\n      sub\n      swap1\n      log3\n        /* \"@openzeppelin/contracts/access/Ownable.sol\":2433:2620  function _transferOwnership(address newOwner) internal virtual {... */\n      pop\n      pop\n      jump\t// out\n        /* \"@openzeppelin/contracts/token/ERC20/ERC20.sol\":12180:12301  function _beforeTokenTransfer(... */\n    tag_243:\n      pop\n      pop\n      pop\n      jump\t// out\n        /* \"@openzeppelin/contracts/token/ERC20/ERC20.sol\":12889:13009  function _afterTokenTransfer(... */\n    tag_249:\n      pop\n      pop\n      pop\n      jump\t// out\n        /* \"#utility.yul\":7:146   */\n    tag_268:\n      0x00\n        /* \"#utility.yul\":91:97   */\n      dup2\n        /* \"#utility.yul\":78:98   */\n      calldataload\n        /* \"#utility.yul\":69:98   */\n      swap1\n      pop\n        /* \"#utility.yul\":107:140   */\n      tag_270\n        /* \"#utility.yul\":134:139   */\n      dup2\n        /* \"#utility.yul\":107:140   */\n      tag_271\n      jump\t// in\n    tag_270:\n        /* \"#utility.yul\":59:146   */\n      swap3\n      swap2\n      pop\n      pop\n      jump\t// out\n        /* \"#utility.yul\":152:291   */\n    tag_272:\n      0x00\n        /* \"#utility.yul\":236:242   */\n      dup2\n        /* \"#utility.yul\":223:243   */\n      calldataload\n        /* \"#utility.yul\":214:243   */\n      swap1\n      pop\n        /* \"#utility.yul\":252:285   */\n      tag_274\n        /* \"#utility.yul\":279:284   */\n      dup2\n        /* \"#utility.yul\":252:285   */\n      tag_275\n      jump\t// in\n    tag_274:\n        /* \"#utility.yul\":204:291   */\n      swap3\n      swap2\n      pop\n      pop\n      jump\t// out\n        /* \"#utility.yul\":297:440   */\n    tag_276:\n      0x00\n        /* \"#utility.yul\":385:391   */\n      dup2\n        /* \"#utility.yul\":379:392   */\n      mload\n        /* \"#utility.yul\":370:392   */\n      swap1\n      pop\n        /* \"#utility.yul\":401:434   */\n      tag_278\n        /* \"#utility.yul\":428:433   */\n      dup2\n        /* \"#utility.yul\":401:434   */\n      tag_275\n      jump\t// in\n    tag_278:\n        /* \"#utility.yul\":360:440   */\n      swap3\n      swap2\n      pop\n      pop\n      jump\t// out\n        /* \"#utility.yul\":446:708   */\n    tag_66:\n      0x00\n        /* \"#utility.yul\":554:556   */\n      0x20\n        /* \"#utility.yul\":542:551   */\n      dup3\n        /* \"#utility.yul\":533:540   */\n      dup5\n        /* \"#utility.yul\":529:552   */\n      sub\n        /* \"#utility.yul\":525:557   */\n      slt\n        /* \"#utility.yul\":522:524   */\n      iszero\n      tag_280\n      jumpi\n        /* \"#utility.yul\":570:571   */\n      0x00\n        /* \"#utility.yul\":567:568   */\n      dup1\n        /* \"#utility.yul\":560:572   */\n      revert\n        /* \"#utility.yul\":522:524   */\n    tag_280:\n        /* \"#utility.yul\":613:614   */\n      0x00\n        /* \"#utility.yul\":638:691   */\n      tag_281\n        /* \"#utility.yul\":683:690   */\n      dup5\n        /* \"#utility.yul\":674:680   */\n      dup3\n        /* \"#utility.yul\":663:672   */\n      dup6\n        /* \"#utility.yul\":659:681   */\n      add\n        /* \"#utility.yul\":638:691   */\n      tag_268\n      jump\t// in\n    tag_281:\n        /* \"#utility.yul\":628:691   */\n      swap2\n      pop\n        /* \"#utility.yul\":584:701   */\n      pop\n        /* \"#utility.yul\":512:708   */\n      swap3\n      swap2\n      pop\n      pop\n      jump\t// out\n        /* \"#utility.yul\":714:1121   */\n    tag_110:\n      0x00\n      dup1\n        /* \"#utility.yul\":839:841   */\n      0x40\n        /* \"#utility.yul\":827:836   */\n      dup4\n        /* \"#utility.yul\":818:825   */\n      dup6\n        /* \"#utility.yul\":814:837   */\n      sub\n        /* \"#utility.yul\":810:842   */\n      slt\n        /* \"#utility.yul\":807:809   */\n      iszero\n      tag_283\n      jumpi\n        /* \"#utility.yul\":855:856   */\n      0x00\n        /* \"#utility.yul\":852:853   */\n      dup1\n        /* \"#utility.yul\":845:857   */\n      revert\n        /* \"#utility.yul\":807:809   */\n    tag_283:\n        /* \"#utility.yul\":898:899   */\n      0x00\n        /* \"#utility.yul\":923:976   */\n      tag_284\n        /* \"#utility.yul\":968:975   */\n      dup6\n        /* \"#utility.yul\":959:965   */\n      dup3\n        /* \"#utility.yul\":948:957   */\n      dup7\n        /* \"#utility.yul\":944:966   */\n      add\n        /* \"#utility.yul\":923:976   */\n      tag_268\n      jump\t// in\n    tag_284:\n        /* \"#utility.yul\":913:976   */\n      swap3\n      pop\n        /* \"#utility.yul\":869:986   */\n      pop\n        /* \"#utility.yul\":1025:1027   */\n      0x20\n        /* \"#utility.yul\":1051:1104   */\n      tag_285\n        /* \"#utility.yul\":1096:1103   */\n      dup6\n        /* \"#utility.yul\":1087:1093   */\n      dup3\n        /* \"#utility.yul\":1076:1085   */\n      dup7\n        /* \"#utility.yul\":1072:1094   */\n      add\n        /* \"#utility.yul\":1051:1104   */\n      tag_268\n      jump\t// in\n    tag_285:\n        /* \"#utility.yul\":1041:1104   */\n      swap2\n      pop\n        /* \"#utility.yul\":996:1114   */\n      pop\n        /* \"#utility.yul\":797:1121   */\n      swap3\n      pop\n      swap3\n      swap1\n      pop\n      jump\t// out\n        /* \"#utility.yul\":1127:1679   */\n    tag_46:\n      0x00\n      dup1\n      0x00\n        /* \"#utility.yul\":1269:1271   */\n      0x60\n        /* \"#utility.yul\":1257:1266   */\n      dup5\n        /* \"#utility.yul\":1248:1255   */\n      dup7\n        /* \"#utility.yul\":1244:1267   */\n      sub\n        /* \"#utility.yul\":1240:1272   */\n      slt\n        /* \"#utility.yul\":1237:1239   */\n      iszero\n      tag_287\n      jumpi\n        /* \"#utility.yul\":1285:1286   */\n      0x00\n        /* \"#utility.yul\":1282:1283   */\n      dup1\n        /* \"#utility.yul\":1275:1287   */\n      revert\n        /* \"#utility.yul\":1237:1239   */\n    tag_287:\n        /* \"#utility.yul\":1328:1329   */\n      0x00\n        /* \"#utility.yul\":1353:1406   */\n      tag_288\n        /* \"#utility.yul\":1398:1405   */\n      dup7\n        /* \"#utility.yul\":1389:1395   */\n      dup3\n        /* \"#utility.yul\":1378:1387   */\n      dup8\n        /* \"#utility.yul\":1374:1396   */\n      add\n        /* \"#utility.yul\":1353:1406   */\n      tag_268\n      jump\t// in\n    tag_288:\n        /* \"#utility.yul\":1343:1406   */\n      swap4\n      pop\n        /* \"#utility.yul\":1299:1416   */\n      pop\n        /* \"#utility.yul\":1455:1457   */\n      0x20\n        /* \"#utility.yul\":1481:1534   */\n      tag_289\n        /* \"#utility.yul\":1526:1533   */\n      dup7\n        /* \"#utility.yul\":1517:1523   */\n      dup3\n        /* \"#utility.yul\":1506:1515   */\n      dup8\n        /* \"#utility.yul\":1502:1524   */\n      add\n        /* \"#utility.yul\":1481:1534   */\n      tag_268\n      jump\t// in\n    tag_289:\n        /* \"#utility.yul\":1471:1534   */\n      swap3\n      pop\n        /* \"#utility.yul\":1426:1544   */\n      pop\n        /* \"#utility.yul\":1583:1585   */\n      0x40\n        /* \"#utility.yul\":1609:1662   */\n      tag_290\n        /* \"#utility.yul\":1654:1661   */\n      dup7\n        /* \"#utility.yul\":1645:1651   */\n      dup3\n        /* \"#utility.yul\":1634:1643   */\n      dup8\n        /* \"#utility.yul\":1630:1652   */\n      add\n        /* \"#utility.yul\":1609:1662   */\n      tag_272\n      jump\t// in\n    tag_290:\n        /* \"#utility.yul\":1599:1662   */\n      swap2\n      pop\n        /* \"#utility.yul\":1554:1672   */\n      pop\n        /* \"#utility.yul\":1227:1679   */\n      swap3\n      pop\n      swap3\n      pop\n      swap3\n      jump\t// out\n        /* \"#utility.yul\":1685:2092   */\n    tag_34:\n      0x00\n      dup1\n        /* \"#utility.yul\":1810:1812   */\n      0x40\n        /* \"#utility.yul\":1798:1807   */\n      dup4\n        /* \"#utility.yul\":1789:1796   */\n      dup6\n        /* \"#utility.yul\":1785:1808   */\n      sub\n        /* \"#utility.yul\":1781:1813   */\n      slt\n        /* \"#utility.yul\":1778:1780   */\n      iszero\n      tag_292\n      jumpi\n        /* \"#utility.yul\":1826:1827   */\n      0x00\n        /* \"#utility.yul\":1823:1824   */\n      dup1\n        /* \"#utility.yul\":1816:1828   */\n      revert\n        /* \"#utility.yul\":1778:1780   */\n    tag_292:\n        /* \"#utility.yul\":1869:1870   */\n      0x00\n        /* \"#utility.yul\":1894:1947   */\n      tag_293\n        /* \"#utility.yul\":1939:1946   */\n      dup6\n        /* \"#utility.yul\":1930:1936   */\n      dup3\n        /* \"#utility.yul\":1919:1928   */\n      dup7\n        /* \"#utility.yul\":1915:1937   */\n      add\n        /* \"#utility.yul\":1894:1947   */\n      tag_268\n      jump\t// in\n    tag_293:\n        /* \"#utility.yul\":1884:1947   */\n      swap3\n      pop\n        /* \"#utility.yul\":1840:1957   */\n      pop\n        /* \"#utility.yul\":1996:1998   */\n      0x20\n        /* \"#utility.yul\":2022:2075   */\n      tag_294\n        /* \"#utility.yul\":2067:2074   */\n      dup6\n        /* \"#utility.yul\":2058:2064   */\n      dup3\n        /* \"#utility.yul\":2047:2056   */\n      dup7\n        /* \"#utility.yul\":2043:2065   */\n      add\n        /* \"#utility.yul\":2022:2075   */\n      tag_272\n      jump\t// in\n    tag_294:\n        /* \"#utility.yul\":2012:2075   */\n      swap2\n      pop\n        /* \"#utility.yul\":1967:2085   */\n      pop\n        /* \"#utility.yul\":1768:2092   */\n      swap3\n      pop\n      swap3\n      swap1\n      pop\n      jump\t// out\n        /* \"#utility.yul\":2098:2382   */\n    tag_175:\n      0x00\n        /* \"#utility.yul\":2217:2219   */\n      0x20\n        /* \"#utility.yul\":2205:2214   */\n      dup3\n        /* \"#utility.yul\":2196:2203   */\n      dup5\n        /* \"#utility.yul\":2192:2215   */\n      sub\n        /* \"#utility.yul\":2188:2220   */\n      slt\n        /* \"#utility.yul\":2185:2187   */\n      iszero\n      tag_296\n      jumpi\n        /* \"#utility.yul\":2233:2234   */\n      0x00\n        /* \"#utility.yul\":2230:2231   */\n      dup1\n        /* \"#utility.yul\":2223:2235   */\n      revert\n        /* \"#utility.yul\":2185:2187   */\n    tag_296:\n        /* \"#utility.yul\":2276:2277   */\n      0x00\n        /* \"#utility.yul\":2301:2365   */\n      tag_297\n        /* \"#utility.yul\":2357:2364   */\n      dup5\n        /* \"#utility.yul\":2348:2354   */\n      dup3\n        /* \"#utility.yul\":2337:2346   */\n      dup6\n        /* \"#utility.yul\":2333:2355   */\n      add\n        /* \"#utility.yul\":2301:2365   */\n      tag_276\n      jump\t// in\n    tag_297:\n        /* \"#utility.yul\":2291:2365   */\n      swap2\n      pop\n        /* \"#utility.yul\":2247:2375   */\n      pop\n        /* \"#utility.yul\":2175:2382   */\n      swap3\n      swap2\n      pop\n      pop\n      jump\t// out\n        /* \"#utility.yul\":2388:2506   */\n    tag_298:\n        /* \"#utility.yul\":2475:2499   */\n      tag_300\n        /* \"#utility.yul\":2493:2498   */\n      dup2\n        /* \"#utility.yul\":2475:2499   */\n      tag_301\n      jump\t// in\n    tag_300:\n        /* \"#utility.yul\":2470:2473   */\n      dup3\n        /* \"#utility.yul\":2463:2500   */\n      mstore\n        /* \"#utility.yul\":2453:2506   */\n      pop\n      pop\n      jump\t// out\n        /* \"#utility.yul\":2512:2621   */\n    tag_302:\n        /* \"#utility.yul\":2593:2614   */\n      tag_304\n        /* \"#utility.yul\":2608:2613   */\n      dup2\n        /* \"#utility.yul\":2593:2614   */\n      tag_305\n      jump\t// in\n    tag_304:\n        /* \"#utility.yul\":2588:2591   */\n      dup3\n        /* \"#utility.yul\":2581:2615   */\n      mstore\n        /* \"#utility.yul\":2571:2621   */\n      pop\n      pop\n      jump\t// out\n        /* \"#utility.yul\":2627:2991   */\n    tag_306:\n      0x00\n        /* \"#utility.yul\":2743:2782   */\n      tag_308\n        /* \"#utility.yul\":2776:2781   */\n      dup3\n        /* \"#utility.yul\":2743:2782   */\n      tag_309\n      jump\t// in\n    tag_308:\n        /* \"#utility.yul\":2798:2869   */\n      tag_310\n        /* \"#utility.yul\":2862:2868   */\n      dup2\n        /* \"#utility.yul\":2857:2860   */\n      dup6\n        /* \"#utility.yul\":2798:2869   */\n      tag_311\n      jump\t// in\n    tag_310:\n        /* \"#utility.yul\":2791:2869   */\n      swap4\n      pop\n        /* \"#utility.yul\":2878:2930   */\n      tag_312\n        /* \"#utility.yul\":2923:2929   */\n      dup2\n        /* \"#utility.yul\":2918:2921   */\n      dup6\n        /* \"#utility.yul\":2911:2915   */\n      0x20\n        /* \"#utility.yul\":2904:2909   */\n      dup7\n        /* \"#utility.yul\":2900:2916   */\n      add\n        /* \"#utility.yul\":2878:2930   */\n      tag_313\n      jump\t// in\n    tag_312:\n        /* \"#utility.yul\":2955:2984   */\n      tag_314\n        /* \"#utility.yul\":2977:2983   */\n      dup2\n        /* \"#utility.yul\":2955:2984   */\n      tag_315\n      jump\t// in\n    tag_314:\n        /* \"#utility.yul\":2950:2953   */\n      dup5\n        /* \"#utility.yul\":2946:2985   */\n      add\n        /* \"#utility.yul\":2939:2985   */\n      swap2\n      pop\n        /* \"#utility.yul\":2719:2991   */\n      pop\n      swap3\n      swap2\n      pop\n      pop\n      jump\t// out\n        /* \"#utility.yul\":2997:3364   */\n    tag_316:\n      0x00\n        /* \"#utility.yul\":3160:3227   */\n      tag_318\n        /* \"#utility.yul\":3224:3226   */\n      0x23\n        /* \"#utility.yul\":3219:3222   */\n      dup4\n        /* \"#utility.yul\":3160:3227   */\n      tag_311\n      jump\t// in\n    tag_318:\n        /* \"#utility.yul\":3153:3227   */\n      swap2\n      pop\n        /* \"#utility.yul\":3257:3291   */\n      0x45524332303a207472616e7366657220746f20746865207a65726f2061646472\n        /* \"#utility.yul\":3253:3254   */\n      0x00\n        /* \"#utility.yul\":3248:3251   */\n      dup4\n        /* \"#utility.yul\":3244:3255   */\n      add\n        /* \"#utility.yul\":3237:3292   */\n      mstore\n        /* \"#utility.yul\":3323:3328   */\n      0x6573730000000000000000000000000000000000000000000000000000000000\n        /* \"#utility.yul\":3318:3320   */\n      0x20\n        /* \"#utility.yul\":3313:3316   */\n      dup4\n        /* \"#utility.yul\":3309:3321   */\n      add\n        /* \"#utility.yul\":3302:3329   */\n      mstore\n        /* \"#utility.yul\":3355:3357   */\n      0x40\n        /* \"#utility.yul\":3350:3353   */\n      dup3\n        /* \"#utility.yul\":3346:3358   */\n      add\n        /* \"#utility.yul\":3339:3358   */\n      swap1\n      pop\n        /* \"#utility.yul\":3143:3364   */\n      swap2\n      swap1\n      pop\n      jump\t// out\n        /* \"#utility.yul\":3370:3740   */\n    tag_319:\n      0x00\n        /* \"#utility.yul\":3533:3600   */\n      tag_321\n        /* \"#utility.yul\":3597:3599   */\n      0x26\n        /* \"#utility.yul\":3592:3595   */\n      dup4\n        /* \"#utility.yul\":3533:3600   */\n      tag_311\n      jump\t// in\n    tag_321:\n        /* \"#utility.yul\":3526:3600   */\n      swap2\n      pop\n        /* \"#utility.yul\":3630:3664   */\n      0x4f776e61626c653a206e6577206f776e657220697320746865207a65726f2061\n        /* \"#utility.yul\":3626:3627   */\n      0x00\n        /* \"#utility.yul\":3621:3624   */\n      dup4\n        /* \"#utility.yul\":3617:3628   */\n      add\n        /* \"#utility.yul\":3610:3665   */\n      mstore\n        /* \"#utility.yul\":3696:3704   */\n      0x6464726573730000000000000000000000000000000000000000000000000000\n        /* \"#utility.yul\":3691:3693   */\n      0x20\n        /* \"#utility.yul\":3686:3689   */\n      dup4\n        /* \"#utility.yul\":3682:3694   */\n      add\n        /* \"#utility.yul\":3675:3705   */\n      mstore\n        /* \"#utility.yul\":3731:3733   */\n      0x40\n        /* \"#utility.yul\":3726:3729   */\n      dup3\n        /* \"#utility.yul\":3722:3734   */\n      add\n        /* \"#utility.yul\":3715:3734   */\n      swap1\n      pop\n        /* \"#utility.yul\":3516:3740   */\n      swap2\n      swap1\n      pop\n      jump\t// out\n        /* \"#utility.yul\":3746:4112   */\n    tag_322:\n      0x00\n        /* \"#utility.yul\":3909:3976   */\n      tag_324\n        /* \"#utility.yul\":3973:3975   */\n      0x22\n        /* \"#utility.yul\":3968:3971   */\n      dup4\n        /* \"#utility.yul\":3909:3976   */\n      tag_311\n      jump\t// in\n    tag_324:\n        /* \"#utility.yul\":3902:3976   */\n      swap2\n      pop\n        /* \"#utility.yul\":4006:4040   */\n      0x45524332303a20617070726f766520746f20746865207a65726f206164647265\n        /* \"#utility.yul\":4002:4003   */\n      0x00\n        /* \"#utility.yul\":3997:4000   */\n      dup4\n        /* \"#utility.yul\":3993:4004   */\n      add\n        /* \"#utility.yul\":3986:4041   */\n      mstore\n        /* \"#utility.yul\":4072:4076   */\n      0x7373000000000000000000000000000000000000000000000000000000000000\n        /* \"#utility.yul\":4067:4069   */\n      0x20\n        /* \"#utility.yul\":4062:4065   */\n      dup4\n        /* \"#utility.yul\":4058:4070   */\n      add\n        /* \"#utility.yul\":4051:4077   */\n      mstore\n        /* \"#utility.yul\":4103:4105   */\n      0x40\n        /* \"#utility.yul\":4098:4101   */\n      dup3\n        /* \"#utility.yul\":4094:4106   */\n      add\n        /* \"#utility.yul\":4087:4106   */\n      swap1\n      pop\n        /* \"#utility.yul\":3892:4112   */\n      swap2\n      swap1\n      pop\n      jump\t// out\n        /* \"#utility.yul\":4118:4445   */\n    tag_325:\n      0x00\n        /* \"#utility.yul\":4281:4348   */\n      tag_327\n        /* \"#utility.yul\":4345:4347   */\n      0x1d\n        /* \"#utility.yul\":4340:4343   */\n      dup4\n        /* \"#utility.yul\":4281:4348   */\n      tag_311\n      jump\t// in\n    tag_327:\n        /* \"#utility.yul\":4274:4348   */\n      swap2\n      pop\n        /* \"#utility.yul\":4378:4409   */\n      0x45524332303a20696e73756666696369656e7420616c6c6f77616e6365000000\n        /* \"#utility.yul\":4374:4375   */\n      0x00\n        /* \"#utility.yul\":4369:4372   */\n      dup4\n        /* \"#utility.yul\":4365:4376   */\n      add\n        /* \"#utility.yul\":4358:4410   */\n      mstore\n        /* \"#utility.yul\":4436:4438   */\n      0x20\n        /* \"#utility.yul\":4431:4434   */\n      dup3\n        /* \"#utility.yul\":4427:4439   */\n      add\n        /* \"#utility.yul\":4420:4439   */\n      swap1\n      pop\n        /* \"#utility.yul\":4264:4445   */\n      swap2\n      swap1\n      pop\n      jump\t// out\n        /* \"#utility.yul\":4451:4821   */\n    tag_328:\n      0x00\n        /* \"#utility.yul\":4614:4681   */\n      tag_330\n        /* \"#utility.yul\":4678:4680   */\n      0x26\n        /* \"#utility.yul\":4673:4676   */\n      dup4\n        /* \"#utility.yul\":4614:4681   */\n      tag_311\n      jump\t// in\n    tag_330:\n        /* \"#utility.yul\":4607:4681   */\n      swap2\n      pop\n        /* \"#utility.yul\":4711:4745   */\n      0x45524332303a207472616e7366657220616d6f756e7420657863656564732062\n        /* \"#utility.yul\":4707:4708   */\n      0x00\n        /* \"#utility.yul\":4702:4705   */\n      dup4\n        /* \"#utility.yul\":4698:4709   */\n      add\n        /* \"#utility.yul\":4691:4746   */\n      mstore\n        /* \"#utility.yul\":4777:4785   */\n      0x616c616e63650000000000000000000000000000000000000000000000000000\n        /* \"#utility.yul\":4772:4774   */\n      0x20\n        /* \"#utility.yul\":4767:4770   */\n      dup4\n        /* \"#utility.yul\":4763:4775   */\n      add\n        /* \"#utility.yul\":4756:4786   */\n      mstore\n        /* \"#utility.yul\":4812:4814   */\n      0x40\n        /* \"#utility.yul\":4807:4810   */\n      dup3\n        /* \"#utility.yul\":4803:4815   */\n      add\n        /* \"#utility.yul\":4796:4815   */\n      swap1\n      pop\n        /* \"#utility.yul\":4597:4821   */\n      swap2\n      swap1\n      pop\n      jump\t// out\n        /* \"#utility.yul\":4827:5199   */\n    tag_331:\n      0x00\n        /* \"#utility.yul\":4990:5057   */\n      tag_333\n        /* \"#utility.yul\":5054:5056   */\n      0x28\n        /* \"#utility.yul\":5049:5052   */\n      dup4\n        /* \"#utility.yul\":4990:5057   */\n      tag_311\n      jump\t// in\n    tag_333:\n        /* \"#utility.yul\":4983:5057   */\n      swap2\n      pop\n        /* \"#utility.yul\":5087:5121   */\n      0x4465706f73697420746f6b656e73206265666f726520636865636b696e672066\n        /* \"#utility.yul\":5083:5084   */\n      0x00\n        /* \"#utility.yul\":5078:5081   */\n      dup4\n        /* \"#utility.yul\":5074:5085   */\n      add\n        /* \"#utility.yul\":5067:5122   */\n      mstore\n        /* \"#utility.yul\":5153:5163   */\n      0x6f7220736c61622e000000000000000000000000000000000000000000000000\n        /* \"#utility.yul\":5148:5150   */\n      0x20\n        /* \"#utility.yul\":5143:5146   */\n      dup4\n        /* \"#utility.yul\":5139:5151   */\n      add\n        /* \"#utility.yul\":5132:5164   */\n      mstore\n        /* \"#utility.yul\":5190:5192   */\n      0x40\n        /* \"#utility.yul\":5185:5188   */\n      dup3\n        /* \"#utility.yul\":5181:5193   */\n      add\n        /* \"#utility.yul\":5174:5193   */\n      swap1\n      pop\n        /* \"#utility.yul\":4973:5199   */\n      swap2\n      swap1\n      pop\n      jump\t// out\n        /* \"#utility.yul\":5205:5535   */\n    tag_334:\n      0x00\n        /* \"#utility.yul\":5368:5435   */\n      tag_336\n        /* \"#utility.yul\":5432:5434   */\n      0x20\n        /* \"#utility.yul\":5427:5430   */\n      dup4\n        /* \"#utility.yul\":5368:5435   */\n      tag_311\n      jump\t// in\n    tag_336:\n        /* \"#utility.yul\":5361:5435   */\n      swap2\n      pop\n        /* \"#utility.yul\":5465:5499   */\n      0x4f776e61626c653a2063616c6c6572206973206e6f7420746865206f776e6572\n        /* \"#utility.yul\":5461:5462   */\n      0x00\n        /* \"#utility.yul\":5456:5459   */\n      dup4\n        /* \"#utility.yul\":5452:5463   */\n      add\n        /* \"#utility.yul\":5445:5500   */\n      mstore\n        /* \"#utility.yul\":5526:5528   */\n      0x20\n        /* \"#utility.yul\":5521:5524   */\n      dup3\n        /* \"#utility.yul\":5517:5529   */\n      add\n        /* \"#utility.yul\":5510:5529   */\n      swap1\n      pop\n        /* \"#utility.yul\":5351:5535   */\n      swap2\n      swap1\n      pop\n      jump\t// out\n        /* \"#utility.yul\":5541:5910   */\n    tag_337:\n      0x00\n        /* \"#utility.yul\":5704:5771   */\n      tag_339\n        /* \"#utility.yul\":5768:5770   */\n      0x25\n        /* \"#utility.yul\":5763:5766   */\n      dup4\n        /* \"#utility.yul\":5704:5771   */\n      tag_311\n      jump\t// in\n    tag_339:\n        /* \"#utility.yul\":5697:5771   */\n      swap2\n      pop\n        /* \"#utility.yul\":5801:5835   */\n      0x45524332303a207472616e736665722066726f6d20746865207a65726f206164\n        /* \"#utility.yul\":5797:5798   */\n      0x00\n        /* \"#utility.yul\":5792:5795   */\n      dup4\n        /* \"#utility.yul\":5788:5799   */\n      add\n        /* \"#utility.yul\":5781:5836   */\n      mstore\n        /* \"#utility.yul\":5867:5874   */\n      0x6472657373000000000000000000000000000000000000000000000000000000\n        /* \"#utility.yul\":5862:5864   */\n      0x20\n        /* \"#utility.yul\":5857:5860   */\n      dup4\n        /* \"#utility.yul\":5853:5865   */\n      add\n        /* \"#utility.yul\":5846:5875   */\n      mstore\n        /* \"#utility.yul\":5901:5903   */\n      0x40\n        /* \"#utility.yul\":5896:5899   */\n      dup3\n        /* \"#utility.yul\":5892:5904   */\n      add\n        /* \"#utility.yul\":5885:5904   */\n      swap1\n      pop\n        /* \"#utility.yul\":5687:5910   */\n      swap2\n      swap1\n      pop\n      jump\t// out\n        /* \"#utility.yul\":5916:6284   */\n    tag_340:\n      0x00\n        /* \"#utility.yul\":6079:6146   */\n      tag_342\n        /* \"#utility.yul\":6143:6145   */\n      0x24\n        /* \"#utility.yul\":6138:6141   */\n      dup4\n        /* \"#utility.yul\":6079:6146   */\n      tag_311\n      jump\t// in\n    tag_342:\n        /* \"#utility.yul\":6072:6146   */\n      swap2\n      pop\n        /* \"#utility.yul\":6176:6210   */\n      0x45524332303a20617070726f76652066726f6d20746865207a65726f20616464\n        /* \"#utility.yul\":6172:6173   */\n      0x00\n        /* \"#utility.yul\":6167:6170   */\n      dup4\n        /* \"#utility.yul\":6163:6174   */\n      add\n        /* \"#utility.yul\":6156:6211   */\n      mstore\n        /* \"#utility.yul\":6242:6248   */\n      0x7265737300000000000000000000000000000000000000000000000000000000\n        /* \"#utility.yul\":6237:6239   */\n      0x20\n        /* \"#utility.yul\":6232:6235   */\n      dup4\n        /* \"#utility.yul\":6228:6240   */\n      add\n        /* \"#utility.yul\":6221:6249   */\n      mstore\n        /* \"#utility.yul\":6275:6277   */\n      0x40\n        /* \"#utility.yul\":6270:6273   */\n      dup3\n        /* \"#utility.yul\":6266:6278   */\n      add\n        /* \"#utility.yul\":6259:6278   */\n      swap1\n      pop\n        /* \"#utility.yul\":6062:6284   */\n      swap2\n      swap1\n      pop\n      jump\t// out\n        /* \"#utility.yul\":6290:6659   */\n    tag_343:\n      0x00\n        /* \"#utility.yul\":6453:6520   */\n      tag_345\n        /* \"#utility.yul\":6517:6519   */\n      0x25\n        /* \"#utility.yul\":6512:6515   */\n      dup4\n        /* \"#utility.yul\":6453:6520   */\n      tag_311\n      jump\t// in\n    tag_345:\n        /* \"#utility.yul\":6446:6520   */\n      swap2\n      pop\n        /* \"#utility.yul\":6550:6584   */\n      0x45524332303a2064656372656173656420616c6c6f77616e63652062656c6f77\n        /* \"#utility.yul\":6546:6547   */\n      0x00\n        /* \"#utility.yul\":6541:6544   */\n      dup4\n        /* \"#utility.yul\":6537:6548   */\n      add\n        /* \"#utility.yul\":6530:6585   */\n      mstore\n        /* \"#utility.yul\":6616:6623   */\n      0x207a65726f000000000000000000000000000000000000000000000000000000\n        /* \"#utility.yul\":6611:6613   */\n      0x20\n        /* \"#utility.yul\":6606:6609   */\n      dup4\n        /* \"#utility.yul\":6602:6614   */\n      add\n        /* \"#utility.yul\":6595:6624   */\n      mstore\n        /* \"#utility.yul\":6650:6652   */\n      0x40\n        /* \"#utility.yul\":6645:6648   */\n      dup3\n        /* \"#utility.yul\":6641:6653   */\n      add\n        /* \"#utility.yul\":6634:6653   */\n      swap1\n      pop\n        /* \"#utility.yul\":6436:6659   */\n      swap2\n      swap1\n      pop\n      jump\t// out\n        /* \"#utility.yul\":6665:6994   */\n    tag_346:\n      0x00\n        /* \"#utility.yul\":6828:6895   */\n      tag_348\n        /* \"#utility.yul\":6892:6894   */\n      0x1f\n        /* \"#utility.yul\":6887:6890   */\n      dup4\n        /* \"#utility.yul\":6828:6895   */\n      tag_311\n      jump\t// in\n    tag_348:\n        /* \"#utility.yul\":6821:6895   */\n      swap2\n      pop\n        /* \"#utility.yul\":6925:6958   */\n      0x45524332303a206d696e7420746f20746865207a65726f206164647265737300\n        /* \"#utility.yul\":6921:6922   */\n      0x00\n        /* \"#utility.yul\":6916:6919   */\n      dup4\n        /* \"#utility.yul\":6912:6923   */\n      add\n        /* \"#utility.yul\":6905:6959   */\n      mstore\n        /* \"#utility.yul\":6985:6987   */\n      0x20\n        /* \"#utility.yul\":6980:6983   */\n      dup3\n        /* \"#utility.yul\":6976:6988   */\n      add\n        /* \"#utility.yul\":6969:6988   */\n      swap1\n      pop\n        /* \"#utility.yul\":6811:6994   */\n      swap2\n      swap1\n      pop\n      jump\t// out\n        /* \"#utility.yul\":7000:7118   */\n    tag_349:\n        /* \"#utility.yul\":7087:7111   */\n      tag_351\n        /* \"#utility.yul\":7105:7110   */\n      dup2\n        /* \"#utility.yul\":7087:7111   */\n      tag_352\n      jump\t// in\n    tag_351:\n        /* \"#utility.yul\":7082:7085   */\n      dup3\n        /* \"#utility.yul\":7075:7112   */\n      mstore\n        /* \"#utility.yul\":7065:7118   */\n      pop\n      pop\n      jump\t// out\n        /* \"#utility.yul\":7124:7236   */\n    tag_353:\n        /* \"#utility.yul\":7207:7229   */\n      tag_355\n        /* \"#utility.yul\":7223:7228   */\n      dup2\n        /* \"#utility.yul\":7207:7229   */\n      tag_356\n      jump\t// in\n    tag_355:\n        /* \"#utility.yul\":7202:7205   */\n      dup3\n        /* \"#utility.yul\":7195:7230   */\n      mstore\n        /* \"#utility.yul\":7185:7236   */\n      pop\n      pop\n      jump\t// out\n        /* \"#utility.yul\":7242:7464   */\n    tag_84:\n      0x00\n        /* \"#utility.yul\":7373:7375   */\n      0x20\n        /* \"#utility.yul\":7362:7371   */\n      dup3\n        /* \"#utility.yul\":7358:7376   */\n      add\n        /* \"#utility.yul\":7350:7376   */\n      swap1\n      pop\n        /* \"#utility.yul\":7386:7457   */\n      tag_358\n        /* \"#utility.yul\":7454:7455   */\n      0x00\n        /* \"#utility.yul\":7443:7452   */\n      dup4\n        /* \"#utility.yul\":7439:7456   */\n      add\n        /* \"#utility.yul\":7430:7436   */\n      dup5\n        /* \"#utility.yul\":7386:7457   */\n      tag_298\n      jump\t// in\n    tag_358:\n        /* \"#utility.yul\":7340:7464   */\n      swap3\n      swap2\n      pop\n      pop\n      jump\t// out\n        /* \"#utility.yul\":7470:7680   */\n    tag_37:\n      0x00\n        /* \"#utility.yul\":7595:7597   */\n      0x20\n        /* \"#utility.yul\":7584:7593   */\n      dup3\n        /* \"#utility.yul\":7580:7598   */\n      add\n        /* \"#utility.yul\":7572:7598   */\n      swap1\n      pop\n        /* \"#utility.yul\":7608:7673   */\n      tag_360\n        /* \"#utility.yul\":7670:7671   */\n      0x00\n        /* \"#utility.yul\":7659:7668   */\n      dup4\n        /* \"#utility.yul\":7655:7672   */\n      add\n        /* \"#utility.yul\":7646:7652   */\n      dup5\n        /* \"#utility.yul\":7608:7673   */\n      tag_302\n      jump\t// in\n    tag_360:\n        /* \"#utility.yul\":7562:7680   */\n      swap3\n      swap2\n      pop\n      pop\n      jump\t// out\n        /* \"#utility.yul\":7686:8116   */\n    tag_122:\n      0x00\n        /* \"#utility.yul\":7867:7869   */\n      0x60\n        /* \"#utility.yul\":7856:7865   */\n      dup3\n        /* \"#utility.yul\":7852:7870   */\n      add\n        /* \"#utility.yul\":7844:7870   */\n      swap1\n      pop\n        /* \"#utility.yul\":7880:7945   */\n      tag_362\n        /* \"#utility.yul\":7942:7943   */\n      0x00\n        /* \"#utility.yul\":7931:7940   */\n      dup4\n        /* \"#utility.yul\":7927:7944   */\n      add\n        /* \"#utility.yul\":7918:7924   */\n      dup7\n        /* \"#utility.yul\":7880:7945   */\n      tag_302\n      jump\t// in\n    tag_362:\n        /* \"#utility.yul\":7955:8027   */\n      tag_363\n        /* \"#utility.yul\":8023:8025   */\n      0x20\n        /* \"#utility.yul\":8012:8021   */\n      dup4\n        /* \"#utility.yul\":8008:8026   */\n      add\n        /* \"#utility.yul\":7999:8005   */\n      dup6\n        /* \"#utility.yul\":7955:8027   */\n      tag_349\n      jump\t// in\n    tag_363:\n        /* \"#utility.yul\":8037:8109   */\n      tag_364\n        /* \"#utility.yul\":8105:8107   */\n      0x40\n        /* \"#utility.yul\":8094:8103   */\n      dup4\n        /* \"#utility.yul\":8090:8108   */\n      add\n        /* \"#utility.yul\":8081:8087   */\n      dup5\n        /* \"#utility.yul\":8037:8109   */\n      tag_349\n      jump\t// in\n    tag_364:\n        /* \"#utility.yul\":7834:8116   */\n      swap5\n      swap4\n      pop\n      pop\n      pop\n      pop\n      jump\t// out\n        /* \"#utility.yul\":8122:8435   */\n    tag_30:\n      0x00\n        /* \"#utility.yul\":8273:8275   */\n      0x20\n        /* \"#utility.yul\":8262:8271   */\n      dup3\n        /* \"#utility.yul\":8258:8276   */\n      add\n        /* \"#utility.yul\":8250:8276   */\n      swap1\n      pop\n        /* \"#utility.yul\":8322:8331   */\n      dup2\n        /* \"#utility.yul\":8316:8320   */\n      dup2\n        /* \"#utility.yul\":8312:8332   */\n      sub\n        /* \"#utility.yul\":8308:8309   */\n      0x00\n        /* \"#utility.yul\":8297:8306   */\n      dup4\n        /* \"#utility.yul\":8293:8310   */\n      add\n        /* \"#utility.yul\":8286:8333   */\n      mstore\n        /* \"#utility.yul\":8350:8428   */\n      tag_366\n        /* \"#utility.yul\":8423:8427   */\n      dup2\n        /* \"#utility.yul\":8414:8420   */\n      dup5\n        /* \"#utility.yul\":8350:8428   */\n      tag_306\n      jump\t// in\n    tag_366:\n        /* \"#utility.yul\":8342:8428   */\n      swap1\n      pop\n        /* \"#utility.yul\":8240:8435   */\n      swap3\n      swap2\n      pop\n      pop\n      jump\t// out\n        /* \"#utility.yul\":8441:8860   */\n    tag_241:\n      0x00\n        /* \"#utility.yul\":8645:8647   */\n      0x20\n        /* \"#utility.yul\":8634:8643   */\n      dup3\n        /* \"#utility.yul\":8630:8648   */\n      add\n        /* \"#utility.yul\":8622:8648   */\n      swap1\n      pop\n        /* \"#utility.yul\":8694:8703   */\n      dup2\n        /* \"#utility.yul\":8688:8692   */\n      dup2\n        /* \"#utility.yul\":8684:8704   */\n      sub\n        /* \"#utility.yul\":8680:8681   */\n      0x00\n        /* \"#utility.yul\":8669:8678   */\n      dup4\n        /* \"#utility.yul\":8665:8682   */\n      add\n        /* \"#utility.yul\":8658:8705   */\n      mstore\n        /* \"#utility.yul\":8722:8853   */\n      tag_368\n        /* \"#utility.yul\":8848:8852   */\n      dup2\n        /* \"#utility.yul\":8722:8853   */\n      tag_316\n      jump\t// in\n    tag_368:\n        /* \"#utility.yul\":8714:8853   */\n      swap1\n      pop\n        /* \"#utility.yul\":8612:8860   */\n      swap2\n      swap1\n      pop\n      jump\t// out\n        /* \"#utility.yul\":8866:9285   */\n    tag_217:\n      0x00\n        /* \"#utility.yul\":9070:9072   */\n      0x20\n        /* \"#utility.yul\":9059:9068   */\n      dup3\n        /* \"#utility.yul\":9055:9073   */\n      add\n        /* \"#utility.yul\":9047:9073   */\n      swap1\n      pop\n        /* \"#utility.yul\":9119:9128   */\n      dup2\n        /* \"#utility.yul\":9113:9117   */\n      dup2\n        /* \"#utility.yul\":9109:9129   */\n      sub\n        /* \"#utility.yul\":9105:9106   */\n      0x00\n        /* \"#utility.yul\":9094:9103   */\n      dup4\n        /* \"#utility.yul\":9090:9107   */\n      add\n        /* \"#utility.yul\":9083:9130   */\n      mstore\n        /* \"#utility.yul\":9147:9278   */\n      tag_370\n        /* \"#utility.yul\":9273:9277   */\n      dup2\n        /* \"#utility.yul\":9147:9278   */\n      tag_319\n      jump\t// in\n    tag_370:\n        /* \"#utility.yul\":9139:9278   */\n      swap1\n      pop\n        /* \"#utility.yul\":9037:9285   */\n      swap2\n      swap1\n      pop\n      jump\t// out\n        /* \"#utility.yul\":9291:9710   */\n    tag_226:\n      0x00\n        /* \"#utility.yul\":9495:9497   */\n      0x20\n        /* \"#utility.yul\":9484:9493   */\n      dup3\n        /* \"#utility.yul\":9480:9498   */\n      add\n        /* \"#utility.yul\":9472:9498   */\n      swap1\n      pop\n        /* \"#utility.yul\":9544:9553   */\n      dup2\n        /* \"#utility.yul\":9538:9542   */\n      dup2\n        /* \"#utility.yul\":9534:9554   */\n      sub\n        /* \"#utility.yul\":9530:9531   */\n      0x00\n        /* \"#utility.yul\":9519:9528   */\n      dup4\n        /* \"#utility.yul\":9515:9532   */\n      add\n        /* \"#utility.yul\":9508:9555   */\n      mstore\n        /* \"#utility.yul\":9572:9703   */\n      tag_372\n        /* \"#utility.yul\":9698:9702   */\n      dup2\n        /* \"#utility.yul\":9572:9703   */\n      tag_322\n      jump\t// in\n    tag_372:\n        /* \"#utility.yul\":9564:9703   */\n      swap1\n      pop\n        /* \"#utility.yul\":9462:9710   */\n      swap2\n      swap1\n      pop\n      jump\t// out\n        /* \"#utility.yul\":9716:10135   */\n    tag_233:\n      0x00\n        /* \"#utility.yul\":9920:9922   */\n      0x20\n        /* \"#utility.yul\":9909:9918   */\n      dup3\n        /* \"#utility.yul\":9905:9923   */\n      add\n        /* \"#utility.yul\":9897:9923   */\n      swap1\n      pop\n        /* \"#utility.yul\":9969:9978   */\n      dup2\n        /* \"#utility.yul\":9963:9967   */\n      dup2\n        /* \"#utility.yul\":9959:9979   */\n      sub\n        /* \"#utility.yul\":9955:9956   */\n      0x00\n        /* \"#utility.yul\":9944:9953   */\n      dup4\n        /* \"#utility.yul\":9940:9957   */\n      add\n        /* \"#utility.yul\":9933:9980   */\n      mstore\n        /* \"#utility.yul\":9997:10128   */\n      tag_374\n        /* \"#utility.yul\":10123:10127   */\n      dup2\n        /* \"#utility.yul\":9997:10128   */\n      tag_325\n      jump\t// in\n    tag_374:\n        /* \"#utility.yul\":9989:10128   */\n      swap1\n      pop\n        /* \"#utility.yul\":9887:10135   */\n      swap2\n      swap1\n      pop\n      jump\t// out\n        /* \"#utility.yul\":10141:10560   */\n    tag_246:\n      0x00\n        /* \"#utility.yul\":10345:10347   */\n      0x20\n        /* \"#utility.yul\":10334:10343   */\n      dup3\n        /* \"#utility.yul\":10330:10348   */\n      add\n        /* \"#utility.yul\":10322:10348   */\n      swap1\n      pop\n        /* \"#utility.yul\":10394:10403   */\n      dup2\n        /* \"#utility.yul\":10388:10392   */\n      dup2\n        /* \"#utility.yul\":10384:10404   */\n      sub\n        /* \"#utility.yul\":10380:10381   */\n      0x00\n        /* \"#utility.yul\":10369:10378   */\n      dup4\n        /* \"#utility.yul\":10365:10382   */\n      add\n        /* \"#utility.yul\":10358:10405   */\n      mstore\n        /* \"#utility.yul\":10422:10553   */\n      tag_376\n        /* \"#utility.yul\":10548:10552   */\n      dup2\n        /* \"#utility.yul\":10422:10553   */\n      tag_328\n      jump\t// in\n    tag_376:\n        /* \"#utility.yul\":10414:10553   */\n      swap1\n      pop\n        /* \"#utility.yul\":10312:10560   */\n      swap2\n      swap1\n      pop\n      jump\t// out\n        /* \"#utility.yul\":10566:10985   */\n    tag_180:\n      0x00\n        /* \"#utility.yul\":10770:10772   */\n      0x20\n        /* \"#utility.yul\":10759:10768   */\n      dup3\n        /* \"#utility.yul\":10755:10773   */\n      add\n        /* \"#utility.yul\":10747:10773   */\n      swap1\n      pop\n        /* \"#utility.yul\":10819:10828   */\n      dup2\n        /* \"#utility.yul\":10813:10817   */\n      dup2\n        /* \"#utility.yul\":10809:10829   */\n      sub\n        /* \"#utility.yul\":10805:10806   */\n      0x00\n        /* \"#utility.yul\":10794:10803   */\n      dup4\n        /* \"#utility.yul\":10790:10807   */\n      add\n        /* \"#utility.yul\":10783:10830   */\n      mstore\n        /* \"#utility.yul\":10847:10978   */\n      tag_378\n        /* \"#utility.yul\":10973:10977   */\n      dup2\n        /* \"#utility.yul\":10847:10978   */\n      tag_331\n      jump\t// in\n    tag_378:\n        /* \"#utility.yul\":10839:10978   */\n      swap1\n      pop\n        /* \"#utility.yul\":10737:10985   */\n      swap2\n      swap1\n      pop\n      jump\t// out\n        /* \"#utility.yul\":10991:11410   */\n    tag_255:\n      0x00\n        /* \"#utility.yul\":11195:11197   */\n      0x20\n        /* \"#utility.yul\":11184:11193   */\n      dup3\n        /* \"#utility.yul\":11180:11198   */\n      add\n        /* \"#utility.yul\":11172:11198   */\n      swap1\n      pop\n        /* \"#utility.yul\":11244:11253   */\n      dup2\n        /* \"#utility.yul\":11238:11242   */\n      dup2\n        /* \"#utility.yul\":11234:11254   */\n      sub\n        /* \"#utility.yul\":11230:11231   */\n      0x00\n        /* \"#utility.yul\":11219:11228   */\n      dup4\n        /* \"#utility.yul\":11215:11232   */\n      add\n        /* \"#utility.yul\":11208:11255   */\n      mstore\n        /* \"#utility.yul\":11272:11403   */\n      tag_380\n        /* \"#utility.yul\":11398:11402   */\n      dup2\n        /* \"#utility.yul\":11272:11403   */\n      tag_334\n      jump\t// in\n    tag_380:\n        /* \"#utility.yul\":11264:11403   */\n      swap1\n      pop\n        /* \"#utility.yul\":11162:11410   */\n      swap2\n      swap1\n      pop\n      jump\t// out\n        /* \"#utility.yul\":11416:11835   */\n    tag_238:\n      0x00\n        /* \"#utility.yul\":11620:11622   */\n      0x20\n        /* \"#utility.yul\":11609:11618   */\n      dup3\n        /* \"#utility.yul\":11605:11623   */\n      add\n        /* \"#utility.yul\":11597:11623   */\n      swap1\n      pop\n        /* \"#utility.yul\":11669:11678   */\n      dup2\n        /* \"#utility.yul\":11663:11667   */\n      dup2\n        /* \"#utility.yul\":11659:11679   */\n      sub\n        /* \"#utility.yul\":11655:11656   */\n      0x00\n        /* \"#utility.yul\":11644:11653   */\n      dup4\n        /* \"#utility.yul\":11640:11657   */\n      add\n        /* \"#utility.yul\":11633:11680   */\n      mstore\n        /* \"#utility.yul\":11697:11828   */\n      tag_382\n        /* \"#utility.yul\":11823:11827   */\n      dup2\n        /* \"#utility.yul\":11697:11828   */\n      tag_337\n      jump\t// in\n    tag_382:\n        /* \"#utility.yul\":11689:11828   */\n      swap1\n      pop\n        /* \"#utility.yul\":11587:11835   */\n      swap2\n      swap1\n      pop\n      jump\t// out\n        /* \"#utility.yul\":11841:12260   */\n    tag_223:\n      0x00\n        /* \"#utility.yul\":12045:12047   */\n      0x20\n        /* \"#utility.yul\":12034:12043   */\n      dup3\n        /* \"#utility.yul\":12030:12048   */\n      add\n        /* \"#utility.yul\":12022:12048   */\n      swap1\n      pop\n        /* \"#utility.yul\":12094:12103   */\n      dup2\n        /* \"#utility.yul\":12088:12092   */\n      dup2\n        /* \"#utility.yul\":12084:12104   */\n      sub\n        /* \"#utility.yul\":12080:12081   */\n      0x00\n        /* \"#utility.yul\":12069:12078   */\n      dup4\n        /* \"#utility.yul\":12065:12082   */\n      add\n        /* \"#utility.yul\":12058:12105   */\n      mstore\n        /* \"#utility.yul\":12122:12253   */\n      tag_384\n        /* \"#utility.yul\":12248:12252   */\n      dup2\n        /* \"#utility.yul\":12122:12253   */\n      tag_340\n      jump\t// in\n    tag_384:\n        /* \"#utility.yul\":12114:12253   */\n      swap1\n      pop\n        /* \"#utility.yul\":12012:12260   */\n      swap2\n      swap1\n      pop\n      jump\t// out\n        /* \"#utility.yul\":12266:12685   */\n    tag_192:\n      0x00\n        /* \"#utility.yul\":12470:12472   */\n      0x20\n        /* \"#utility.yul\":12459:12468   */\n      dup3\n        /* \"#utility.yul\":12455:12473   */\n      add\n        /* \"#utility.yul\":12447:12473   */\n      swap1\n      pop\n        /* \"#utility.yul\":12519:12528   */\n      dup2\n        /* \"#utility.yul\":12513:12517   */\n      dup2\n        /* \"#utility.yul\":12509:12529   */\n      sub\n        /* \"#utility.yul\":12505:12506   */\n      0x00\n        /* \"#utility.yul\":12494:12503   */\n      dup4\n        /* \"#utility.yul\":12490:12507   */\n      add\n        /* \"#utility.yul\":12483:12530   */\n      mstore\n        /* \"#utility.yul\":12547:12678   */\n      tag_386\n        /* \"#utility.yul\":12673:12677   */\n      dup2\n        /* \"#utility.yul\":12547:12678   */\n      tag_343\n      jump\t// in\n    tag_386:\n        /* \"#utility.yul\":12539:12678   */\n      swap1\n      pop\n        /* \"#utility.yul\":12437:12685   */\n      swap2\n      swap1\n      pop\n      jump\t// out\n        /* \"#utility.yul\":12691:13110   */\n    tag_259:\n      0x00\n        /* \"#utility.yul\":12895:12897   */\n      0x20\n        /* \"#utility.yul\":12884:12893   */\n      dup3\n        /* \"#utility.yul\":12880:12898   */\n      add\n        /* \"#utility.yul\":12872:12898   */\n      swap1\n      pop\n        /* \"#utility.yul\":12944:12953   */\n      dup2\n        /* \"#utility.yul\":12938:12942   */\n      dup2\n        /* \"#utility.yul\":12934:12954   */\n      sub\n        /* \"#utility.yul\":12930:12931   */\n      0x00\n        /* \"#utility.yul\":12919:12928   */\n      dup4\n        /* \"#utility.yul\":12915:12932   */\n      add\n        /* \"#utility.yul\":12908:12955   */\n      mstore\n        /* \"#utility.yul\":12972:13103   */\n      tag_388\n        /* \"#utility.yul\":13098:13102   */\n      dup2\n        /* \"#utility.yul\":12972:13103   */\n      tag_346\n      jump\t// in\n    tag_388:\n        /* \"#utility.yul\":12964:13103   */\n      swap1\n      pop\n        /* \"#utility.yul\":12862:13110   */\n      swap2\n      swap1\n      pop\n      jump\t// out\n        /* \"#utility.yul\":13116:13338   */\n    tag_42:\n      0x00\n        /* \"#utility.yul\":13247:13249   */\n      0x20\n        /* \"#utility.yul\":13236:13245   */\n      dup3\n        /* \"#utility.yul\":13232:13250   */\n      add\n        /* \"#utility.yul\":13224:13250   */\n      swap1\n      pop\n        /* \"#utility.yul\":13260:13331   */\n      tag_390\n        /* \"#utility.yul\":13328:13329   */\n      0x00\n        /* \"#utility.yul\":13317:13326   */\n      dup4\n        /* \"#utility.yul\":13313:13330   */\n      add\n        /* \"#utility.yul\":13304:13310   */\n      dup5\n        /* \"#utility.yul\":13260:13331   */\n      tag_349\n      jump\t// in\n    tag_390:\n        /* \"#utility.yul\":13214:13338   */\n      swap3\n      swap2\n      pop\n      pop\n      jump\t// out\n        /* \"#utility.yul\":13344:13558   */\n    tag_53:\n      0x00\n        /* \"#utility.yul\":13471:13473   */\n      0x20\n        /* \"#utility.yul\":13460:13469   */\n      dup3\n        /* \"#utility.yul\":13456:13474   */\n      add\n        /* \"#utility.yul\":13448:13474   */\n      swap1\n      pop\n        /* \"#utility.yul\":13484:13551   */\n      tag_392\n        /* \"#utility.yul\":13548:13549   */\n      0x00\n        /* \"#utility.yul\":13537:13546   */\n      dup4\n        /* \"#utility.yul\":13533:13550   */\n      add\n        /* \"#utility.yul\":13524:13530   */\n      dup5\n        /* \"#utility.yul\":13484:13551   */\n      tag_353\n      jump\t// in\n    tag_392:\n        /* \"#utility.yul\":13438:13558   */\n      swap3\n      swap2\n      pop\n      pop\n      jump\t// out\n        /* \"#utility.yul\":13564:13663   */\n    tag_309:\n      0x00\n        /* \"#utility.yul\":13650:13655   */\n      dup2\n        /* \"#utility.yul\":13644:13656   */\n      mload\n        /* \"#utility.yul\":13634:13656   */\n      swap1\n      pop\n        /* \"#utility.yul\":13623:13663   */\n      swap2\n      swap1\n      pop\n      jump\t// out\n        /* \"#utility.yul\":13669:13838   */\n    tag_311:\n      0x00\n        /* \"#utility.yul\":13787:13793   */\n      dup3\n        /* \"#utility.yul\":13782:13785   */\n      dup3\n        /* \"#utility.yul\":13775:13794   */\n      mstore\n        /* \"#utility.yul\":13827:13831   */\n      0x20\n        /* \"#utility.yul\":13822:13825   */\n      dup3\n        /* \"#utility.yul\":13818:13832   */\n      add\n        /* \"#utility.yul\":13803:13832   */\n      swap1\n      pop\n        /* \"#utility.yul\":13765:13838   */\n      swap3\n      swap2\n      pop\n      pop\n      jump\t// out\n        /* \"#utility.yul\":13844:14149   */\n    tag_152:\n      0x00\n        /* \"#utility.yul\":13903:13923   */\n      tag_396\n        /* \"#utility.yul\":13921:13922   */\n      dup3\n        /* \"#utility.yul\":13903:13923   */\n      tag_352\n      jump\t// in\n    tag_396:\n        /* \"#utility.yul\":13898:13923   */\n      swap2\n      pop\n        /* \"#utility.yul\":13937:13957   */\n      tag_397\n        /* \"#utility.yul\":13955:13956   */\n      dup4\n        /* \"#utility.yul\":13937:13957   */\n      tag_352\n      jump\t// in\n    tag_397:\n        /* \"#utility.yul\":13932:13957   */\n      swap3\n      pop\n        /* \"#utility.yul\":14091:14092   */\n      dup3\n        /* \"#utility.yul\":14023:14089   */\n      0xffffffffffffffffffffffffffffffffffffffffffffffffffffffffffffffff\n        /* \"#utility.yul\":14019:14093   */\n      sub\n        /* \"#utility.yul\":14016:14017   */\n      dup3\n        /* \"#utility.yul\":14013:14094   */\n      gt\n        /* \"#utility.yul\":14010:14012   */\n      iszero\n      tag_398\n      jumpi\n        /* \"#utility.yul\":14097:14115   */\n      tag_399\n      tag_400\n      jump\t// in\n    tag_399:\n        /* \"#utility.yul\":14010:14012   */\n    tag_398:\n        /* \"#utility.yul\":14141:14142   */\n      dup3\n        /* \"#utility.yul\":14138:14139   */\n      dup3\n        /* \"#utility.yul\":14134:14143   */\n      add\n        /* \"#utility.yul\":14127:14143   */\n      swap1\n      pop\n        /* \"#utility.yul\":13888:14149   */\n      swap3\n      swap2\n      pop\n      pop\n      jump\t// out\n        /* \"#utility.yul\":14155:14251   */\n    tag_301:\n      0x00\n        /* \"#utility.yul\":14221:14245   */\n      tag_402\n        /* \"#utility.yul\":14239:14244   */\n      dup3\n        /* \"#utility.yul\":14221:14245   */\n      tag_403\n      jump\t// in\n    tag_402:\n        /* \"#utility.yul\":14210:14245   */\n      swap1\n      pop\n        /* \"#utility.yul\":14200:14251   */\n      swap2\n      swap1\n      pop\n      jump\t// out\n        /* \"#utility.yul\":14257:14347   */\n    tag_305:\n      0x00\n        /* \"#utility.yul\":14334:14339   */\n      dup2\n        /* \"#utility.yul\":14327:14340   */\n      iszero\n        /* \"#utility.yul\":14320:14341   */\n      iszero\n        /* \"#utility.yul\":14309:14341   */\n      swap1\n      pop\n        /* \"#utility.yul\":14299:14347   */\n      swap2\n      swap1\n      pop\n      jump\t// out\n        /* \"#utility.yul\":14353:14479   */\n    tag_403:\n      0x00\n        /* \"#utility.yul\":14430:14472   */\n      0xffffffffffffffffffffffffffffffffffffffff\n        /* \"#utility.yul\":14423:14428   */\n      dup3\n        /* \"#utility.yul\":14419:14473   */\n      and\n        /* \"#utility.yul\":14408:14473   */\n      swap1\n      pop\n        /* \"#utility.yul\":14398:14479   */\n      swap2\n      swap1\n      pop\n      jump\t// out\n        /* \"#utility.yul\":14485:14562   */\n    tag_352:\n      0x00\n        /* \"#utility.yul\":14551:14556   */\n      dup2\n        /* \"#utility.yul\":14540:14556   */\n      swap1\n      pop\n        /* \"#utility.yul\":14530:14562   */\n      swap2\n      swap1\n      pop\n      jump\t// out\n        /* \"#utility.yul\":14568:14654   */\n    tag_356:\n      0x00\n        /* \"#utility.yul\":14643:14647   */\n      0xff\n        /* \"#utility.yul\":14636:14641   */\n      dup3\n        /* \"#utility.yul\":14632:14648   */\n      and\n        /* \"#utility.yul\":14621:14648   */\n      swap1\n      pop\n        /* \"#utility.yul\":14611:14654   */\n      swap2\n      swap1\n      pop\n      jump\t// out\n        /* \"#utility.yul\":14660:14967   */\n    tag_313:\n        /* \"#utility.yul\":14728:14729   */\n      0x00\n        /* \"#utility.yul\":14738:14851   */\n    tag_409:\n        /* \"#utility.yul\":14752:14758   */\n      dup4\n        /* \"#utility.yul\":14749:14750   */\n      dup2\n        /* \"#utility.yul\":14746:14759   */\n      lt\n        /* \"#utility.yul\":14738:14851   */\n      iszero\n      tag_411\n      jumpi\n        /* \"#utility.yul\":14837:14838   */\n      dup1\n        /* \"#utility.yul\":14832:14835   */\n      dup3\n        /* \"#utility.yul\":14828:14839   */\n      add\n        /* \"#utility.yul\":14822:14840   */\n      mload\n        /* \"#utility.yul\":14818:14819   */\n      dup2\n        /* \"#utility.yul\":14813:14816   */\n      dup5\n        /* \"#utility.yul\":14809:14820   */\n      add\n        /* \"#utility.yul\":14802:14841   */\n      mstore\n        /* \"#utility.yul\":14774:14776   */\n      0x20\n        /* \"#utility.yul\":14771:14772   */\n      dup2\n        /* \"#utility.yul\":14767:14777   */\n      add\n        /* \"#utility.yul\":14762:14777   */\n      swap1\n      pop\n        /* \"#utility.yul\":14738:14851   */\n      jump(tag_409)\n    tag_411:\n        /* \"#utility.yul\":14869:14875   */\n      dup4\n        /* \"#utility.yul\":14866:14867   */\n      dup2\n        /* \"#utility.yul\":14863:14876   */\n      gt\n        /* \"#utility.yul\":14860:14862   */\n      iszero\n      tag_412\n      jumpi\n        /* \"#utility.yul\":14949:14950   */\n      0x00\n        /* \"#utility.yul\":14940:14946   */\n      dup5\n        /* \"#utility.yul\":14935:14938   */\n      dup5\n        /* \"#utility.yul\":14931:14947   */\n      add\n        /* \"#utility.yul\":14924:14951   */\n      mstore\n        /* \"#utility.yul\":14860:14862   */\n    tag_412:\n        /* \"#utility.yul\":14709:14967   */\n      pop\n      pop\n      pop\n      pop\n      jump\t// out\n        /* \"#utility.yul\":14973:15293   */\n    tag_129:\n      0x00\n        /* \"#utility.yul\":15054:15055   */\n      0x02\n        /* \"#utility.yul\":15048:15052   */\n      dup3\n        /* \"#utility.yul\":15044:15056   */\n      div\n        /* \"#utility.yul\":15034:15056   */\n      swap1\n      pop\n        /* \"#utility.yul\":15101:15102   */\n      0x01\n        /* \"#utility.yul\":15095:15099   */\n      dup3\n        /* \"#utility.yul\":15091:15103   */\n      and\n        /* \"#utility.yul\":15122:15140   */\n      dup1\n        /* \"#utility.yul\":15112:15114   */\n      tag_414\n      jumpi\n        /* \"#utility.yul\":15178:15182   */\n      0x7f\n        /* \"#utility.yul\":15170:15176   */\n      dup3\n        /* \"#utility.yul\":15166:15183   */\n      and\n        /* \"#utility.yul\":15156:15183   */\n      swap2\n      pop\n        /* \"#utility.yul\":15112:15114   */\n    tag_414:\n        /* \"#utility.yul\":15240:15242   */\n      0x20\n        /* \"#utility.yul\":15232:15238   */\n      dup3\n        /* \"#utility.yul\":15229:15243   */\n      lt\n        /* \"#utility.yul\":15209:15227   */\n      dup2\n        /* \"#utility.yul\":15206:15244   */\n      eq\n        /* \"#utility.yul\":15203:15205   */\n      iszero\n      tag_415\n      jumpi\n        /* \"#utility.yul\":15259:15277   */\n      tag_416\n      tag_417\n      jump\t// in\n    tag_416:\n        /* \"#utility.yul\":15203:15205   */\n    tag_415:\n        /* \"#utility.yul\":15024:15293   */\n      pop\n      swap2\n      swap1\n      pop\n      jump\t// out\n        /* \"#utility.yul\":15299:15479   */\n    tag_400:\n        /* \"#utility.yul\":15347:15424   */\n      0x4e487b7100000000000000000000000000000000000000000000000000000000\n        /* \"#utility.yul\":15344:15345   */\n      0x00\n        /* \"#utility.yul\":15337:15425   */\n      mstore\n        /* \"#utility.yul\":15444:15448   */\n      0x11\n        /* \"#utility.yul\":15441:15442   */\n      0x04\n        /* \"#utility.yul\":15434:15449   */\n      mstore\n        /* \"#utility.yul\":15468:15472   */\n      0x24\n        /* \"#utility.yul\":15465:15466   */\n      0x00\n        /* \"#utility.yul\":15458:15473   */\n      revert\n        /* \"#utility.yul\":15485:15665   */\n    tag_417:\n        /* \"#utility.yul\":15533:15610   */\n      0x4e487b7100000000000000000000000000000000000000000000000000000000\n        /* \"#utility.yul\":15530:15531   */\n      0x00\n        /* \"#utility.yul\":15523:15611   */\n      mstore\n        /* \"#utility.yul\":15630:15634   */\n      0x22\n        /* \"#utility.yul\":15627:15628   */\n      0x04\n        /* \"#utility.yul\":15620:15635   */\n      mstore\n        /* \"#utility.yul\":15654:15658   */\n      0x24\n        /* \"#utility.yul\":15651:15652   */\n      0x00\n        /* \"#utility.yul\":15644:15659   */\n      revert\n        /* \"#utility.yul\":15671:15773   */\n    tag_315:\n      0x00\n        /* \"#utility.yul\":15763:15765   */\n      0x1f\n        /* \"#utility.yul\":15759:15766   */\n      not\n        /* \"#utility.yul\":15754:15756   */\n      0x1f\n        /* \"#utility.yul\":15747:15752   */\n      dup4\n        /* \"#utility.yul\":15743:15757   */\n      add\n        /* \"#utility.yul\":15739:15767   */\n      and\n        /* \"#utility.yul\":15729:15767   */\n      swap1\n      pop\n        /* \"#utility.yul\":15719:15773   */\n      swap2\n      swap1\n      pop\n      jump\t// out\n        /* \"#utility.yul\":15779:15901   */\n    tag_271:\n        /* \"#utility.yul\":15852:15876   */\n      tag_422\n        /* \"#utility.yul\":15870:15875   */\n      dup2\n        /* \"#utility.yul\":15852:15876   */\n      tag_301\n      jump\t// in\n    tag_422:\n        /* \"#utility.yul\":15845:15850   */\n      dup2\n        /* \"#utility.yul\":15842:15877   */\n      eq\n        /* \"#utility.yul\":15832:15834   */\n      tag_423\n      jumpi\n        /* \"#utility.yul\":15891:15892   */\n      0x00\n        /* \"#utility.yul\":15888:15889   */\n      dup1\n        /* \"#utility.yul\":15881:15893   */\n      revert\n        /* \"#utility.yul\":15832:15834   */\n    tag_423:\n        /* \"#utility.yul\":15822:15901   */\n      pop\n      jump\t// out\n        /* \"#utility.yul\":15907:16029   */\n    tag_275:\n        /* \"#utility.yul\":15980:16004   */\n      tag_425\n        /* \"#utility.yul\":15998:16003   */\n      dup2\n        /* \"#utility.yul\":15980:16004   */\n      tag_352\n      jump\t// in\n    tag_425:\n        /* \"#utility.yul\":15973:15978   */\n      dup2\n        /* \"#utility.yul\":15970:16005   */\n      eq\n        /* \"#utility.yul\":15960:15962   */\n      tag_426\n      jumpi\n        /* \"#utility.yul\":16019:16020   */\n      0x00\n        /* \"#utility.yul\":16016:16017   */\n      dup1\n        /* \"#utility.yul\":16009:16021   */\n      revert\n        /* \"#utility.yul\":15960:15962   */\n    tag_426:\n        /* \"#utility.yul\":15950:16029   */\n      pop\n      jump\t// out\n\n    auxdata: 0xa264697066735822122057ad30af8ba38e071204c79edce649f5af6b02127479440e36fa5f19819f20f964736f6c63430008000033\n}\n",
				"bytecode": {
					"linkReferences": {},
					"object": "608060405260006006553480156200001657600080fd5b506040518060400160405280600681526020017f596562656c6f00000000000000000000000000000000000000000000000000008152506040518060400160405280600381526020017f59424c000000000000000000000000000000000000000000000000000000000081525081600390805190602001906200009b9291906200046d565b508060049080519060200190620000b49291906200046d565b505050620000d7620000cb6200014660201b60201c565b6200014e60201b60201c565b620000eb306113886200021460201b60201c565b620000ff33610bb86200021460201b60201c565b33600860006101000a81548173ffffffffffffffffffffffffffffffffffffffff021916908373ffffffffffffffffffffffffffffffffffffffff1602179055506200071f565b600033905090565b6000600560009054906101000a900473ffffffffffffffffffffffffffffffffffffffff16905081600560006101000a81548173ffffffffffffffffffffffffffffffffffffffff021916908373ffffffffffffffffffffffffffffffffffffffff1602179055508173ffffffffffffffffffffffffffffffffffffffff168173ffffffffffffffffffffffffffffffffffffffff167f8be0079c531659141344cd1fd0a4f28419497f9722a3daafe3b4186f6b6457e060405160405180910390a35050565b620002246200023a60201b60201c565b620002368282620002cb60201b60201c565b5050565b6200024a6200014660201b60201c565b73ffffffffffffffffffffffffffffffffffffffff16620002706200043960201b60201c565b73ffffffffffffffffffffffffffffffffffffffff1614620002c9576040517f08c379a0000000000000000000000000000000000000000000000000000000008152600401620002c090620005b2565b60405180910390fd5b565b600073ffffffffffffffffffffffffffffffffffffffff168273ffffffffffffffffffffffffffffffffffffffff1614156200033e576040517f08c379a00000000000000000000000000000000000000000000000000000000081526004016200033590620005d4565b60405180910390fd5b62000352600083836200046360201b60201c565b806002600082825462000366919062000624565b92505081905550806000808473ffffffffffffffffffffffffffffffffffffffff1673ffffffffffffffffffffffffffffffffffffffff168152602001908152602001600020600082825401925050819055508173ffffffffffffffffffffffffffffffffffffffff16600073ffffffffffffffffffffffffffffffffffffffff167fddf252ad1be2c89b69c2b068fc378daa952ba7f163c4a11628f55a4df523b3ef83604051620004199190620005f6565b60405180910390a362000435600083836200046860201b60201c565b5050565b6000600560009054906101000a900473ffffffffffffffffffffffffffffffffffffffff16905090565b505050565b505050565b8280546200047b906200068b565b90600052602060002090601f0160209004810192826200049f5760008555620004eb565b82601f10620004ba57805160ff1916838001178555620004eb565b82800160010185558215620004eb579182015b82811115620004ea578251825591602001919060010190620004cd565b5b509050620004fa9190620004fe565b5090565b5b8082111562000519576000816000905550600101620004ff565b5090565b60006200052c60208362000613565b91507f4f776e61626c653a2063616c6c6572206973206e6f7420746865206f776e65726000830152602082019050919050565b60006200056e601f8362000613565b91507f45524332303a206d696e7420746f20746865207a65726f2061646472657373006000830152602082019050919050565b620005ac8162000681565b82525050565b60006020820190508181036000830152620005cd816200051d565b9050919050565b60006020820190508181036000830152620005ef816200055f565b9050919050565b60006020820190506200060d6000830184620005a1565b92915050565b600082825260208201905092915050565b6000620006318262000681565b91506200063e8362000681565b9250827fffffffffffffffffffffffffffffffffffffffffffffffffffffffffffffffff03821115620006765762000675620006c1565b5b828201905092915050565b6000819050919050565b60006002820490506001821680620006a457607f821691505b60208210811415620006bb57620006ba620006f0565b5b50919050565b7f4e487b7100000000000000000000000000000000000000000000000000000000600052601160045260246000fd5b7f4e487b7100000000000000000000000000000000000000000000000000000000600052602260045260246000fd5b611f80806200072f6000396000f3fe60806040526004361061012a5760003560e01c806383786f8c116100ab578063a9059cbb1161006f578063a9059cbb1461040d578063ae14bcbe1461044a578063dd62ed3e14610461578063eef49ee31461049e578063f01e2359146104c9578063f2fde38b146105085761012a565b806383786f8c146103005780638da5cb5b1461033d578063958fb03d1461036857806395d89b41146103a5578063a457c2d7146103d05761012a565b806339509351116100f2578063395093511461022a57806340c10f191461026757806370a0823114610290578063715018a6146102cd57806380cecea9146102e45761012a565b806306fdde031461012f578063095ea7b31461015a57806318160ddd1461019757806323b872dd146101c2578063313ce567146101ff575b600080fd5b34801561013b57600080fd5b50610144610531565b6040516101519190611bc9565b60405180910390f35b34801561016657600080fd5b50610181600480360381019061017c9190611692565b6105c3565b60405161018e9190611b77565b60405180910390f35b3480156101a357600080fd5b506101ac6105e6565b6040516101b99190611d4b565b60405180910390f35b3480156101ce57600080fd5b506101e960048036038101906101e49190611643565b6105f0565b6040516101f69190611b77565b60405180910390f35b34801561020b57600080fd5b5061021461061f565b6040516102219190611d66565b60405180910390f35b34801561023657600080fd5b50610251600480360381019061024c9190611692565b610628565b60405161025e9190611b77565b60405180910390f35b34801561027357600080fd5b5061028e60048036038101906102899190611692565b61065f565b005b34801561029c57600080fd5b506102b760048036038101906102b291906115de565b610675565b6040516102c49190611d4b565b60405180910390f35b3480156102d957600080fd5b506102e26106bd565b005b6102fe60048036038101906102f99190611692565b6106d1565b005b34801561030c57600080fd5b50610327600480360381019061032291906115de565b6107e8565b6040516103349190611d4b565b60405180910390f35b34801561034957600080fd5b5061035261087a565b60405161035f9190611b5c565b60405180910390f35b34801561037457600080fd5b5061038f600480360381019061038a91906115de565b6108a4565b60405161039c9190611d4b565b60405180910390f35b3480156103b157600080fd5b506103ba61097f565b6040516103c79190611bc9565b60405180910390f35b3480156103dc57600080fd5b506103f760048036038101906103f29190611692565b610a11565b6040516104049190611b77565b60405180910390f35b34801561041957600080fd5b50610434600480360381019061042f9190611692565b610a88565b6040516104419190611b77565b60405180910390f35b34801561045657600080fd5b5061045f610aab565b005b34801561046d57600080fd5b5061048860048036038101906104839190611607565b610cdb565b6040516104959190611d4b565b60405180910390f35b3480156104aa57600080fd5b506104b3610d62565b6040516104c09190611d4b565b60405180910390f35b3480156104d557600080fd5b506104f060048036038101906104eb91906115de565b610d68565b6040516104ff93929190611b92565b60405180910390f35b34801561051457600080fd5b5061052f600480360381019061052a91906115de565b610d9f565b005b60606003805461054090611e7b565b80601f016020809104026020016040519081016040528092919081815260200182805461056c90611e7b565b80156105b95780601f1061058e576101008083540402835291602001916105b9565b820191906000526020600020905b81548152906001019060200180831161059c57829003601f168201915b5050505050905090565b6000806105ce610e23565b90506105db818585610e2b565b600191505092915050565b6000600254905090565b6000806105fb610e23565b9050610608858285610ff6565b610613858585611082565b60019150509392505050565b60006012905090565b600080610633610e23565b90506106548185856106458589610cdb565b61064f9190611d9d565b610e2b565b600191505092915050565b6106676112fa565b6106718282611378565b5050565b60008060008373ffffffffffffffffffffffffffffffffffffffff1673ffffffffffffffffffffffffffffffffffffffff168152602001908152602001600020549050919050565b6106c56112fa565b6106cf60006114cf565b565b6106db8282610a88565b506001600960003373ffffffffffffffffffffffffffffffffffffffff1673ffffffffffffffffffffffffffffffffffffffff16815260200190815260200160002060000160006101000a81548160ff02191690831515021790555080600960003373ffffffffffffffffffffffffffffffffffffffff1673ffffffffffffffffffffffffffffffffffffffff168152602001908152602001600020600101546107859190611d9d565b600960003373ffffffffffffffffffffffffffffffffffffffff1673ffffffffffffffffffffffffffffffffffffffff1681526020019081526020016000206001018190555080600660008282546107dd9190611d9d565b925050819055505050565b60008173ffffffffffffffffffffffffffffffffffffffff166370a08231306040518263ffffffff1660e01b81526004016108239190611b5c565b60206040518083038186803b15801561083b57600080fd5b505afa15801561084f573d6000803e3d6000fd5b505050506040513d601f19601f8201168201806040525081019061087391906116ce565b9050919050565b6000600560009054906101000a900473ffffffffffffffffffffffffffffffffffffffff16905090565b6000600960008373ffffffffffffffffffffffffffffffffffffffff1673ffffffffffffffffffffffffffffffffffffffff16815260200190815260200160002060000160009054906101000a900460ff16610935576040517f08c379a000000000000000000000000000000000000000000000000000000000815260040161092c90611c8b565b60405180910390fd5b600960008373ffffffffffffffffffffffffffffffffffffffff1673ffffffffffffffffffffffffffffffffffffffff168152602001908152602001600020600201549050919050565b60606004805461098e90611e7b565b80601f01602080910402602001604051908101604052809291908181526020018280546109ba90611e7b565b8015610a075780601f106109dc57610100808354040283529160200191610a07565b820191906000526020600020905b8154815290600101906020018083116109ea57829003601f168201915b5050505050905090565b600080610a1c610e23565b90506000610a2a8286610cdb565b905083811015610a6f576040517f08c379a0000000000000000000000000000000000000000000000000000000008152600401610a6690611d0b565b60405180910390fd5b610a7c8286868403610e2b565b60019250505092915050565b600080610a93610e23565b9050610aa0818585611082565b600191505092915050565b6000600960003373ffffffffffffffffffffffffffffffffffffffff1673ffffffffffffffffffffffffffffffffffffffff16815260200190815260200160002060010154905060648111610b47576004600960003373ffffffffffffffffffffffffffffffffffffffff1673ffffffffffffffffffffffffffffffffffffffff16815260200190815260200160002060020181905550610cd8565b606481118015610b58575060c88111155b15610baa576003600960003373ffffffffffffffffffffffffffffffffffffffff1673ffffffffffffffffffffffffffffffffffffffff16815260200190815260200160002060020181905550610cd7565b60c881118015610bbc575061012c8111155b15610c0e576002600960003373ffffffffffffffffffffffffffffffffffffffff1673ffffffffffffffffffffffffffffffffffffffff16815260200190815260200160002060020181905550610cd6565b61012c81118015610c2157506101908111155b15610c73576001600960003373ffffffffffffffffffffffffffffffffffffffff1673ffffffffffffffffffffffffffffffffffffffff16815260200190815260200160002060020181905550610cd5565b61019081118015610c8657506101f48111155b15610cd4576000600960003373ffffffffffffffffffffffffffffffffffffffff1673ffffffffffffffffffffffffffffffffffffffff168152602001908152602001600020600201819055505b5b5b5b5b50565b6000600160008473ffffffffffffffffffffffffffffffffffffffff1673ffffffffffffffffffffffffffffffffffffffff16815260200190815260200160002060008373ffffffffffffffffffffffffffffffffffffffff1673ffffffffffffffffffffffffffffffffffffffff16815260200190815260200160002054905092915050565b60065481565b60096020528060005260406000206000915090508060000160009054906101000a900460ff16908060010154908060020154905083565b610da76112fa565b600073ffffffffffffffffffffffffffffffffffffffff168173ffffffffffffffffffffffffffffffffffffffff161415610e17576040517f08c379a0000000000000000000000000000000000000000000000000000000008152600401610e0e90611c0b565b60405180910390fd5b610e20816114cf565b50565b600033905090565b600073ffffffffffffffffffffffffffffffffffffffff168373ffffffffffffffffffffffffffffffffffffffff161415610e9b576040517f08c379a0000000000000000000000000000000000000000000000000000000008152600401610e9290611ceb565b60405180910390fd5b600073ffffffffffffffffffffffffffffffffffffffff168273ffffffffffffffffffffffffffffffffffffffff161415610f0b576040517f08c379a0000000000000000000000000000000000000000000000000000000008152600401610f0290611c2b565b60405180910390fd5b80600160008573ffffffffffffffffffffffffffffffffffffffff1673ffffffffffffffffffffffffffffffffffffffff16815260200190815260200160002060008473ffffffffffffffffffffffffffffffffffffffff1673ffffffffffffffffffffffffffffffffffffffff168152602001908152602001600020819055508173ffffffffffffffffffffffffffffffffffffffff168373ffffffffffffffffffffffffffffffffffffffff167f8c5be1e5ebec7d5bd14f71427d1e84f3dd0314c0f7b2291e5b200ac8c7c3b92583604051610fe99190611d4b565b60405180910390a3505050565b60006110028484610cdb565b90507fffffffffffffffffffffffffffffffffffffffffffffffffffffffffffffffff811461107c578181101561106e576040517f08c379a000000000000000000000000000000000000000000000000000000000815260040161106590611c4b565b60405180910390fd5b61107b8484848403610e2b565b5b50505050565b600073ffffffffffffffffffffffffffffffffffffffff168373ffffffffffffffffffffffffffffffffffffffff1614156110f2576040517f08c379a00000000000000000000000000000000000000000000000000000000081526004016110e990611ccb565b60405180910390fd5b600073ffffffffffffffffffffffffffffffffffffffff168273ffffffffffffffffffffffffffffffffffffffff161415611162576040517f08c379a000000000000000000000000000000000000000000000000000000000815260040161115990611beb565b60405180910390fd5b61116d838383611595565b60008060008573ffffffffffffffffffffffffffffffffffffffff1673ffffffffffffffffffffffffffffffffffffffff168152602001908152602001600020549050818110156111f3576040517f08c379a00000000000000000000000000000000000000000000000000000000081526004016111ea90611c6b565b60405180910390fd5b8181036000808673ffffffffffffffffffffffffffffffffffffffff1673ffffffffffffffffffffffffffffffffffffffff16815260200190815260200160002081905550816000808573ffffffffffffffffffffffffffffffffffffffff1673ffffffffffffffffffffffffffffffffffffffff168152602001908152602001600020600082825401925050819055508273ffffffffffffffffffffffffffffffffffffffff168473ffffffffffffffffffffffffffffffffffffffff167fddf252ad1be2c89b69c2b068fc378daa952ba7f163c4a11628f55a4df523b3ef846040516112e19190611d4b565b60405180910390a36112f484848461159a565b50505050565b611302610e23565b73ffffffffffffffffffffffffffffffffffffffff1661132061087a565b73ffffffffffffffffffffffffffffffffffffffff1614611376576040517f08c379a000000000000000000000000000000000000000000000000000000000815260040161136d90611cab565b60405180910390fd5b565b600073ffffffffffffffffffffffffffffffffffffffff168273ffffffffffffffffffffffffffffffffffffffff1614156113e8576040517f08c379a00000000000000000000000000000000000000000000000000000000081526004016113df90611d2b565b60405180910390fd5b6113f460008383611595565b80600260008282546114069190611d9d565b92505081905550806000808473ffffffffffffffffffffffffffffffffffffffff1673ffffffffffffffffffffffffffffffffffffffff168152602001908152602001600020600082825401925050819055508173ffffffffffffffffffffffffffffffffffffffff16600073ffffffffffffffffffffffffffffffffffffffff167fddf252ad1be2c89b69c2b068fc378daa952ba7f163c4a11628f55a4df523b3ef836040516114b79190611d4b565b60405180910390a36114cb6000838361159a565b5050565b6000600560009054906101000a900473ffffffffffffffffffffffffffffffffffffffff16905081600560006101000a81548173ffffffffffffffffffffffffffffffffffffffff021916908373ffffffffffffffffffffffffffffffffffffffff1602179055508173ffffffffffffffffffffffffffffffffffffffff168173ffffffffffffffffffffffffffffffffffffffff167f8be0079c531659141344cd1fd0a4f28419497f9722a3daafe3b4186f6b6457e060405160405180910390a35050565b505050565b505050565b6000813590506115ae81611f1c565b92915050565b6000813590506115c381611f33565b92915050565b6000815190506115d881611f33565b92915050565b6000602082840312156115f057600080fd5b60006115fe8482850161159f565b91505092915050565b6000806040838503121561161a57600080fd5b60006116288582860161159f565b92505060206116398582860161159f565b9150509250929050565b60008060006060848603121561165857600080fd5b60006116668682870161159f565b93505060206116778682870161159f565b9250506040611688868287016115b4565b9150509250925092565b600080604083850312156116a557600080fd5b60006116b38582860161159f565b92505060206116c4858286016115b4565b9150509250929050565b6000602082840312156116e057600080fd5b60006116ee848285016115c9565b91505092915050565b61170081611df3565b82525050565b61170f81611e05565b82525050565b600061172082611d81565b61172a8185611d8c565b935061173a818560208601611e48565b61174381611f0b565b840191505092915050565b600061175b602383611d8c565b91507f45524332303a207472616e7366657220746f20746865207a65726f206164647260008301527f65737300000000000000000000000000000000000000000000000000000000006020830152604082019050919050565b60006117c1602683611d8c565b91507f4f776e61626c653a206e6577206f776e657220697320746865207a65726f206160008301527f64647265737300000000000000000000000000000000000000000000000000006020830152604082019050919050565b6000611827602283611d8c565b91507f45524332303a20617070726f766520746f20746865207a65726f20616464726560008301527f73730000000000000000000000000000000000000000000000000000000000006020830152604082019050919050565b600061188d601d83611d8c565b91507f45524332303a20696e73756666696369656e7420616c6c6f77616e63650000006000830152602082019050919050565b60006118cd602683611d8c565b91507f45524332303a207472616e7366657220616d6f756e742065786365656473206260008301527f616c616e636500000000000000000000000000000000000000000000000000006020830152604082019050919050565b6000611933602883611d8c565b91507f4465706f73697420746f6b656e73206265666f726520636865636b696e67206660008301527f6f7220736c61622e0000000000000000000000000000000000000000000000006020830152604082019050919050565b6000611999602083611d8c565b91507f4f776e61626c653a2063616c6c6572206973206e6f7420746865206f776e65726000830152602082019050919050565b60006119d9602583611d8c565b91507f45524332303a207472616e736665722066726f6d20746865207a65726f20616460008301527f64726573730000000000000000000000000000000000000000000000000000006020830152604082019050919050565b6000611a3f602483611d8c565b91507f45524332303a20617070726f76652066726f6d20746865207a65726f2061646460008301527f72657373000000000000000000000000000000000000000000000000000000006020830152604082019050919050565b6000611aa5602583611d8c565b91507f45524332303a2064656372656173656420616c6c6f77616e63652062656c6f7760008301527f207a65726f0000000000000000000000000000000000000000000000000000006020830152604082019050919050565b6000611b0b601f83611d8c565b91507f45524332303a206d696e7420746f20746865207a65726f2061646472657373006000830152602082019050919050565b611b4781611e31565b82525050565b611b5681611e3b565b82525050565b6000602082019050611b7160008301846116f7565b92915050565b6000602082019050611b8c6000830184611706565b92915050565b6000606082019050611ba76000830186611706565b611bb46020830185611b3e565b611bc16040830184611b3e565b949350505050565b60006020820190508181036000830152611be38184611715565b905092915050565b60006020820190508181036000830152611c048161174e565b9050919050565b60006020820190508181036000830152611c24816117b4565b9050919050565b60006020820190508181036000830152611c448161181a565b9050919050565b60006020820190508181036000830152611c6481611880565b9050919050565b60006020820190508181036000830152611c84816118c0565b9050919050565b60006020820190508181036000830152611ca481611926565b9050919050565b60006020820190508181036000830152611cc48161198c565b9050919050565b60006020820190508181036000830152611ce4816119cc565b9050919050565b60006020820190508181036000830152611d0481611a32565b9050919050565b60006020820190508181036000830152611d2481611a98565b9050919050565b60006020820190508181036000830152611d4481611afe565b9050919050565b6000602082019050611d606000830184611b3e565b92915050565b6000602082019050611d7b6000830184611b4d565b92915050565b600081519050919050565b600082825260208201905092915050565b6000611da882611e31565b9150611db383611e31565b9250827fffffffffffffffffffffffffffffffffffffffffffffffffffffffffffffffff03821115611de857611de7611ead565b5b828201905092915050565b6000611dfe82611e11565b9050919050565b60008115159050919050565b600073ffffffffffffffffffffffffffffffffffffffff82169050919050565b6000819050919050565b600060ff82169050919050565b60005b83811015611e66578082015181840152602081019050611e4b565b83811115611e75576000848401525b50505050565b60006002820490506001821680611e9357607f821691505b60208210811415611ea757611ea6611edc565b5b50919050565b7f4e487b7100000000000000000000000000000000000000000000000000000000600052601160045260246000fd5b7f4e487b7100000000000000000000000000000000000000000000000000000000600052602260045260246000fd5b6000601f19601f8301169050919050565b611f2581611df3565b8114611f3057600080fd5b50565b611f3c81611e31565b8114611f4757600080fd5b5056fea264697066735822122057ad30af8ba38e071204c79edce649f5af6b02127479440e36fa5f19819f20f964736f6c63430008000033",
					"opcodes": "PUSH1 0x80 PUSH1 0x40 MSTORE PUSH1 0x0 PUSH1 0x6 SSTORE CALLVALUE DUP1 ISZERO PUSH3 0x16 JUMPI PUSH1 0x0 DUP1 REVERT JUMPDEST POP PUSH1 0x40 MLOAD DUP1 PUSH1 0x40 ADD PUSH1 0x40 MSTORE DUP1 PUSH1 0x6 DUP2 MSTORE PUSH1 0x20 ADD PUSH32 0x596562656C6F0000000000000000000000000000000000000000000000000000 DUP2 MSTORE POP PUSH1 0x40 MLOAD DUP1 PUSH1 0x40 ADD PUSH1 0x40 MSTORE DUP1 PUSH1 0x3 DUP2 MSTORE PUSH1 0x20 ADD PUSH32 0x59424C0000000000000000000000000000000000000000000000000000000000 DUP2 MSTORE POP DUP2 PUSH1 0x3 SWAP1 DUP1 MLOAD SWAP1 PUSH1 0x20 ADD SWAP1 PUSH3 0x9B SWAP3 SWAP2 SWAP1 PUSH3 0x46D JUMP JUMPDEST POP DUP1 PUSH1 0x4 SWAP1 DUP1 MLOAD SWAP1 PUSH1 0x20 ADD SWAP1 PUSH3 0xB4 SWAP3 SWAP2 SWAP1 PUSH3 0x46D JUMP JUMPDEST POP POP POP PUSH3 0xD7 PUSH3 0xCB PUSH3 0x146 PUSH1 0x20 SHL PUSH1 0x20 SHR JUMP JUMPDEST PUSH3 0x14E PUSH1 0x20 SHL PUSH1 0x20 SHR JUMP JUMPDEST PUSH3 0xEB ADDRESS PUSH2 0x1388 PUSH3 0x214 PUSH1 0x20 SHL PUSH1 0x20 SHR JUMP JUMPDEST PUSH3 0xFF CALLER PUSH2 0xBB8 PUSH3 0x214 PUSH1 0x20 SHL PUSH1 0x20 SHR JUMP JUMPDEST CALLER PUSH1 0x8 PUSH1 0x0 PUSH2 0x100 EXP DUP2 SLOAD DUP2 PUSH20 0xFFFFFFFFFFFFFFFFFFFFFFFFFFFFFFFFFFFFFFFF MUL NOT AND SWAP1 DUP4 PUSH20 0xFFFFFFFFFFFFFFFFFFFFFFFFFFFFFFFFFFFFFFFF AND MUL OR SWAP1 SSTORE POP PUSH3 0x71F JUMP JUMPDEST PUSH1 0x0 CALLER SWAP1 POP SWAP1 JUMP JUMPDEST PUSH1 0x0 PUSH1 0x5 PUSH1 0x0 SWAP1 SLOAD SWAP1 PUSH2 0x100 EXP SWAP1 DIV PUSH20 0xFFFFFFFFFFFFFFFFFFFFFFFFFFFFFFFFFFFFFFFF AND SWAP1 POP DUP2 PUSH1 0x5 PUSH1 0x0 PUSH2 0x100 EXP DUP2 SLOAD DUP2 PUSH20 0xFFFFFFFFFFFFFFFFFFFFFFFFFFFFFFFFFFFFFFFF MUL NOT AND SWAP1 DUP4 PUSH20 0xFFFFFFFFFFFFFFFFFFFFFFFFFFFFFFFFFFFFFFFF AND MUL OR SWAP1 SSTORE POP DUP2 PUSH20 0xFFFFFFFFFFFFFFFFFFFFFFFFFFFFFFFFFFFFFFFF AND DUP2 PUSH20 0xFFFFFFFFFFFFFFFFFFFFFFFFFFFFFFFFFFFFFFFF AND PUSH32 0x8BE0079C531659141344CD1FD0A4F28419497F9722A3DAAFE3B4186F6B6457E0 PUSH1 0x40 MLOAD PUSH1 0x40 MLOAD DUP1 SWAP2 SUB SWAP1 LOG3 POP POP JUMP JUMPDEST PUSH3 0x224 PUSH3 0x23A PUSH1 0x20 SHL PUSH1 0x20 SHR JUMP JUMPDEST PUSH3 0x236 DUP3 DUP3 PUSH3 0x2CB PUSH1 0x20 SHL PUSH1 0x20 SHR JUMP JUMPDEST POP POP JUMP JUMPDEST PUSH3 0x24A PUSH3 0x146 PUSH1 0x20 SHL PUSH1 0x20 SHR JUMP JUMPDEST PUSH20 0xFFFFFFFFFFFFFFFFFFFFFFFFFFFFFFFFFFFFFFFF AND PUSH3 0x270 PUSH3 0x439 PUSH1 0x20 SHL PUSH1 0x20 SHR JUMP JUMPDEST PUSH20 0xFFFFFFFFFFFFFFFFFFFFFFFFFFFFFFFFFFFFFFFF AND EQ PUSH3 0x2C9 JUMPI PUSH1 0x40 MLOAD PUSH32 0x8C379A000000000000000000000000000000000000000000000000000000000 DUP2 MSTORE PUSH1 0x4 ADD PUSH3 0x2C0 SWAP1 PUSH3 0x5B2 JUMP JUMPDEST PUSH1 0x40 MLOAD DUP1 SWAP2 SUB SWAP1 REVERT JUMPDEST JUMP JUMPDEST PUSH1 0x0 PUSH20 0xFFFFFFFFFFFFFFFFFFFFFFFFFFFFFFFFFFFFFFFF AND DUP3 PUSH20 0xFFFFFFFFFFFFFFFFFFFFFFFFFFFFFFFFFFFFFFFF AND EQ ISZERO PUSH3 0x33E JUMPI PUSH1 0x40 MLOAD PUSH32 0x8C379A000000000000000000000000000000000000000000000000000000000 DUP2 MSTORE PUSH1 0x4 ADD PUSH3 0x335 SWAP1 PUSH3 0x5D4 JUMP JUMPDEST PUSH1 0x40 MLOAD DUP1 SWAP2 SUB SWAP1 REVERT JUMPDEST PUSH3 0x352 PUSH1 0x0 DUP4 DUP4 PUSH3 0x463 PUSH1 0x20 SHL PUSH1 0x20 SHR JUMP JUMPDEST DUP1 PUSH1 0x2 PUSH1 0x0 DUP3 DUP3 SLOAD PUSH3 0x366 SWAP2 SWAP1 PUSH3 0x624 JUMP JUMPDEST SWAP3 POP POP DUP2 SWAP1 SSTORE POP DUP1 PUSH1 0x0 DUP1 DUP5 PUSH20 0xFFFFFFFFFFFFFFFFFFFFFFFFFFFFFFFFFFFFFFFF AND PUSH20 0xFFFFFFFFFFFFFFFFFFFFFFFFFFFFFFFFFFFFFFFF AND DUP2 MSTORE PUSH1 0x20 ADD SWAP1 DUP2 MSTORE PUSH1 0x20 ADD PUSH1 0x0 KECCAK256 PUSH1 0x0 DUP3 DUP3 SLOAD ADD SWAP3 POP POP DUP2 SWAP1 SSTORE POP DUP2 PUSH20 0xFFFFFFFFFFFFFFFFFFFFFFFFFFFFFFFFFFFFFFFF AND PUSH1 0x0 PUSH20 0xFFFFFFFFFFFFFFFFFFFFFFFFFFFFFFFFFFFFFFFF AND PUSH32 0xDDF252AD1BE2C89B69C2B068FC378DAA952BA7F163C4A11628F55A4DF523B3EF DUP4 PUSH1 0x40 MLOAD PUSH3 0x419 SWAP2 SWAP1 PUSH3 0x5F6 JUMP JUMPDEST PUSH1 0x40 MLOAD DUP1 SWAP2 SUB SWAP1 LOG3 PUSH3 0x435 PUSH1 0x0 DUP4 DUP4 PUSH3 0x468 PUSH1 0x20 SHL PUSH1 0x20 SHR JUMP JUMPDEST POP POP JUMP JUMPDEST PUSH1 0x0 PUSH1 0x5 PUSH1 0x0 SWAP1 SLOAD SWAP1 PUSH2 0x100 EXP SWAP1 DIV PUSH20 0xFFFFFFFFFFFFFFFFFFFFFFFFFFFFFFFFFFFFFFFF AND SWAP1 POP SWAP1 JUMP JUMPDEST POP POP POP JUMP JUMPDEST POP POP POP JUMP JUMPDEST DUP3 DUP1 SLOAD PUSH3 0x47B SWAP1 PUSH3 0x68B JUMP JUMPDEST SWAP1 PUSH1 0x0 MSTORE PUSH1 0x20 PUSH1 0x0 KECCAK256 SWAP1 PUSH1 0x1F ADD PUSH1 0x20 SWAP1 DIV DUP2 ADD SWAP3 DUP3 PUSH3 0x49F JUMPI PUSH1 0x0 DUP6 SSTORE PUSH3 0x4EB JUMP JUMPDEST DUP3 PUSH1 0x1F LT PUSH3 0x4BA JUMPI DUP1 MLOAD PUSH1 0xFF NOT AND DUP4 DUP1 ADD OR DUP6 SSTORE PUSH3 0x4EB JUMP JUMPDEST DUP3 DUP1 ADD PUSH1 0x1 ADD DUP6 SSTORE DUP3 ISZERO PUSH3 0x4EB JUMPI SWAP2 DUP3 ADD JUMPDEST DUP3 DUP2 GT ISZERO PUSH3 0x4EA JUMPI DUP3 MLOAD DUP3 SSTORE SWAP2 PUSH1 0x20 ADD SWAP2 SWAP1 PUSH1 0x1 ADD SWAP1 PUSH3 0x4CD JUMP JUMPDEST JUMPDEST POP SWAP1 POP PUSH3 0x4FA SWAP2 SWAP1 PUSH3 0x4FE JUMP JUMPDEST POP SWAP1 JUMP JUMPDEST JUMPDEST DUP1 DUP3 GT ISZERO PUSH3 0x519 JUMPI PUSH1 0x0 DUP2 PUSH1 0x0 SWAP1 SSTORE POP PUSH1 0x1 ADD PUSH3 0x4FF JUMP JUMPDEST POP SWAP1 JUMP JUMPDEST PUSH1 0x0 PUSH3 0x52C PUSH1 0x20 DUP4 PUSH3 0x613 JUMP JUMPDEST SWAP2 POP PUSH32 0x4F776E61626C653A2063616C6C6572206973206E6F7420746865206F776E6572 PUSH1 0x0 DUP4 ADD MSTORE PUSH1 0x20 DUP3 ADD SWAP1 POP SWAP2 SWAP1 POP JUMP JUMPDEST PUSH1 0x0 PUSH3 0x56E PUSH1 0x1F DUP4 PUSH3 0x613 JUMP JUMPDEST SWAP2 POP PUSH32 0x45524332303A206D696E7420746F20746865207A65726F206164647265737300 PUSH1 0x0 DUP4 ADD MSTORE PUSH1 0x20 DUP3 ADD SWAP1 POP SWAP2 SWAP1 POP JUMP JUMPDEST PUSH3 0x5AC DUP2 PUSH3 0x681 JUMP JUMPDEST DUP3 MSTORE POP POP JUMP JUMPDEST PUSH1 0x0 PUSH1 0x20 DUP3 ADD SWAP1 POP DUP2 DUP2 SUB PUSH1 0x0 DUP4 ADD MSTORE PUSH3 0x5CD DUP2 PUSH3 0x51D JUMP JUMPDEST SWAP1 POP SWAP2 SWAP1 POP JUMP JUMPDEST PUSH1 0x0 PUSH1 0x20 DUP3 ADD SWAP1 POP DUP2 DUP2 SUB PUSH1 0x0 DUP4 ADD MSTORE PUSH3 0x5EF DUP2 PUSH3 0x55F JUMP JUMPDEST SWAP1 POP SWAP2 SWAP1 POP JUMP JUMPDEST PUSH1 0x0 PUSH1 0x20 DUP3 ADD SWAP1 POP PUSH3 0x60D PUSH1 0x0 DUP4 ADD DUP5 PUSH3 0x5A1 JUMP JUMPDEST SWAP3 SWAP2 POP POP JUMP JUMPDEST PUSH1 0x0 DUP3 DUP3 MSTORE PUSH1 0x20 DUP3 ADD SWAP1 POP SWAP3 SWAP2 POP POP JUMP JUMPDEST PUSH1 0x0 PUSH3 0x631 DUP3 PUSH3 0x681 JUMP JUMPDEST SWAP2 POP PUSH3 0x63E DUP4 PUSH3 0x681 JUMP JUMPDEST SWAP3 POP DUP3 PUSH32 0xFFFFFFFFFFFFFFFFFFFFFFFFFFFFFFFFFFFFFFFFFFFFFFFFFFFFFFFFFFFFFFFF SUB DUP3 GT ISZERO PUSH3 0x676 JUMPI PUSH3 0x675 PUSH3 0x6C1 JUMP JUMPDEST JUMPDEST DUP3 DUP3 ADD SWAP1 POP SWAP3 SWAP2 POP POP JUMP JUMPDEST PUSH1 0x0 DUP2 SWAP1 POP SWAP2 SWAP1 POP JUMP JUMPDEST PUSH1 0x0 PUSH1 0x2 DUP3 DIV SWAP1 POP PUSH1 0x1 DUP3 AND DUP1 PUSH3 0x6A4 JUMPI PUSH1 0x7F DUP3 AND SWAP2 POP JUMPDEST PUSH1 0x20 DUP3 LT DUP2 EQ ISZERO PUSH3 0x6BB JUMPI PUSH3 0x6BA PUSH3 0x6F0 JUMP JUMPDEST JUMPDEST POP SWAP2 SWAP1 POP JUMP JUMPDEST PUSH32 0x4E487B7100000000000000000000000000000000000000000000000000000000 PUSH1 0x0 MSTORE PUSH1 0x11 PUSH1 0x4 MSTORE PUSH1 0x24 PUSH1 0x0 REVERT JUMPDEST PUSH32 0x4E487B7100000000000000000000000000000000000000000000000000000000 PUSH1 0x0 MSTORE PUSH1 0x22 PUSH1 0x4 MSTORE PUSH1 0x24 PUSH1 0x0 REVERT JUMPDEST PUSH2 0x1F80 DUP1 PUSH3 0x72F PUSH1 0x0 CODECOPY PUSH1 0x0 RETURN INVALID PUSH1 0x80 PUSH1 0x40 MSTORE PUSH1 0x4 CALLDATASIZE LT PUSH2 0x12A JUMPI PUSH1 0x0 CALLDATALOAD PUSH1 0xE0 SHR DUP1 PUSH4 0x83786F8C GT PUSH2 0xAB JUMPI DUP1 PUSH4 0xA9059CBB GT PUSH2 0x6F JUMPI DUP1 PUSH4 0xA9059CBB EQ PUSH2 0x40D JUMPI DUP1 PUSH4 0xAE14BCBE EQ PUSH2 0x44A JUMPI DUP1 PUSH4 0xDD62ED3E EQ PUSH2 0x461 JUMPI DUP1 PUSH4 0xEEF49EE3 EQ PUSH2 0x49E JUMPI DUP1 PUSH4 0xF01E2359 EQ PUSH2 0x4C9 JUMPI DUP1 PUSH4 0xF2FDE38B EQ PUSH2 0x508 JUMPI PUSH2 0x12A JUMP JUMPDEST DUP1 PUSH4 0x83786F8C EQ PUSH2 0x300 JUMPI DUP1 PUSH4 0x8DA5CB5B EQ PUSH2 0x33D JUMPI DUP1 PUSH4 0x958FB03D EQ PUSH2 0x368 JUMPI DUP1 PUSH4 0x95D89B41 EQ PUSH2 0x3A5 JUMPI DUP1 PUSH4 0xA457C2D7 EQ PUSH2 0x3D0 JUMPI PUSH2 0x12A JUMP JUMPDEST DUP1 PUSH4 0x39509351 GT PUSH2 0xF2 JUMPI DUP1 PUSH4 0x39509351 EQ PUSH2 0x22A JUMPI DUP1 PUSH4 0x40C10F19 EQ PUSH2 0x267 JUMPI DUP1 PUSH4 0x70A08231 EQ PUSH2 0x290 JUMPI DUP1 PUSH4 0x715018A6 EQ PUSH2 0x2CD JUMPI DUP1 PUSH4 0x80CECEA9 EQ PUSH2 0x2E4 JUMPI PUSH2 0x12A JUMP JUMPDEST DUP1 PUSH4 0x6FDDE03 EQ PUSH2 0x12F JUMPI DUP1 PUSH4 0x95EA7B3 EQ PUSH2 0x15A JUMPI DUP1 PUSH4 0x18160DDD EQ PUSH2 0x197 JUMPI DUP1 PUSH4 0x23B872DD EQ PUSH2 0x1C2 JUMPI DUP1 PUSH4 0x313CE567 EQ PUSH2 0x1FF JUMPI JUMPDEST PUSH1 0x0 DUP1 REVERT JUMPDEST CALLVALUE DUP1 ISZERO PUSH2 0x13B JUMPI PUSH1 0x0 DUP1 REVERT JUMPDEST POP PUSH2 0x144 PUSH2 0x531 JUMP JUMPDEST PUSH1 0x40 MLOAD PUSH2 0x151 SWAP2 SWAP1 PUSH2 0x1BC9 JUMP JUMPDEST PUSH1 0x40 MLOAD DUP1 SWAP2 SUB SWAP1 RETURN JUMPDEST CALLVALUE DUP1 ISZERO PUSH2 0x166 JUMPI PUSH1 0x0 DUP1 REVERT JUMPDEST POP PUSH2 0x181 PUSH1 0x4 DUP1 CALLDATASIZE SUB DUP2 ADD SWAP1 PUSH2 0x17C SWAP2 SWAP1 PUSH2 0x1692 JUMP JUMPDEST PUSH2 0x5C3 JUMP JUMPDEST PUSH1 0x40 MLOAD PUSH2 0x18E SWAP2 SWAP1 PUSH2 0x1B77 JUMP JUMPDEST PUSH1 0x40 MLOAD DUP1 SWAP2 SUB SWAP1 RETURN JUMPDEST CALLVALUE DUP1 ISZERO PUSH2 0x1A3 JUMPI PUSH1 0x0 DUP1 REVERT JUMPDEST POP PUSH2 0x1AC PUSH2 0x5E6 JUMP JUMPDEST PUSH1 0x40 MLOAD PUSH2 0x1B9 SWAP2 SWAP1 PUSH2 0x1D4B JUMP JUMPDEST PUSH1 0x40 MLOAD DUP1 SWAP2 SUB SWAP1 RETURN JUMPDEST CALLVALUE DUP1 ISZERO PUSH2 0x1CE JUMPI PUSH1 0x0 DUP1 REVERT JUMPDEST POP PUSH2 0x1E9 PUSH1 0x4 DUP1 CALLDATASIZE SUB DUP2 ADD SWAP1 PUSH2 0x1E4 SWAP2 SWAP1 PUSH2 0x1643 JUMP JUMPDEST PUSH2 0x5F0 JUMP JUMPDEST PUSH1 0x40 MLOAD PUSH2 0x1F6 SWAP2 SWAP1 PUSH2 0x1B77 JUMP JUMPDEST PUSH1 0x40 MLOAD DUP1 SWAP2 SUB SWAP1 RETURN JUMPDEST CALLVALUE DUP1 ISZERO PUSH2 0x20B JUMPI PUSH1 0x0 DUP1 REVERT JUMPDEST POP PUSH2 0x214 PUSH2 0x61F JUMP JUMPDEST PUSH1 0x40 MLOAD PUSH2 0x221 SWAP2 SWAP1 PUSH2 0x1D66 JUMP JUMPDEST PUSH1 0x40 MLOAD DUP1 SWAP2 SUB SWAP1 RETURN JUMPDEST CALLVALUE DUP1 ISZERO PUSH2 0x236 JUMPI PUSH1 0x0 DUP1 REVERT JUMPDEST POP PUSH2 0x251 PUSH1 0x4 DUP1 CALLDATASIZE SUB DUP2 ADD SWAP1 PUSH2 0x24C SWAP2 SWAP1 PUSH2 0x1692 JUMP JUMPDEST PUSH2 0x628 JUMP JUMPDEST PUSH1 0x40 MLOAD PUSH2 0x25E SWAP2 SWAP1 PUSH2 0x1B77 JUMP JUMPDEST PUSH1 0x40 MLOAD DUP1 SWAP2 SUB SWAP1 RETURN JUMPDEST CALLVALUE DUP1 ISZERO PUSH2 0x273 JUMPI PUSH1 0x0 DUP1 REVERT JUMPDEST POP PUSH2 0x28E PUSH1 0x4 DUP1 CALLDATASIZE SUB DUP2 ADD SWAP1 PUSH2 0x289 SWAP2 SWAP1 PUSH2 0x1692 JUMP JUMPDEST PUSH2 0x65F JUMP JUMPDEST STOP JUMPDEST CALLVALUE DUP1 ISZERO PUSH2 0x29C JUMPI PUSH1 0x0 DUP1 REVERT JUMPDEST POP PUSH2 0x2B7 PUSH1 0x4 DUP1 CALLDATASIZE SUB DUP2 ADD SWAP1 PUSH2 0x2B2 SWAP2 SWAP1 PUSH2 0x15DE JUMP JUMPDEST PUSH2 0x675 JUMP JUMPDEST PUSH1 0x40 MLOAD PUSH2 0x2C4 SWAP2 SWAP1 PUSH2 0x1D4B JUMP JUMPDEST PUSH1 0x40 MLOAD DUP1 SWAP2 SUB SWAP1 RETURN JUMPDEST CALLVALUE DUP1 ISZERO PUSH2 0x2D9 JUMPI PUSH1 0x0 DUP1 REVERT JUMPDEST POP PUSH2 0x2E2 PUSH2 0x6BD JUMP JUMPDEST STOP JUMPDEST PUSH2 0x2FE PUSH1 0x4 DUP1 CALLDATASIZE SUB DUP2 ADD SWAP1 PUSH2 0x2F9 SWAP2 SWAP1 PUSH2 0x1692 JUMP JUMPDEST PUSH2 0x6D1 JUMP JUMPDEST STOP JUMPDEST CALLVALUE DUP1 ISZERO PUSH2 0x30C JUMPI PUSH1 0x0 DUP1 REVERT JUMPDEST POP PUSH2 0x327 PUSH1 0x4 DUP1 CALLDATASIZE SUB DUP2 ADD SWAP1 PUSH2 0x322 SWAP2 SWAP1 PUSH2 0x15DE JUMP JUMPDEST PUSH2 0x7E8 JUMP JUMPDEST PUSH1 0x40 MLOAD PUSH2 0x334 SWAP2 SWAP1 PUSH2 0x1D4B JUMP JUMPDEST PUSH1 0x40 MLOAD DUP1 SWAP2 SUB SWAP1 RETURN JUMPDEST CALLVALUE DUP1 ISZERO PUSH2 0x349 JUMPI PUSH1 0x0 DUP1 REVERT JUMPDEST POP PUSH2 0x352 PUSH2 0x87A JUMP JUMPDEST PUSH1 0x40 MLOAD PUSH2 0x35F SWAP2 SWAP1 PUSH2 0x1B5C JUMP JUMPDEST PUSH1 0x40 MLOAD DUP1 SWAP2 SUB SWAP1 RETURN JUMPDEST CALLVALUE DUP1 ISZERO PUSH2 0x374 JUMPI PUSH1 0x0 DUP1 REVERT JUMPDEST POP PUSH2 0x38F PUSH1 0x4 DUP1 CALLDATASIZE SUB DUP2 ADD SWAP1 PUSH2 0x38A SWAP2 SWAP1 PUSH2 0x15DE JUMP JUMPDEST PUSH2 0x8A4 JUMP JUMPDEST PUSH1 0x40 MLOAD PUSH2 0x39C SWAP2 SWAP1 PUSH2 0x1D4B JUMP JUMPDEST PUSH1 0x40 MLOAD DUP1 SWAP2 SUB SWAP1 RETURN JUMPDEST CALLVALUE DUP1 ISZERO PUSH2 0x3B1 JUMPI PUSH1 0x0 DUP1 REVERT JUMPDEST POP PUSH2 0x3BA PUSH2 0x97F JUMP JUMPDEST PUSH1 0x40 MLOAD PUSH2 0x3C7 SWAP2 SWAP1 PUSH2 0x1BC9 JUMP JUMPDEST PUSH1 0x40 MLOAD DUP1 SWAP2 SUB SWAP1 RETURN JUMPDEST CALLVALUE DUP1 ISZERO PUSH2 0x3DC JUMPI PUSH1 0x0 DUP1 REVERT JUMPDEST POP PUSH2 0x3F7 PUSH1 0x4 DUP1 CALLDATASIZE SUB DUP2 ADD SWAP1 PUSH2 0x3F2 SWAP2 SWAP1 PUSH2 0x1692 JUMP JUMPDEST PUSH2 0xA11 JUMP JUMPDEST PUSH1 0x40 MLOAD PUSH2 0x404 SWAP2 SWAP1 PUSH2 0x1B77 JUMP JUMPDEST PUSH1 0x40 MLOAD DUP1 SWAP2 SUB SWAP1 RETURN JUMPDEST CALLVALUE DUP1 ISZERO PUSH2 0x419 JUMPI PUSH1 0x0 DUP1 REVERT JUMPDEST POP PUSH2 0x434 PUSH1 0x4 DUP1 CALLDATASIZE SUB DUP2 ADD SWAP1 PUSH2 0x42F SWAP2 SWAP1 PUSH2 0x1692 JUMP JUMPDEST PUSH2 0xA88 JUMP JUMPDEST PUSH1 0x40 MLOAD PUSH2 0x441 SWAP2 SWAP1 PUSH2 0x1B77 JUMP JUMPDEST PUSH1 0x40 MLOAD DUP1 SWAP2 SUB SWAP1 RETURN JUMPDEST CALLVALUE DUP1 ISZERO PUSH2 0x456 JUMPI PUSH1 0x0 DUP1 REVERT JUMPDEST POP PUSH2 0x45F PUSH2 0xAAB JUMP JUMPDEST STOP JUMPDEST CALLVALUE DUP1 ISZERO PUSH2 0x46D JUMPI PUSH1 0x0 DUP1 REVERT JUMPDEST POP PUSH2 0x488 PUSH1 0x4 DUP1 CALLDATASIZE SUB DUP2 ADD SWAP1 PUSH2 0x483 SWAP2 SWAP1 PUSH2 0x1607 JUMP JUMPDEST PUSH2 0xCDB JUMP JUMPDEST PUSH1 0x40 MLOAD PUSH2 0x495 SWAP2 SWAP1 PUSH2 0x1D4B JUMP JUMPDEST PUSH1 0x40 MLOAD DUP1 SWAP2 SUB SWAP1 RETURN JUMPDEST CALLVALUE DUP1 ISZERO PUSH2 0x4AA JUMPI PUSH1 0x0 DUP1 REVERT JUMPDEST POP PUSH2 0x4B3 PUSH2 0xD62 JUMP JUMPDEST PUSH1 0x40 MLOAD PUSH2 0x4C0 SWAP2 SWAP1 PUSH2 0x1D4B JUMP JUMPDEST PUSH1 0x40 MLOAD DUP1 SWAP2 SUB SWAP1 RETURN JUMPDEST CALLVALUE DUP1 ISZERO PUSH2 0x4D5 JUMPI PUSH1 0x0 DUP1 REVERT JUMPDEST POP PUSH2 0x4F0 PUSH1 0x4 DUP1 CALLDATASIZE SUB DUP2 ADD SWAP1 PUSH2 0x4EB SWAP2 SWAP1 PUSH2 0x15DE JUMP JUMPDEST PUSH2 0xD68 JUMP JUMPDEST PUSH1 0x40 MLOAD PUSH2 0x4FF SWAP4 SWAP3 SWAP2 SWAP1 PUSH2 0x1B92 JUMP JUMPDEST PUSH1 0x40 MLOAD DUP1 SWAP2 SUB SWAP1 RETURN JUMPDEST CALLVALUE DUP1 ISZERO PUSH2 0x514 JUMPI PUSH1 0x0 DUP1 REVERT JUMPDEST POP PUSH2 0x52F PUSH1 0x4 DUP1 CALLDATASIZE SUB DUP2 ADD SWAP1 PUSH2 0x52A SWAP2 SWAP1 PUSH2 0x15DE JUMP JUMPDEST PUSH2 0xD9F JUMP JUMPDEST STOP JUMPDEST PUSH1 0x60 PUSH1 0x3 DUP1 SLOAD PUSH2 0x540 SWAP1 PUSH2 0x1E7B JUMP JUMPDEST DUP1 PUSH1 0x1F ADD PUSH1 0x20 DUP1 SWAP2 DIV MUL PUSH1 0x20 ADD PUSH1 0x40 MLOAD SWAP1 DUP2 ADD PUSH1 0x40 MSTORE DUP1 SWAP3 SWAP2 SWAP1 DUP2 DUP2 MSTORE PUSH1 0x20 ADD DUP3 DUP1 SLOAD PUSH2 0x56C SWAP1 PUSH2 0x1E7B JUMP JUMPDEST DUP1 ISZERO PUSH2 0x5B9 JUMPI DUP1 PUSH1 0x1F LT PUSH2 0x58E JUMPI PUSH2 0x100 DUP1 DUP4 SLOAD DIV MUL DUP4 MSTORE SWAP2 PUSH1 0x20 ADD SWAP2 PUSH2 0x5B9 JUMP JUMPDEST DUP3 ADD SWAP2 SWAP1 PUSH1 0x0 MSTORE PUSH1 0x20 PUSH1 0x0 KECCAK256 SWAP1 JUMPDEST DUP2 SLOAD DUP2 MSTORE SWAP1 PUSH1 0x1 ADD SWAP1 PUSH1 0x20 ADD DUP1 DUP4 GT PUSH2 0x59C JUMPI DUP3 SWAP1 SUB PUSH1 0x1F AND DUP3 ADD SWAP2 JUMPDEST POP POP POP POP POP SWAP1 POP SWAP1 JUMP JUMPDEST PUSH1 0x0 DUP1 PUSH2 0x5CE PUSH2 0xE23 JUMP JUMPDEST SWAP1 POP PUSH2 0x5DB DUP2 DUP6 DUP6 PUSH2 0xE2B JUMP JUMPDEST PUSH1 0x1 SWAP2 POP POP SWAP3 SWAP2 POP POP JUMP JUMPDEST PUSH1 0x0 PUSH1 0x2 SLOAD SWAP1 POP SWAP1 JUMP JUMPDEST PUSH1 0x0 DUP1 PUSH2 0x5FB PUSH2 0xE23 JUMP JUMPDEST SWAP1 POP PUSH2 0x608 DUP6 DUP3 DUP6 PUSH2 0xFF6 JUMP JUMPDEST PUSH2 0x613 DUP6 DUP6 DUP6 PUSH2 0x1082 JUMP JUMPDEST PUSH1 0x1 SWAP2 POP POP SWAP4 SWAP3 POP POP POP JUMP JUMPDEST PUSH1 0x0 PUSH1 0x12 SWAP1 POP SWAP1 JUMP JUMPDEST PUSH1 0x0 DUP1 PUSH2 0x633 PUSH2 0xE23 JUMP JUMPDEST SWAP1 POP PUSH2 0x654 DUP2 DUP6 DUP6 PUSH2 0x645 DUP6 DUP10 PUSH2 0xCDB JUMP JUMPDEST PUSH2 0x64F SWAP2 SWAP1 PUSH2 0x1D9D JUMP JUMPDEST PUSH2 0xE2B JUMP JUMPDEST PUSH1 0x1 SWAP2 POP POP SWAP3 SWAP2 POP POP JUMP JUMPDEST PUSH2 0x667 PUSH2 0x12FA JUMP JUMPDEST PUSH2 0x671 DUP3 DUP3 PUSH2 0x1378 JUMP JUMPDEST POP POP JUMP JUMPDEST PUSH1 0x0 DUP1 PUSH1 0x0 DUP4 PUSH20 0xFFFFFFFFFFFFFFFFFFFFFFFFFFFFFFFFFFFFFFFF AND PUSH20 0xFFFFFFFFFFFFFFFFFFFFFFFFFFFFFFFFFFFFFFFF AND DUP2 MSTORE PUSH1 0x20 ADD SWAP1 DUP2 MSTORE PUSH1 0x20 ADD PUSH1 0x0 KECCAK256 SLOAD SWAP1 POP SWAP2 SWAP1 POP JUMP JUMPDEST PUSH2 0x6C5 PUSH2 0x12FA JUMP JUMPDEST PUSH2 0x6CF PUSH1 0x0 PUSH2 0x14CF JUMP JUMPDEST JUMP JUMPDEST PUSH2 0x6DB DUP3 DUP3 PUSH2 0xA88 JUMP JUMPDEST POP PUSH1 0x1 PUSH1 0x9 PUSH1 0x0 CALLER PUSH20 0xFFFFFFFFFFFFFFFFFFFFFFFFFFFFFFFFFFFFFFFF AND PUSH20 0xFFFFFFFFFFFFFFFFFFFFFFFFFFFFFFFFFFFFFFFF AND DUP2 MSTORE PUSH1 0x20 ADD SWAP1 DUP2 MSTORE PUSH1 0x20 ADD PUSH1 0x0 KECCAK256 PUSH1 0x0 ADD PUSH1 0x0 PUSH2 0x100 EXP DUP2 SLOAD DUP2 PUSH1 0xFF MUL NOT AND SWAP1 DUP4 ISZERO ISZERO MUL OR SWAP1 SSTORE POP DUP1 PUSH1 0x9 PUSH1 0x0 CALLER PUSH20 0xFFFFFFFFFFFFFFFFFFFFFFFFFFFFFFFFFFFFFFFF AND PUSH20 0xFFFFFFFFFFFFFFFFFFFFFFFFFFFFFFFFFFFFFFFF AND DUP2 MSTORE PUSH1 0x20 ADD SWAP1 DUP2 MSTORE PUSH1 0x20 ADD PUSH1 0x0 KECCAK256 PUSH1 0x1 ADD SLOAD PUSH2 0x785 SWAP2 SWAP1 PUSH2 0x1D9D JUMP JUMPDEST PUSH1 0x9 PUSH1 0x0 CALLER PUSH20 0xFFFFFFFFFFFFFFFFFFFFFFFFFFFFFFFFFFFFFFFF AND PUSH20 0xFFFFFFFFFFFFFFFFFFFFFFFFFFFFFFFFFFFFFFFF AND DUP2 MSTORE PUSH1 0x20 ADD SWAP1 DUP2 MSTORE PUSH1 0x20 ADD PUSH1 0x0 KECCAK256 PUSH1 0x1 ADD DUP2 SWAP1 SSTORE POP DUP1 PUSH1 0x6 PUSH1 0x0 DUP3 DUP3 SLOAD PUSH2 0x7DD SWAP2 SWAP1 PUSH2 0x1D9D JUMP JUMPDEST SWAP3 POP POP DUP2 SWAP1 SSTORE POP POP POP JUMP JUMPDEST PUSH1 0x0 DUP2 PUSH20 0xFFFFFFFFFFFFFFFFFFFFFFFFFFFFFFFFFFFFFFFF AND PUSH4 0x70A08231 ADDRESS PUSH1 0x40 MLOAD DUP3 PUSH4 0xFFFFFFFF AND PUSH1 0xE0 SHL DUP2 MSTORE PUSH1 0x4 ADD PUSH2 0x823 SWAP2 SWAP1 PUSH2 0x1B5C JUMP JUMPDEST PUSH1 0x20 PUSH1 0x40 MLOAD DUP1 DUP4 SUB DUP2 DUP7 DUP1 EXTCODESIZE ISZERO DUP1 ISZERO PUSH2 0x83B JUMPI PUSH1 0x0 DUP1 REVERT JUMPDEST POP GAS STATICCALL ISZERO DUP1 ISZERO PUSH2 0x84F JUMPI RETURNDATASIZE PUSH1 0x0 DUP1 RETURNDATACOPY RETURNDATASIZE PUSH1 0x0 REVERT JUMPDEST POP POP POP POP PUSH1 0x40 MLOAD RETURNDATASIZE PUSH1 0x1F NOT PUSH1 0x1F DUP3 ADD AND DUP3 ADD DUP1 PUSH1 0x40 MSTORE POP DUP2 ADD SWAP1 PUSH2 0x873 SWAP2 SWAP1 PUSH2 0x16CE JUMP JUMPDEST SWAP1 POP SWAP2 SWAP1 POP JUMP JUMPDEST PUSH1 0x0 PUSH1 0x5 PUSH1 0x0 SWAP1 SLOAD SWAP1 PUSH2 0x100 EXP SWAP1 DIV PUSH20 0xFFFFFFFFFFFFFFFFFFFFFFFFFFFFFFFFFFFFFFFF AND SWAP1 POP SWAP1 JUMP JUMPDEST PUSH1 0x0 PUSH1 0x9 PUSH1 0x0 DUP4 PUSH20 0xFFFFFFFFFFFFFFFFFFFFFFFFFFFFFFFFFFFFFFFF AND PUSH20 0xFFFFFFFFFFFFFFFFFFFFFFFFFFFFFFFFFFFFFFFF AND DUP2 MSTORE PUSH1 0x20 ADD SWAP1 DUP2 MSTORE PUSH1 0x20 ADD PUSH1 0x0 KECCAK256 PUSH1 0x0 ADD PUSH1 0x0 SWAP1 SLOAD SWAP1 PUSH2 0x100 EXP SWAP1 DIV PUSH1 0xFF AND PUSH2 0x935 JUMPI PUSH1 0x40 MLOAD PUSH32 0x8C379A000000000000000000000000000000000000000000000000000000000 DUP2 MSTORE PUSH1 0x4 ADD PUSH2 0x92C SWAP1 PUSH2 0x1C8B JUMP JUMPDEST PUSH1 0x40 MLOAD DUP1 SWAP2 SUB SWAP1 REVERT JUMPDEST PUSH1 0x9 PUSH1 0x0 DUP4 PUSH20 0xFFFFFFFFFFFFFFFFFFFFFFFFFFFFFFFFFFFFFFFF AND PUSH20 0xFFFFFFFFFFFFFFFFFFFFFFFFFFFFFFFFFFFFFFFF AND DUP2 MSTORE PUSH1 0x20 ADD SWAP1 DUP2 MSTORE PUSH1 0x20 ADD PUSH1 0x0 KECCAK256 PUSH1 0x2 ADD SLOAD SWAP1 POP SWAP2 SWAP1 POP JUMP JUMPDEST PUSH1 0x60 PUSH1 0x4 DUP1 SLOAD PUSH2 0x98E SWAP1 PUSH2 0x1E7B JUMP JUMPDEST DUP1 PUSH1 0x1F ADD PUSH1 0x20 DUP1 SWAP2 DIV MUL PUSH1 0x20 ADD PUSH1 0x40 MLOAD SWAP1 DUP2 ADD PUSH1 0x40 MSTORE DUP1 SWAP3 SWAP2 SWAP1 DUP2 DUP2 MSTORE PUSH1 0x20 ADD DUP3 DUP1 SLOAD PUSH2 0x9BA SWAP1 PUSH2 0x1E7B JUMP JUMPDEST DUP1 ISZERO PUSH2 0xA07 JUMPI DUP1 PUSH1 0x1F LT PUSH2 0x9DC JUMPI PUSH2 0x100 DUP1 DUP4 SLOAD DIV MUL DUP4 MSTORE SWAP2 PUSH1 0x20 ADD SWAP2 PUSH2 0xA07 JUMP JUMPDEST DUP3 ADD SWAP2 SWAP1 PUSH1 0x0 MSTORE PUSH1 0x20 PUSH1 0x0 KECCAK256 SWAP1 JUMPDEST DUP2 SLOAD DUP2 MSTORE SWAP1 PUSH1 0x1 ADD SWAP1 PUSH1 0x20 ADD DUP1 DUP4 GT PUSH2 0x9EA JUMPI DUP3 SWAP1 SUB PUSH1 0x1F AND DUP3 ADD SWAP2 JUMPDEST POP POP POP POP POP SWAP1 POP SWAP1 JUMP JUMPDEST PUSH1 0x0 DUP1 PUSH2 0xA1C PUSH2 0xE23 JUMP JUMPDEST SWAP1 POP PUSH1 0x0 PUSH2 0xA2A DUP3 DUP7 PUSH2 0xCDB JUMP JUMPDEST SWAP1 POP DUP4 DUP2 LT ISZERO PUSH2 0xA6F JUMPI PUSH1 0x40 MLOAD PUSH32 0x8C379A000000000000000000000000000000000000000000000000000000000 DUP2 MSTORE PUSH1 0x4 ADD PUSH2 0xA66 SWAP1 PUSH2 0x1D0B JUMP JUMPDEST PUSH1 0x40 MLOAD DUP1 SWAP2 SUB SWAP1 REVERT JUMPDEST PUSH2 0xA7C DUP3 DUP7 DUP7 DUP5 SUB PUSH2 0xE2B JUMP JUMPDEST PUSH1 0x1 SWAP3 POP POP POP SWAP3 SWAP2 POP POP JUMP JUMPDEST PUSH1 0x0 DUP1 PUSH2 0xA93 PUSH2 0xE23 JUMP JUMPDEST SWAP1 POP PUSH2 0xAA0 DUP2 DUP6 DUP6 PUSH2 0x1082 JUMP JUMPDEST PUSH1 0x1 SWAP2 POP POP SWAP3 SWAP2 POP POP JUMP JUMPDEST PUSH1 0x0 PUSH1 0x9 PUSH1 0x0 CALLER PUSH20 0xFFFFFFFFFFFFFFFFFFFFFFFFFFFFFFFFFFFFFFFF AND PUSH20 0xFFFFFFFFFFFFFFFFFFFFFFFFFFFFFFFFFFFFFFFF AND DUP2 MSTORE PUSH1 0x20 ADD SWAP1 DUP2 MSTORE PUSH1 0x20 ADD PUSH1 0x0 KECCAK256 PUSH1 0x1 ADD SLOAD SWAP1 POP PUSH1 0x64 DUP2 GT PUSH2 0xB47 JUMPI PUSH1 0x4 PUSH1 0x9 PUSH1 0x0 CALLER PUSH20 0xFFFFFFFFFFFFFFFFFFFFFFFFFFFFFFFFFFFFFFFF AND PUSH20 0xFFFFFFFFFFFFFFFFFFFFFFFFFFFFFFFFFFFFFFFF AND DUP2 MSTORE PUSH1 0x20 ADD SWAP1 DUP2 MSTORE PUSH1 0x20 ADD PUSH1 0x0 KECCAK256 PUSH1 0x2 ADD DUP2 SWAP1 SSTORE POP PUSH2 0xCD8 JUMP JUMPDEST PUSH1 0x64 DUP2 GT DUP1 ISZERO PUSH2 0xB58 JUMPI POP PUSH1 0xC8 DUP2 GT ISZERO JUMPDEST ISZERO PUSH2 0xBAA JUMPI PUSH1 0x3 PUSH1 0x9 PUSH1 0x0 CALLER PUSH20 0xFFFFFFFFFFFFFFFFFFFFFFFFFFFFFFFFFFFFFFFF AND PUSH20 0xFFFFFFFFFFFFFFFFFFFFFFFFFFFFFFFFFFFFFFFF AND DUP2 MSTORE PUSH1 0x20 ADD SWAP1 DUP2 MSTORE PUSH1 0x20 ADD PUSH1 0x0 KECCAK256 PUSH1 0x2 ADD DUP2 SWAP1 SSTORE POP PUSH2 0xCD7 JUMP JUMPDEST PUSH1 0xC8 DUP2 GT DUP1 ISZERO PUSH2 0xBBC JUMPI POP PUSH2 0x12C DUP2 GT ISZERO JUMPDEST ISZERO PUSH2 0xC0E JUMPI PUSH1 0x2 PUSH1 0x9 PUSH1 0x0 CALLER PUSH20 0xFFFFFFFFFFFFFFFFFFFFFFFFFFFFFFFFFFFFFFFF AND PUSH20 0xFFFFFFFFFFFFFFFFFFFFFFFFFFFFFFFFFFFFFFFF AND DUP2 MSTORE PUSH1 0x20 ADD SWAP1 DUP2 MSTORE PUSH1 0x20 ADD PUSH1 0x0 KECCAK256 PUSH1 0x2 ADD DUP2 SWAP1 SSTORE POP PUSH2 0xCD6 JUMP JUMPDEST PUSH2 0x12C DUP2 GT DUP1 ISZERO PUSH2 0xC21 JUMPI POP PUSH2 0x190 DUP2 GT ISZERO JUMPDEST ISZERO PUSH2 0xC73 JUMPI PUSH1 0x1 PUSH1 0x9 PUSH1 0x0 CALLER PUSH20 0xFFFFFFFFFFFFFFFFFFFFFFFFFFFFFFFFFFFFFFFF AND PUSH20 0xFFFFFFFFFFFFFFFFFFFFFFFFFFFFFFFFFFFFFFFF AND DUP2 MSTORE PUSH1 0x20 ADD SWAP1 DUP2 MSTORE PUSH1 0x20 ADD PUSH1 0x0 KECCAK256 PUSH1 0x2 ADD DUP2 SWAP1 SSTORE POP PUSH2 0xCD5 JUMP JUMPDEST PUSH2 0x190 DUP2 GT DUP1 ISZERO PUSH2 0xC86 JUMPI POP PUSH2 0x1F4 DUP2 GT ISZERO JUMPDEST ISZERO PUSH2 0xCD4 JUMPI PUSH1 0x0 PUSH1 0x9 PUSH1 0x0 CALLER PUSH20 0xFFFFFFFFFFFFFFFFFFFFFFFFFFFFFFFFFFFFFFFF AND PUSH20 0xFFFFFFFFFFFFFFFFFFFFFFFFFFFFFFFFFFFFFFFF AND DUP2 MSTORE PUSH1 0x20 ADD SWAP1 DUP2 MSTORE PUSH1 0x20 ADD PUSH1 0x0 KECCAK256 PUSH1 0x2 ADD DUP2 SWAP1 SSTORE POP JUMPDEST JUMPDEST JUMPDEST JUMPDEST JUMPDEST POP JUMP JUMPDEST PUSH1 0x0 PUSH1 0x1 PUSH1 0x0 DUP5 PUSH20 0xFFFFFFFFFFFFFFFFFFFFFFFFFFFFFFFFFFFFFFFF AND PUSH20 0xFFFFFFFFFFFFFFFFFFFFFFFFFFFFFFFFFFFFFFFF AND DUP2 MSTORE PUSH1 0x20 ADD SWAP1 DUP2 MSTORE PUSH1 0x20 ADD PUSH1 0x0 KECCAK256 PUSH1 0x0 DUP4 PUSH20 0xFFFFFFFFFFFFFFFFFFFFFFFFFFFFFFFFFFFFFFFF AND PUSH20 0xFFFFFFFFFFFFFFFFFFFFFFFFFFFFFFFFFFFFFFFF AND DUP2 MSTORE PUSH1 0x20 ADD SWAP1 DUP2 MSTORE PUSH1 0x20 ADD PUSH1 0x0 KECCAK256 SLOAD SWAP1 POP SWAP3 SWAP2 POP POP JUMP JUMPDEST PUSH1 0x6 SLOAD DUP2 JUMP JUMPDEST PUSH1 0x9 PUSH1 0x20 MSTORE DUP1 PUSH1 0x0 MSTORE PUSH1 0x40 PUSH1 0x0 KECCAK256 PUSH1 0x0 SWAP2 POP SWAP1 POP DUP1 PUSH1 0x0 ADD PUSH1 0x0 SWAP1 SLOAD SWAP1 PUSH2 0x100 EXP SWAP1 DIV PUSH1 0xFF AND SWAP1 DUP1 PUSH1 0x1 ADD SLOAD SWAP1 DUP1 PUSH1 0x2 ADD SLOAD SWAP1 POP DUP4 JUMP JUMPDEST PUSH2 0xDA7 PUSH2 0x12FA JUMP JUMPDEST PUSH1 0x0 PUSH20 0xFFFFFFFFFFFFFFFFFFFFFFFFFFFFFFFFFFFFFFFF AND DUP2 PUSH20 0xFFFFFFFFFFFFFFFFFFFFFFFFFFFFFFFFFFFFFFFF AND EQ ISZERO PUSH2 0xE17 JUMPI PUSH1 0x40 MLOAD PUSH32 0x8C379A000000000000000000000000000000000000000000000000000000000 DUP2 MSTORE PUSH1 0x4 ADD PUSH2 0xE0E SWAP1 PUSH2 0x1C0B JUMP JUMPDEST PUSH1 0x40 MLOAD DUP1 SWAP2 SUB SWAP1 REVERT JUMPDEST PUSH2 0xE20 DUP2 PUSH2 0x14CF JUMP JUMPDEST POP JUMP JUMPDEST PUSH1 0x0 CALLER SWAP1 POP SWAP1 JUMP JUMPDEST PUSH1 0x0 PUSH20 0xFFFFFFFFFFFFFFFFFFFFFFFFFFFFFFFFFFFFFFFF AND DUP4 PUSH20 0xFFFFFFFFFFFFFFFFFFFFFFFFFFFFFFFFFFFFFFFF AND EQ ISZERO PUSH2 0xE9B JUMPI PUSH1 0x40 MLOAD PUSH32 0x8C379A000000000000000000000000000000000000000000000000000000000 DUP2 MSTORE PUSH1 0x4 ADD PUSH2 0xE92 SWAP1 PUSH2 0x1CEB JUMP JUMPDEST PUSH1 0x40 MLOAD DUP1 SWAP2 SUB SWAP1 REVERT JUMPDEST PUSH1 0x0 PUSH20 0xFFFFFFFFFFFFFFFFFFFFFFFFFFFFFFFFFFFFFFFF AND DUP3 PUSH20 0xFFFFFFFFFFFFFFFFFFFFFFFFFFFFFFFFFFFFFFFF AND EQ ISZERO PUSH2 0xF0B JUMPI PUSH1 0x40 MLOAD PUSH32 0x8C379A000000000000000000000000000000000000000000000000000000000 DUP2 MSTORE PUSH1 0x4 ADD PUSH2 0xF02 SWAP1 PUSH2 0x1C2B JUMP JUMPDEST PUSH1 0x40 MLOAD DUP1 SWAP2 SUB SWAP1 REVERT JUMPDEST DUP1 PUSH1 0x1 PUSH1 0x0 DUP6 PUSH20 0xFFFFFFFFFFFFFFFFFFFFFFFFFFFFFFFFFFFFFFFF AND PUSH20 0xFFFFFFFFFFFFFFFFFFFFFFFFFFFFFFFFFFFFFFFF AND DUP2 MSTORE PUSH1 0x20 ADD SWAP1 DUP2 MSTORE PUSH1 0x20 ADD PUSH1 0x0 KECCAK256 PUSH1 0x0 DUP5 PUSH20 0xFFFFFFFFFFFFFFFFFFFFFFFFFFFFFFFFFFFFFFFF AND PUSH20 0xFFFFFFFFFFFFFFFFFFFFFFFFFFFFFFFFFFFFFFFF AND DUP2 MSTORE PUSH1 0x20 ADD SWAP1 DUP2 MSTORE PUSH1 0x20 ADD PUSH1 0x0 KECCAK256 DUP2 SWAP1 SSTORE POP DUP2 PUSH20 0xFFFFFFFFFFFFFFFFFFFFFFFFFFFFFFFFFFFFFFFF AND DUP4 PUSH20 0xFFFFFFFFFFFFFFFFFFFFFFFFFFFFFFFFFFFFFFFF AND PUSH32 0x8C5BE1E5EBEC7D5BD14F71427D1E84F3DD0314C0F7B2291E5B200AC8C7C3B925 DUP4 PUSH1 0x40 MLOAD PUSH2 0xFE9 SWAP2 SWAP1 PUSH2 0x1D4B JUMP JUMPDEST PUSH1 0x40 MLOAD DUP1 SWAP2 SUB SWAP1 LOG3 POP POP POP JUMP JUMPDEST PUSH1 0x0 PUSH2 0x1002 DUP5 DUP5 PUSH2 0xCDB JUMP JUMPDEST SWAP1 POP PUSH32 0xFFFFFFFFFFFFFFFFFFFFFFFFFFFFFFFFFFFFFFFFFFFFFFFFFFFFFFFFFFFFFFFF DUP2 EQ PUSH2 0x107C JUMPI DUP2 DUP2 LT ISZERO PUSH2 0x106E JUMPI PUSH1 0x40 MLOAD PUSH32 0x8C379A000000000000000000000000000000000000000000000000000000000 DUP2 MSTORE PUSH1 0x4 ADD PUSH2 0x1065 SWAP1 PUSH2 0x1C4B JUMP JUMPDEST PUSH1 0x40 MLOAD DUP1 SWAP2 SUB SWAP1 REVERT JUMPDEST PUSH2 0x107B DUP5 DUP5 DUP5 DUP5 SUB PUSH2 0xE2B JUMP JUMPDEST JUMPDEST POP POP POP POP JUMP JUMPDEST PUSH1 0x0 PUSH20 0xFFFFFFFFFFFFFFFFFFFFFFFFFFFFFFFFFFFFFFFF AND DUP4 PUSH20 0xFFFFFFFFFFFFFFFFFFFFFFFFFFFFFFFFFFFFFFFF AND EQ ISZERO PUSH2 0x10F2 JUMPI PUSH1 0x40 MLOAD PUSH32 0x8C379A000000000000000000000000000000000000000000000000000000000 DUP2 MSTORE PUSH1 0x4 ADD PUSH2 0x10E9 SWAP1 PUSH2 0x1CCB JUMP JUMPDEST PUSH1 0x40 MLOAD DUP1 SWAP2 SUB SWAP1 REVERT JUMPDEST PUSH1 0x0 PUSH20 0xFFFFFFFFFFFFFFFFFFFFFFFFFFFFFFFFFFFFFFFF AND DUP3 PUSH20 0xFFFFFFFFFFFFFFFFFFFFFFFFFFFFFFFFFFFFFFFF AND EQ ISZERO PUSH2 0x1162 JUMPI PUSH1 0x40 MLOAD PUSH32 0x8C379A000000000000000000000000000000000000000000000000000000000 DUP2 MSTORE PUSH1 0x4 ADD PUSH2 0x1159 SWAP1 PUSH2 0x1BEB JUMP JUMPDEST PUSH1 0x40 MLOAD DUP1 SWAP2 SUB SWAP1 REVERT JUMPDEST PUSH2 0x116D DUP4 DUP4 DUP4 PUSH2 0x1595 JUMP JUMPDEST PUSH1 0x0 DUP1 PUSH1 0x0 DUP6 PUSH20 0xFFFFFFFFFFFFFFFFFFFFFFFFFFFFFFFFFFFFFFFF AND PUSH20 0xFFFFFFFFFFFFFFFFFFFFFFFFFFFFFFFFFFFFFFFF AND DUP2 MSTORE PUSH1 0x20 ADD SWAP1 DUP2 MSTORE PUSH1 0x20 ADD PUSH1 0x0 KECCAK256 SLOAD SWAP1 POP DUP2 DUP2 LT ISZERO PUSH2 0x11F3 JUMPI PUSH1 0x40 MLOAD PUSH32 0x8C379A000000000000000000000000000000000000000000000000000000000 DUP2 MSTORE PUSH1 0x4 ADD PUSH2 0x11EA SWAP1 PUSH2 0x1C6B JUMP JUMPDEST PUSH1 0x40 MLOAD DUP1 SWAP2 SUB SWAP1 REVERT JUMPDEST DUP2 DUP2 SUB PUSH1 0x0 DUP1 DUP7 PUSH20 0xFFFFFFFFFFFFFFFFFFFFFFFFFFFFFFFFFFFFFFFF AND PUSH20 0xFFFFFFFFFFFFFFFFFFFFFFFFFFFFFFFFFFFFFFFF AND DUP2 MSTORE PUSH1 0x20 ADD SWAP1 DUP2 MSTORE PUSH1 0x20 ADD PUSH1 0x0 KECCAK256 DUP2 SWAP1 SSTORE POP DUP2 PUSH1 0x0 DUP1 DUP6 PUSH20 0xFFFFFFFFFFFFFFFFFFFFFFFFFFFFFFFFFFFFFFFF AND PUSH20 0xFFFFFFFFFFFFFFFFFFFFFFFFFFFFFFFFFFFFFFFF AND DUP2 MSTORE PUSH1 0x20 ADD SWAP1 DUP2 MSTORE PUSH1 0x20 ADD PUSH1 0x0 KECCAK256 PUSH1 0x0 DUP3 DUP3 SLOAD ADD SWAP3 POP POP DUP2 SWAP1 SSTORE POP DUP3 PUSH20 0xFFFFFFFFFFFFFFFFFFFFFFFFFFFFFFFFFFFFFFFF AND DUP5 PUSH20 0xFFFFFFFFFFFFFFFFFFFFFFFFFFFFFFFFFFFFFFFF AND PUSH32 0xDDF252AD1BE2C89B69C2B068FC378DAA952BA7F163C4A11628F55A4DF523B3EF DUP5 PUSH1 0x40 MLOAD PUSH2 0x12E1 SWAP2 SWAP1 PUSH2 0x1D4B JUMP JUMPDEST PUSH1 0x40 MLOAD DUP1 SWAP2 SUB SWAP1 LOG3 PUSH2 0x12F4 DUP5 DUP5 DUP5 PUSH2 0x159A JUMP JUMPDEST POP POP POP POP JUMP JUMPDEST PUSH2 0x1302 PUSH2 0xE23 JUMP JUMPDEST PUSH20 0xFFFFFFFFFFFFFFFFFFFFFFFFFFFFFFFFFFFFFFFF AND PUSH2 0x1320 PUSH2 0x87A JUMP JUMPDEST PUSH20 0xFFFFFFFFFFFFFFFFFFFFFFFFFFFFFFFFFFFFFFFF AND EQ PUSH2 0x1376 JUMPI PUSH1 0x40 MLOAD PUSH32 0x8C379A000000000000000000000000000000000000000000000000000000000 DUP2 MSTORE PUSH1 0x4 ADD PUSH2 0x136D SWAP1 PUSH2 0x1CAB JUMP JUMPDEST PUSH1 0x40 MLOAD DUP1 SWAP2 SUB SWAP1 REVERT JUMPDEST JUMP JUMPDEST PUSH1 0x0 PUSH20 0xFFFFFFFFFFFFFFFFFFFFFFFFFFFFFFFFFFFFFFFF AND DUP3 PUSH20 0xFFFFFFFFFFFFFFFFFFFFFFFFFFFFFFFFFFFFFFFF AND EQ ISZERO PUSH2 0x13E8 JUMPI PUSH1 0x40 MLOAD PUSH32 0x8C379A000000000000000000000000000000000000000000000000000000000 DUP2 MSTORE PUSH1 0x4 ADD PUSH2 0x13DF SWAP1 PUSH2 0x1D2B JUMP JUMPDEST PUSH1 0x40 MLOAD DUP1 SWAP2 SUB SWAP1 REVERT JUMPDEST PUSH2 0x13F4 PUSH1 0x0 DUP4 DUP4 PUSH2 0x1595 JUMP JUMPDEST DUP1 PUSH1 0x2 PUSH1 0x0 DUP3 DUP3 SLOAD PUSH2 0x1406 SWAP2 SWAP1 PUSH2 0x1D9D JUMP JUMPDEST SWAP3 POP POP DUP2 SWAP1 SSTORE POP DUP1 PUSH1 0x0 DUP1 DUP5 PUSH20 0xFFFFFFFFFFFFFFFFFFFFFFFFFFFFFFFFFFFFFFFF AND PUSH20 0xFFFFFFFFFFFFFFFFFFFFFFFFFFFFFFFFFFFFFFFF AND DUP2 MSTORE PUSH1 0x20 ADD SWAP1 DUP2 MSTORE PUSH1 0x20 ADD PUSH1 0x0 KECCAK256 PUSH1 0x0 DUP3 DUP3 SLOAD ADD SWAP3 POP POP DUP2 SWAP1 SSTORE POP DUP2 PUSH20 0xFFFFFFFFFFFFFFFFFFFFFFFFFFFFFFFFFFFFFFFF AND PUSH1 0x0 PUSH20 0xFFFFFFFFFFFFFFFFFFFFFFFFFFFFFFFFFFFFFFFF AND PUSH32 0xDDF252AD1BE2C89B69C2B068FC378DAA952BA7F163C4A11628F55A4DF523B3EF DUP4 PUSH1 0x40 MLOAD PUSH2 0x14B7 SWAP2 SWAP1 PUSH2 0x1D4B JUMP JUMPDEST PUSH1 0x40 MLOAD DUP1 SWAP2 SUB SWAP1 LOG3 PUSH2 0x14CB PUSH1 0x0 DUP4 DUP4 PUSH2 0x159A JUMP JUMPDEST POP POP JUMP JUMPDEST PUSH1 0x0 PUSH1 0x5 PUSH1 0x0 SWAP1 SLOAD SWAP1 PUSH2 0x100 EXP SWAP1 DIV PUSH20 0xFFFFFFFFFFFFFFFFFFFFFFFFFFFFFFFFFFFFFFFF AND SWAP1 POP DUP2 PUSH1 0x5 PUSH1 0x0 PUSH2 0x100 EXP DUP2 SLOAD DUP2 PUSH20 0xFFFFFFFFFFFFFFFFFFFFFFFFFFFFFFFFFFFFFFFF MUL NOT AND SWAP1 DUP4 PUSH20 0xFFFFFFFFFFFFFFFFFFFFFFFFFFFFFFFFFFFFFFFF AND MUL OR SWAP1 SSTORE POP DUP2 PUSH20 0xFFFFFFFFFFFFFFFFFFFFFFFFFFFFFFFFFFFFFFFF AND DUP2 PUSH20 0xFFFFFFFFFFFFFFFFFFFFFFFFFFFFFFFFFFFFFFFF AND PUSH32 0x8BE0079C531659141344CD1FD0A4F28419497F9722A3DAAFE3B4186F6B6457E0 PUSH1 0x40 MLOAD PUSH1 0x40 MLOAD DUP1 SWAP2 SUB SWAP1 LOG3 POP POP JUMP JUMPDEST POP POP POP JUMP JUMPDEST POP POP POP JUMP JUMPDEST PUSH1 0x0 DUP2 CALLDATALOAD SWAP1 POP PUSH2 0x15AE DUP2 PUSH2 0x1F1C JUMP JUMPDEST SWAP3 SWAP2 POP POP JUMP JUMPDEST PUSH1 0x0 DUP2 CALLDATALOAD SWAP1 POP PUSH2 0x15C3 DUP2 PUSH2 0x1F33 JUMP JUMPDEST SWAP3 SWAP2 POP POP JUMP JUMPDEST PUSH1 0x0 DUP2 MLOAD SWAP1 POP PUSH2 0x15D8 DUP2 PUSH2 0x1F33 JUMP JUMPDEST SWAP3 SWAP2 POP POP JUMP JUMPDEST PUSH1 0x0 PUSH1 0x20 DUP3 DUP5 SUB SLT ISZERO PUSH2 0x15F0 JUMPI PUSH1 0x0 DUP1 REVERT JUMPDEST PUSH1 0x0 PUSH2 0x15FE DUP5 DUP3 DUP6 ADD PUSH2 0x159F JUMP JUMPDEST SWAP2 POP POP SWAP3 SWAP2 POP POP JUMP JUMPDEST PUSH1 0x0 DUP1 PUSH1 0x40 DUP4 DUP6 SUB SLT ISZERO PUSH2 0x161A JUMPI PUSH1 0x0 DUP1 REVERT JUMPDEST PUSH1 0x0 PUSH2 0x1628 DUP6 DUP3 DUP7 ADD PUSH2 0x159F JUMP JUMPDEST SWAP3 POP POP PUSH1 0x20 PUSH2 0x1639 DUP6 DUP3 DUP7 ADD PUSH2 0x159F JUMP JUMPDEST SWAP2 POP POP SWAP3 POP SWAP3 SWAP1 POP JUMP JUMPDEST PUSH1 0x0 DUP1 PUSH1 0x0 PUSH1 0x60 DUP5 DUP7 SUB SLT ISZERO PUSH2 0x1658 JUMPI PUSH1 0x0 DUP1 REVERT JUMPDEST PUSH1 0x0 PUSH2 0x1666 DUP7 DUP3 DUP8 ADD PUSH2 0x159F JUMP JUMPDEST SWAP4 POP POP PUSH1 0x20 PUSH2 0x1677 DUP7 DUP3 DUP8 ADD PUSH2 0x159F JUMP JUMPDEST SWAP3 POP POP PUSH1 0x40 PUSH2 0x1688 DUP7 DUP3 DUP8 ADD PUSH2 0x15B4 JUMP JUMPDEST SWAP2 POP POP SWAP3 POP SWAP3 POP SWAP3 JUMP JUMPDEST PUSH1 0x0 DUP1 PUSH1 0x40 DUP4 DUP6 SUB SLT ISZERO PUSH2 0x16A5 JUMPI PUSH1 0x0 DUP1 REVERT JUMPDEST PUSH1 0x0 PUSH2 0x16B3 DUP6 DUP3 DUP7 ADD PUSH2 0x159F JUMP JUMPDEST SWAP3 POP POP PUSH1 0x20 PUSH2 0x16C4 DUP6 DUP3 DUP7 ADD PUSH2 0x15B4 JUMP JUMPDEST SWAP2 POP POP SWAP3 POP SWAP3 SWAP1 POP JUMP JUMPDEST PUSH1 0x0 PUSH1 0x20 DUP3 DUP5 SUB SLT ISZERO PUSH2 0x16E0 JUMPI PUSH1 0x0 DUP1 REVERT JUMPDEST PUSH1 0x0 PUSH2 0x16EE DUP5 DUP3 DUP6 ADD PUSH2 0x15C9 JUMP JUMPDEST SWAP2 POP POP SWAP3 SWAP2 POP POP JUMP JUMPDEST PUSH2 0x1700 DUP2 PUSH2 0x1DF3 JUMP JUMPDEST DUP3 MSTORE POP POP JUMP JUMPDEST PUSH2 0x170F DUP2 PUSH2 0x1E05 JUMP JUMPDEST DUP3 MSTORE POP POP JUMP JUMPDEST PUSH1 0x0 PUSH2 0x1720 DUP3 PUSH2 0x1D81 JUMP JUMPDEST PUSH2 0x172A DUP2 DUP6 PUSH2 0x1D8C JUMP JUMPDEST SWAP4 POP PUSH2 0x173A DUP2 DUP6 PUSH1 0x20 DUP7 ADD PUSH2 0x1E48 JUMP JUMPDEST PUSH2 0x1743 DUP2 PUSH2 0x1F0B JUMP JUMPDEST DUP5 ADD SWAP2 POP POP SWAP3 SWAP2 POP POP JUMP JUMPDEST PUSH1 0x0 PUSH2 0x175B PUSH1 0x23 DUP4 PUSH2 0x1D8C JUMP JUMPDEST SWAP2 POP PUSH32 0x45524332303A207472616E7366657220746F20746865207A65726F2061646472 PUSH1 0x0 DUP4 ADD MSTORE PUSH32 0x6573730000000000000000000000000000000000000000000000000000000000 PUSH1 0x20 DUP4 ADD MSTORE PUSH1 0x40 DUP3 ADD SWAP1 POP SWAP2 SWAP1 POP JUMP JUMPDEST PUSH1 0x0 PUSH2 0x17C1 PUSH1 0x26 DUP4 PUSH2 0x1D8C JUMP JUMPDEST SWAP2 POP PUSH32 0x4F776E61626C653A206E6577206F776E657220697320746865207A65726F2061 PUSH1 0x0 DUP4 ADD MSTORE PUSH32 0x6464726573730000000000000000000000000000000000000000000000000000 PUSH1 0x20 DUP4 ADD MSTORE PUSH1 0x40 DUP3 ADD SWAP1 POP SWAP2 SWAP1 POP JUMP JUMPDEST PUSH1 0x0 PUSH2 0x1827 PUSH1 0x22 DUP4 PUSH2 0x1D8C JUMP JUMPDEST SWAP2 POP PUSH32 0x45524332303A20617070726F766520746F20746865207A65726F206164647265 PUSH1 0x0 DUP4 ADD MSTORE PUSH32 0x7373000000000000000000000000000000000000000000000000000000000000 PUSH1 0x20 DUP4 ADD MSTORE PUSH1 0x40 DUP3 ADD SWAP1 POP SWAP2 SWAP1 POP JUMP JUMPDEST PUSH1 0x0 PUSH2 0x188D PUSH1 0x1D DUP4 PUSH2 0x1D8C JUMP JUMPDEST SWAP2 POP PUSH32 0x45524332303A20696E73756666696369656E7420616C6C6F77616E6365000000 PUSH1 0x0 DUP4 ADD MSTORE PUSH1 0x20 DUP3 ADD SWAP1 POP SWAP2 SWAP1 POP JUMP JUMPDEST PUSH1 0x0 PUSH2 0x18CD PUSH1 0x26 DUP4 PUSH2 0x1D8C JUMP JUMPDEST SWAP2 POP PUSH32 0x45524332303A207472616E7366657220616D6F756E7420657863656564732062 PUSH1 0x0 DUP4 ADD MSTORE PUSH32 0x616C616E63650000000000000000000000000000000000000000000000000000 PUSH1 0x20 DUP4 ADD MSTORE PUSH1 0x40 DUP3 ADD SWAP1 POP SWAP2 SWAP1 POP JUMP JUMPDEST PUSH1 0x0 PUSH2 0x1933 PUSH1 0x28 DUP4 PUSH2 0x1D8C JUMP JUMPDEST SWAP2 POP PUSH32 0x4465706F73697420746F6B656E73206265666F726520636865636B696E672066 PUSH1 0x0 DUP4 ADD MSTORE PUSH32 0x6F7220736C61622E000000000000000000000000000000000000000000000000 PUSH1 0x20 DUP4 ADD MSTORE PUSH1 0x40 DUP3 ADD SWAP1 POP SWAP2 SWAP1 POP JUMP JUMPDEST PUSH1 0x0 PUSH2 0x1999 PUSH1 0x20 DUP4 PUSH2 0x1D8C JUMP JUMPDEST SWAP2 POP PUSH32 0x4F776E61626C653A2063616C6C6572206973206E6F7420746865206F776E6572 PUSH1 0x0 DUP4 ADD MSTORE PUSH1 0x20 DUP3 ADD SWAP1 POP SWAP2 SWAP1 POP JUMP JUMPDEST PUSH1 0x0 PUSH2 0x19D9 PUSH1 0x25 DUP4 PUSH2 0x1D8C JUMP JUMPDEST SWAP2 POP PUSH32 0x45524332303A207472616E736665722066726F6D20746865207A65726F206164 PUSH1 0x0 DUP4 ADD MSTORE PUSH32 0x6472657373000000000000000000000000000000000000000000000000000000 PUSH1 0x20 DUP4 ADD MSTORE PUSH1 0x40 DUP3 ADD SWAP1 POP SWAP2 SWAP1 POP JUMP JUMPDEST PUSH1 0x0 PUSH2 0x1A3F PUSH1 0x24 DUP4 PUSH2 0x1D8C JUMP JUMPDEST SWAP2 POP PUSH32 0x45524332303A20617070726F76652066726F6D20746865207A65726F20616464 PUSH1 0x0 DUP4 ADD MSTORE PUSH32 0x7265737300000000000000000000000000000000000000000000000000000000 PUSH1 0x20 DUP4 ADD MSTORE PUSH1 0x40 DUP3 ADD SWAP1 POP SWAP2 SWAP1 POP JUMP JUMPDEST PUSH1 0x0 PUSH2 0x1AA5 PUSH1 0x25 DUP4 PUSH2 0x1D8C JUMP JUMPDEST SWAP2 POP PUSH32 0x45524332303A2064656372656173656420616C6C6F77616E63652062656C6F77 PUSH1 0x0 DUP4 ADD MSTORE PUSH32 0x207A65726F000000000000000000000000000000000000000000000000000000 PUSH1 0x20 DUP4 ADD MSTORE PUSH1 0x40 DUP3 ADD SWAP1 POP SWAP2 SWAP1 POP JUMP JUMPDEST PUSH1 0x0 PUSH2 0x1B0B PUSH1 0x1F DUP4 PUSH2 0x1D8C JUMP JUMPDEST SWAP2 POP PUSH32 0x45524332303A206D696E7420746F20746865207A65726F206164647265737300 PUSH1 0x0 DUP4 ADD MSTORE PUSH1 0x20 DUP3 ADD SWAP1 POP SWAP2 SWAP1 POP JUMP JUMPDEST PUSH2 0x1B47 DUP2 PUSH2 0x1E31 JUMP JUMPDEST DUP3 MSTORE POP POP JUMP JUMPDEST PUSH2 0x1B56 DUP2 PUSH2 0x1E3B JUMP JUMPDEST DUP3 MSTORE POP POP JUMP JUMPDEST PUSH1 0x0 PUSH1 0x20 DUP3 ADD SWAP1 POP PUSH2 0x1B71 PUSH1 0x0 DUP4 ADD DUP5 PUSH2 0x16F7 JUMP JUMPDEST SWAP3 SWAP2 POP POP JUMP JUMPDEST PUSH1 0x0 PUSH1 0x20 DUP3 ADD SWAP1 POP PUSH2 0x1B8C PUSH1 0x0 DUP4 ADD DUP5 PUSH2 0x1706 JUMP JUMPDEST SWAP3 SWAP2 POP POP JUMP JUMPDEST PUSH1 0x0 PUSH1 0x60 DUP3 ADD SWAP1 POP PUSH2 0x1BA7 PUSH1 0x0 DUP4 ADD DUP7 PUSH2 0x1706 JUMP JUMPDEST PUSH2 0x1BB4 PUSH1 0x20 DUP4 ADD DUP6 PUSH2 0x1B3E JUMP JUMPDEST PUSH2 0x1BC1 PUSH1 0x40 DUP4 ADD DUP5 PUSH2 0x1B3E JUMP JUMPDEST SWAP5 SWAP4 POP POP POP POP JUMP JUMPDEST PUSH1 0x0 PUSH1 0x20 DUP3 ADD SWAP1 POP DUP2 DUP2 SUB PUSH1 0x0 DUP4 ADD MSTORE PUSH2 0x1BE3 DUP2 DUP5 PUSH2 0x1715 JUMP JUMPDEST SWAP1 POP SWAP3 SWAP2 POP POP JUMP JUMPDEST PUSH1 0x0 PUSH1 0x20 DUP3 ADD SWAP1 POP DUP2 DUP2 SUB PUSH1 0x0 DUP4 ADD MSTORE PUSH2 0x1C04 DUP2 PUSH2 0x174E JUMP JUMPDEST SWAP1 POP SWAP2 SWAP1 POP JUMP JUMPDEST PUSH1 0x0 PUSH1 0x20 DUP3 ADD SWAP1 POP DUP2 DUP2 SUB PUSH1 0x0 DUP4 ADD MSTORE PUSH2 0x1C24 DUP2 PUSH2 0x17B4 JUMP JUMPDEST SWAP1 POP SWAP2 SWAP1 POP JUMP JUMPDEST PUSH1 0x0 PUSH1 0x20 DUP3 ADD SWAP1 POP DUP2 DUP2 SUB PUSH1 0x0 DUP4 ADD MSTORE PUSH2 0x1C44 DUP2 PUSH2 0x181A JUMP JUMPDEST SWAP1 POP SWAP2 SWAP1 POP JUMP JUMPDEST PUSH1 0x0 PUSH1 0x20 DUP3 ADD SWAP1 POP DUP2 DUP2 SUB PUSH1 0x0 DUP4 ADD MSTORE PUSH2 0x1C64 DUP2 PUSH2 0x1880 JUMP JUMPDEST SWAP1 POP SWAP2 SWAP1 POP JUMP JUMPDEST PUSH1 0x0 PUSH1 0x20 DUP3 ADD SWAP1 POP DUP2 DUP2 SUB PUSH1 0x0 DUP4 ADD MSTORE PUSH2 0x1C84 DUP2 PUSH2 0x18C0 JUMP JUMPDEST SWAP1 POP SWAP2 SWAP1 POP JUMP JUMPDEST PUSH1 0x0 PUSH1 0x20 DUP3 ADD SWAP1 POP DUP2 DUP2 SUB PUSH1 0x0 DUP4 ADD MSTORE PUSH2 0x1CA4 DUP2 PUSH2 0x1926 JUMP JUMPDEST SWAP1 POP SWAP2 SWAP1 POP JUMP JUMPDEST PUSH1 0x0 PUSH1 0x20 DUP3 ADD SWAP1 POP DUP2 DUP2 SUB PUSH1 0x0 DUP4 ADD MSTORE PUSH2 0x1CC4 DUP2 PUSH2 0x198C JUMP JUMPDEST SWAP1 POP SWAP2 SWAP1 POP JUMP JUMPDEST PUSH1 0x0 PUSH1 0x20 DUP3 ADD SWAP1 POP DUP2 DUP2 SUB PUSH1 0x0 DUP4 ADD MSTORE PUSH2 0x1CE4 DUP2 PUSH2 0x19CC JUMP JUMPDEST SWAP1 POP SWAP2 SWAP1 POP JUMP JUMPDEST PUSH1 0x0 PUSH1 0x20 DUP3 ADD SWAP1 POP DUP2 DUP2 SUB PUSH1 0x0 DUP4 ADD MSTORE PUSH2 0x1D04 DUP2 PUSH2 0x1A32 JUMP JUMPDEST SWAP1 POP SWAP2 SWAP1 POP JUMP JUMPDEST PUSH1 0x0 PUSH1 0x20 DUP3 ADD SWAP1 POP DUP2 DUP2 SUB PUSH1 0x0 DUP4 ADD MSTORE PUSH2 0x1D24 DUP2 PUSH2 0x1A98 JUMP JUMPDEST SWAP1 POP SWAP2 SWAP1 POP JUMP JUMPDEST PUSH1 0x0 PUSH1 0x20 DUP3 ADD SWAP1 POP DUP2 DUP2 SUB PUSH1 0x0 DUP4 ADD MSTORE PUSH2 0x1D44 DUP2 PUSH2 0x1AFE JUMP JUMPDEST SWAP1 POP SWAP2 SWAP1 POP JUMP JUMPDEST PUSH1 0x0 PUSH1 0x20 DUP3 ADD SWAP1 POP PUSH2 0x1D60 PUSH1 0x0 DUP4 ADD DUP5 PUSH2 0x1B3E JUMP JUMPDEST SWAP3 SWAP2 POP POP JUMP JUMPDEST PUSH1 0x0 PUSH1 0x20 DUP3 ADD SWAP1 POP PUSH2 0x1D7B PUSH1 0x0 DUP4 ADD DUP5 PUSH2 0x1B4D JUMP JUMPDEST SWAP3 SWAP2 POP POP JUMP JUMPDEST PUSH1 0x0 DUP2 MLOAD SWAP1 POP SWAP2 SWAP1 POP JUMP JUMPDEST PUSH1 0x0 DUP3 DUP3 MSTORE PUSH1 0x20 DUP3 ADD SWAP1 POP SWAP3 SWAP2 POP POP JUMP JUMPDEST PUSH1 0x0 PUSH2 0x1DA8 DUP3 PUSH2 0x1E31 JUMP JUMPDEST SWAP2 POP PUSH2 0x1DB3 DUP4 PUSH2 0x1E31 JUMP JUMPDEST SWAP3 POP DUP3 PUSH32 0xFFFFFFFFFFFFFFFFFFFFFFFFFFFFFFFFFFFFFFFFFFFFFFFFFFFFFFFFFFFFFFFF SUB DUP3 GT ISZERO PUSH2 0x1DE8 JUMPI PUSH2 0x1DE7 PUSH2 0x1EAD JUMP JUMPDEST JUMPDEST DUP3 DUP3 ADD SWAP1 POP SWAP3 SWAP2 POP POP JUMP JUMPDEST PUSH1 0x0 PUSH2 0x1DFE DUP3 PUSH2 0x1E11 JUMP JUMPDEST SWAP1 POP SWAP2 SWAP1 POP JUMP JUMPDEST PUSH1 0x0 DUP2 ISZERO ISZERO SWAP1 POP SWAP2 SWAP1 POP JUMP JUMPDEST PUSH1 0x0 PUSH20 0xFFFFFFFFFFFFFFFFFFFFFFFFFFFFFFFFFFFFFFFF DUP3 AND SWAP1 POP SWAP2 SWAP1 POP JUMP JUMPDEST PUSH1 0x0 DUP2 SWAP1 POP SWAP2 SWAP1 POP JUMP JUMPDEST PUSH1 0x0 PUSH1 0xFF DUP3 AND SWAP1 POP SWAP2 SWAP1 POP JUMP JUMPDEST PUSH1 0x0 JUMPDEST DUP4 DUP2 LT ISZERO PUSH2 0x1E66 JUMPI DUP1 DUP3 ADD MLOAD DUP2 DUP5 ADD MSTORE PUSH1 0x20 DUP2 ADD SWAP1 POP PUSH2 0x1E4B JUMP JUMPDEST DUP4 DUP2 GT ISZERO PUSH2 0x1E75 JUMPI PUSH1 0x0 DUP5 DUP5 ADD MSTORE JUMPDEST POP POP POP POP JUMP JUMPDEST PUSH1 0x0 PUSH1 0x2 DUP3 DIV SWAP1 POP PUSH1 0x1 DUP3 AND DUP1 PUSH2 0x1E93 JUMPI PUSH1 0x7F DUP3 AND SWAP2 POP JUMPDEST PUSH1 0x20 DUP3 LT DUP2 EQ ISZERO PUSH2 0x1EA7 JUMPI PUSH2 0x1EA6 PUSH2 0x1EDC JUMP JUMPDEST JUMPDEST POP SWAP2 SWAP1 POP JUMP JUMPDEST PUSH32 0x4E487B7100000000000000000000000000000000000000000000000000000000 PUSH1 0x0 MSTORE PUSH1 0x11 PUSH1 0x4 MSTORE PUSH1 0x24 PUSH1 0x0 REVERT JUMPDEST PUSH32 0x4E487B7100000000000000000000000000000000000000000000000000000000 PUSH1 0x0 MSTORE PUSH1 0x22 PUSH1 0x4 MSTORE PUSH1 0x24 PUSH1 0x0 REVERT JUMPDEST PUSH1 0x0 PUSH1 0x1F NOT PUSH1 0x1F DUP4 ADD AND SWAP1 POP SWAP2 SWAP1 POP JUMP JUMPDEST PUSH2 0x1F25 DUP2 PUSH2 0x1DF3 JUMP JUMPDEST DUP2 EQ PUSH2 0x1F30 JUMPI PUSH1 0x0 DUP1 REVERT JUMPDEST POP JUMP JUMPDEST PUSH2 0x1F3C DUP2 PUSH2 0x1E31 JUMP JUMPDEST DUP2 EQ PUSH2 0x1F47 JUMPI PUSH1 0x0 DUP1 REVERT JUMPDEST POP JUMP INVALID LOG2 PUSH5 0x6970667358 0x22 SLT KECCAK256 JUMPI 0xAD ADDRESS 0xAF DUP12 LOG3 DUP15 SMOD SLT DIV 0xC7 SWAP15 0xDC 0xE6 0x49 CREATE2 0xAF PUSH12 0x2127479440E36FA5F19819F KECCAK256 0xF9 PUSH5 0x736F6C6343 STOP ADDMOD STOP STOP CALLER "
				},
				"gasEstimates": {
					"creation": {
						"codeDepositCost": "1612800",
						"executionCost": "infinite",
						"totalCost": "infinite"
					},
					"external": {
						"allowance(address,address)": "infinite",
						"approve(address,uint256)": "infinite",
						"assignSlab()": "21422",
						"balanceOf(address)": "1608",
						"decimals()": "455",
						"decreaseAllowance(address,uint256)": "infinite",
						"deposited()": "1217",
						"getBalanceOfToken(address)": "infinite",
						"increaseAllowance(address,uint256)": "infinite",
						"mint(address,uint256)": "infinite",
						"name()": "infinite",
						"owner()": "1267",
						"renounceOwnership()": "24487",
						"returnSlab(address)": "2563",
						"slabDetails(address)": "infinite",
						"symbol()": "infinite",
						"totalSupply()": "1205",
						"transfer(address,uint256)": "infinite",
						"transferFrom(address,address,uint256)": "infinite",
						"transferOwnership(address)": "24879",
						"transferToContract(address,uint256)": "infinite"
					}
				},
				"methodIdentifiers": {
					"allowance(address,address)": "dd62ed3e",
					"approve(address,uint256)": "095ea7b3",
					"assignSlab()": "ae14bcbe",
					"balanceOf(address)": "70a08231",
					"decimals()": "313ce567",
					"decreaseAllowance(address,uint256)": "a457c2d7",
					"deposited()": "eef49ee3",
					"getBalanceOfToken(address)": "83786f8c",
					"increaseAllowance(address,uint256)": "39509351",
					"mint(address,uint256)": "40c10f19",
					"name()": "06fdde03",
					"owner()": "8da5cb5b",
					"renounceOwnership()": "715018a6",
					"returnSlab(address)": "958fb03d",
					"slabDetails(address)": "f01e2359",
					"symbol()": "95d89b41",
					"totalSupply()": "18160ddd",
					"transfer(address,uint256)": "a9059cbb",
					"transferFrom(address,address,uint256)": "23b872dd",
					"transferOwnership(address)": "f2fde38b",
					"transferToContract(address,uint256)": "80cecea9"
				}
			},
			"storageLayout": {
				"storage": [
					{
						"astId": 128,
						"contract": "contracts/MyToken.sol:Yebelo",
						"label": "_balances",
						"offset": 0,
						"slot": "0",
						"type": "t_mapping(t_address,t_uint256)"
					},
					{
						"astId": 134,
						"contract": "contracts/MyToken.sol:Yebelo",
						"label": "_allowances",
						"offset": 0,
						"slot": "1",
						"type": "t_mapping(t_address,t_mapping(t_address,t_uint256))"
					},
					{
						"astId": 136,
						"contract": "contracts/MyToken.sol:Yebelo",
						"label": "_totalSupply",
						"offset": 0,
						"slot": "2",
						"type": "t_uint256"
					},
					{
						"astId": 138,
						"contract": "contracts/MyToken.sol:Yebelo",
						"label": "_name",
						"offset": 0,
						"slot": "3",
						"type": "t_string_storage"
					},
					{
						"astId": 140,
						"contract": "contracts/MyToken.sol:Yebelo",
						"label": "_symbol",
						"offset": 0,
						"slot": "4",
						"type": "t_string_storage"
					},
					{
						"astId": 7,
						"contract": "contracts/MyToken.sol:Yebelo",
						"label": "_owner",
						"offset": 0,
						"slot": "5",
						"type": "t_address"
					},
					{
						"astId": 835,
						"contract": "contracts/MyToken.sol:Yebelo",
						"label": "deposited",
						"offset": 0,
						"slot": "6",
						"type": "t_uint256"
					},
					{
						"astId": 837,
						"contract": "contracts/MyToken.sol:Yebelo",
						"label": "lastTransfer",
						"offset": 0,
						"slot": "7",
						"type": "t_uint256"
					},
					{
						"astId": 839,
						"contract": "contracts/MyToken.sol:Yebelo",
						"label": "own",
						"offset": 0,
						"slot": "8",
						"type": "t_address_payable"
					},
					{
						"astId": 851,
						"contract": "contracts/MyToken.sol:Yebelo",
						"label": "slabDetails",
						"offset": 0,
						"slot": "9",
						"type": "t_mapping(t_address,t_struct(Stack)846_storage)"
					}
				],
				"types": {
					"t_address": {
						"encoding": "inplace",
						"label": "address",
						"numberOfBytes": "20"
					},
					"t_address_payable": {
						"encoding": "inplace",
						"label": "address payable",
						"numberOfBytes": "20"
					},
					"t_bool": {
						"encoding": "inplace",
						"label": "bool",
						"numberOfBytes": "1"
					},
					"t_mapping(t_address,t_mapping(t_address,t_uint256))": {
						"encoding": "mapping",
						"key": "t_address",
						"label": "mapping(address => mapping(address => uint256))",
						"numberOfBytes": "32",
						"value": "t_mapping(t_address,t_uint256)"
					},
					"t_mapping(t_address,t_struct(Stack)846_storage)": {
						"encoding": "mapping",
						"key": "t_address",
						"label": "mapping(address => struct Yebelo.Stack)",
						"numberOfBytes": "32",
						"value": "t_struct(Stack)846_storage"
					},
					"t_mapping(t_address,t_uint256)": {
						"encoding": "mapping",
						"key": "t_address",
						"label": "mapping(address => uint256)",
						"numberOfBytes": "32",
						"value": "t_uint256"
					},
					"t_string_storage": {
						"encoding": "bytes",
						"label": "string",
						"numberOfBytes": "32"
					},
					"t_struct(Stack)846_storage": {
						"encoding": "inplace",
						"label": "struct Yebelo.Stack",
						"members": [
							{
								"astId": 841,
								"contract": "contracts/MyToken.sol:Yebelo",
								"label": "hasDeposited",
								"offset": 0,
								"slot": "0",
								"type": "t_bool"
							},
							{
								"astId": 843,
								"contract": "contracts/MyToken.sol:Yebelo",
								"label": "depositedAmount",
								"offset": 0,
								"slot": "1",
								"type": "t_uint256"
							},
							{
								"astId": 845,
								"contract": "contracts/MyToken.sol:Yebelo",
								"label": "slab",
								"offset": 0,
								"slot": "2",
								"type": "t_uint256"
							}
						],
						"numberOfBytes": "96"
					},
					"t_uint256": {
						"encoding": "inplace",
						"label": "uint256",
						"numberOfBytes": "32"
					}
				}
			},
			"userdoc": {
				"kind": "user",
				"methods": {
					"getBalanceOfToken(address)": {
						"notice": "Query for token balanceOf contract's address"
					},
					"returnSlab(address)": {
						"notice": "Query for slab of a given address"
					},
					"transferToContract(address,uint256)": {
						"notice": "Core function to transfer tokens to contract address"
					}
				},
				"version": 1
			}
		}
	}
}